{
	".deps/Derivative/DerivativeContract.sol": {
		"DerivativeContract": {
			"abi": [
				{
					"anonymous": false,
					"inputs": [
						{
							"indexed": true,
							"internalType": "address",
							"name": "user",
							"type": "address"
						},
						{
							"indexed": false,
							"internalType": "uint256",
							"name": "amount",
							"type": "uint256"
						}
					],
					"name": "Deposit",
					"type": "event"
				},
				{
					"anonymous": false,
					"inputs": [
						{
							"indexed": true,
							"internalType": "uint256",
							"name": "derivativeId",
							"type": "uint256"
						}
					],
					"name": "DerivativeClosed",
					"type": "event"
				},
				{
					"anonymous": false,
					"inputs": [
						{
							"indexed": true,
							"internalType": "uint256",
							"name": "derivativeId",
							"type": "uint256"
						}
					],
					"name": "DerivativeSettled",
					"type": "event"
				},
				{
					"anonymous": false,
					"inputs": [
						{
							"indexed": true,
							"internalType": "uint256",
							"name": "derivativeId",
							"type": "uint256"
						},
						{
							"indexed": false,
							"internalType": "uint256",
							"name": "newPrice",
							"type": "uint256"
						}
					],
					"name": "DerivativeUpdated",
					"type": "event"
				},
				{
					"anonymous": false,
					"inputs": [
						{
							"indexed": true,
							"internalType": "uint256",
							"name": "nextDerivativeId",
							"type": "uint256"
						},
						{
							"indexed": true,
							"internalType": "address",
							"name": "seller",
							"type": "address"
						},
						{
							"indexed": true,
							"internalType": "address",
							"name": "buyer",
							"type": "address"
						},
						{
							"indexed": false,
							"internalType": "uint256",
							"name": "price",
							"type": "uint256"
						},
						{
							"indexed": false,
							"internalType": "uint256",
							"name": "expiration",
							"type": "uint256"
						}
					],
					"name": "NewDerivative",
					"type": "event"
				},
				{
					"inputs": [
						{
							"internalType": "address",
							"name": "",
							"type": "address"
						}
					],
					"name": "balances",
					"outputs": [
						{
							"internalType": "uint256",
							"name": "",
							"type": "uint256"
						}
					],
					"stateMutability": "view",
					"type": "function"
				},
				{
					"inputs": [
						{
							"internalType": "uint256",
							"name": "derivativeId",
							"type": "uint256"
						}
					],
					"name": "closeDerivative",
					"outputs": [],
					"stateMutability": "nonpayable",
					"type": "function"
				},
				{
					"inputs": [
						{
							"internalType": "address",
							"name": "_buyer",
							"type": "address"
						},
						{
							"internalType": "uint256",
							"name": "_price",
							"type": "uint256"
						},
						{
							"internalType": "uint256",
							"name": "_expiration",
							"type": "uint256"
						}
					],
					"name": "createDerivative",
					"outputs": [],
					"stateMutability": "nonpayable",
					"type": "function"
				},
				{
					"inputs": [],
					"name": "deposit",
					"outputs": [],
					"stateMutability": "payable",
					"type": "function"
				},
				{
					"inputs": [
						{
							"internalType": "uint256",
							"name": "",
							"type": "uint256"
						}
					],
					"name": "derivatives",
					"outputs": [
						{
							"internalType": "address",
							"name": "seller",
							"type": "address"
						},
						{
							"internalType": "address",
							"name": "buyer",
							"type": "address"
						},
						{
							"internalType": "uint256",
							"name": "price",
							"type": "uint256"
						},
						{
							"internalType": "uint256",
							"name": "expiration",
							"type": "uint256"
						},
						{
							"internalType": "bool",
							"name": "isClosed",
							"type": "bool"
						}
					],
					"stateMutability": "view",
					"type": "function"
				},
				{
					"inputs": [
						{
							"internalType": "uint256",
							"name": "derivativeId",
							"type": "uint256"
						}
					],
					"name": "getDerivativeExpiration",
					"outputs": [
						{
							"internalType": "uint256",
							"name": "",
							"type": "uint256"
						}
					],
					"stateMutability": "view",
					"type": "function"
				},
				{
					"inputs": [
						{
							"internalType": "uint256",
							"name": "derivativeId",
							"type": "uint256"
						}
					],
					"name": "getDerivativeInfo",
					"outputs": [
						{
							"internalType": "address",
							"name": "",
							"type": "address"
						},
						{
							"internalType": "address",
							"name": "",
							"type": "address"
						},
						{
							"internalType": "uint256",
							"name": "",
							"type": "uint256"
						},
						{
							"internalType": "uint256",
							"name": "",
							"type": "uint256"
						},
						{
							"internalType": "bool",
							"name": "",
							"type": "bool"
						}
					],
					"stateMutability": "view",
					"type": "function"
				},
				{
					"inputs": [
						{
							"internalType": "uint256",
							"name": "derivativeId",
							"type": "uint256"
						}
					],
					"name": "getDerivativePrice",
					"outputs": [
						{
							"internalType": "uint256",
							"name": "",
							"type": "uint256"
						}
					],
					"stateMutability": "view",
					"type": "function"
				},
				{
					"inputs": [],
					"name": "getToralDerivatives",
					"outputs": [
						{
							"internalType": "uint256",
							"name": "",
							"type": "uint256"
						}
					],
					"stateMutability": "view",
					"type": "function"
				},
				{
					"inputs": [
						{
							"internalType": "uint256",
							"name": "derivativeId",
							"type": "uint256"
						}
					],
					"name": "isDerivativeClosed",
					"outputs": [
						{
							"internalType": "bool",
							"name": "",
							"type": "bool"
						}
					],
					"stateMutability": "view",
					"type": "function"
				},
				{
					"inputs": [
						{
							"internalType": "uint256",
							"name": "derivativeId",
							"type": "uint256"
						}
					],
					"name": "isDerivativeExpired",
					"outputs": [
						{
							"internalType": "bool",
							"name": "",
							"type": "bool"
						}
					],
					"stateMutability": "view",
					"type": "function"
				},
				{
					"inputs": [],
					"name": "nextDerivativeId",
					"outputs": [
						{
							"internalType": "uint256",
							"name": "",
							"type": "uint256"
						}
					],
					"stateMutability": "view",
					"type": "function"
				},
				{
					"inputs": [
						{
							"internalType": "uint256",
							"name": "derivativeId",
							"type": "uint256"
						}
					],
					"name": "settleDerivative",
					"outputs": [],
					"stateMutability": "nonpayable",
					"type": "function"
				},
				{
					"inputs": [
						{
							"internalType": "uint256",
							"name": "derivativeId",
							"type": "uint256"
						},
						{
							"internalType": "uint256",
							"name": "newPrice",
							"type": "uint256"
						}
					],
					"name": "updateDerivativePrice",
					"outputs": [],
					"stateMutability": "nonpayable",
					"type": "function"
				},
				{
					"inputs": [
						{
							"internalType": "address",
							"name": "account",
							"type": "address"
						}
					],
					"name": "withdrawBalance",
					"outputs": [],
					"stateMutability": "nonpayable",
					"type": "function"
				}
			],
			"devdoc": {
				"kind": "dev",
				"methods": {},
				"version": 1
			},
			"evm": {
				"assembly": "    /* \".deps/Derivative/DerivativeContract.sol\":55:6651  contract DerivativeContract {... */\n  mstore(0x40, 0x80)\n  callvalue\n  dup1\n  iszero\n  tag_1\n  jumpi\n  0x00\n  dup1\n  revert\ntag_1:\n  pop\n  dataSize(sub_0)\n  dup1\n  dataOffset(sub_0)\n  0x00\n  codecopy\n  0x00\n  return\nstop\n\nsub_0: assembly {\n        /* \".deps/Derivative/DerivativeContract.sol\":55:6651  contract DerivativeContract {... */\n      mstore(0x40, 0x80)\n      jumpi(tag_1, lt(calldatasize, 0x04))\n      shr(0xe0, calldataload(0x00))\n      dup1\n      0xba8db95b\n      gt\n      tag_17\n      jumpi\n      dup1\n      0xd9e80a4b\n      gt\n      tag_18\n      jumpi\n      dup1\n      0xd9e80a4b\n      eq\n      tag_13\n      jumpi\n      dup1\n      0xe1cf4727\n      eq\n      tag_14\n      jumpi\n      dup1\n      0xec5c0b2d\n      eq\n      tag_15\n      jumpi\n      dup1\n      0xfac3fa3d\n      eq\n      tag_16\n      jumpi\n      jump(tag_1)\n    tag_18:\n      dup1\n      0xba8db95b\n      eq\n      tag_9\n      jumpi\n      dup1\n      0xc0046e39\n      eq\n      tag_10\n      jumpi\n      dup1\n      0xcb4c1602\n      eq\n      tag_11\n      jumpi\n      dup1\n      0xd0e30db0\n      eq\n      tag_12\n      jumpi\n      jump(tag_1)\n    tag_17:\n      dup1\n      0x41cb3632\n      gt\n      tag_19\n      jumpi\n      dup1\n      0x41cb3632\n      eq\n      tag_5\n      jumpi\n      dup1\n      0x756af45f\n      eq\n      tag_6\n      jumpi\n      dup1\n      0x793c3b60\n      eq\n      tag_7\n      jumpi\n      dup1\n      0x83ef3b18\n      eq\n      tag_8\n      jumpi\n      jump(tag_1)\n    tag_19:\n      dup1\n      0x035af668\n      eq\n      tag_2\n      jumpi\n      dup1\n      0x27e235e3\n      eq\n      tag_3\n      jumpi\n      dup1\n      0x331119cf\n      eq\n      tag_4\n      jumpi\n    tag_1:\n      0x00\n      dup1\n      revert\n        /* \".deps/Derivative/DerivativeContract.sol\":2559:3148  function closeDerivative(uint256 derivativeId) external {... */\n    tag_2:\n      callvalue\n      dup1\n      iszero\n      tag_20\n      jumpi\n      0x00\n      dup1\n      revert\n    tag_20:\n      pop\n      tag_21\n      0x04\n      dup1\n      calldatasize\n      sub\n      dup2\n      add\n      swap1\n      tag_22\n      swap2\n      swap1\n      tag_23\n      jump\t// in\n    tag_22:\n      tag_24\n      jump\t// in\n    tag_21:\n      stop\n        /* \".deps/Derivative/DerivativeContract.sol\":591:634  mapping(address => uint256) public balances */\n    tag_3:\n      callvalue\n      dup1\n      iszero\n      tag_25\n      jumpi\n      0x00\n      dup1\n      revert\n    tag_25:\n      pop\n      tag_26\n      0x04\n      dup1\n      calldatasize\n      sub\n      dup2\n      add\n      swap1\n      tag_27\n      swap2\n      swap1\n      tag_28\n      jump\t// in\n    tag_27:\n      tag_29\n      jump\t// in\n    tag_26:\n      mload(0x40)\n      tag_30\n      swap2\n      swap1\n      tag_31\n      jump\t// in\n    tag_30:\n      mload(0x40)\n      dup1\n      swap2\n      sub\n      swap1\n      return\n        /* \".deps/Derivative/DerivativeContract.sol\":5128:5568  function updateDerivativePrice(uint256 derivativeId, uint256 newPrice)... */\n    tag_4:\n      callvalue\n      dup1\n      iszero\n      tag_32\n      jumpi\n      0x00\n      dup1\n      revert\n    tag_32:\n      pop\n      tag_33\n      0x04\n      dup1\n      calldatasize\n      sub\n      dup2\n      add\n      swap1\n      tag_34\n      swap2\n      swap1\n      tag_35\n      jump\t// in\n    tag_34:\n      tag_36\n      jump\t// in\n    tag_33:\n      stop\n        /* \".deps/Derivative/DerivativeContract.sol\":1622:2357  function createDerivative(... */\n    tag_5:\n      callvalue\n      dup1\n      iszero\n      tag_37\n      jumpi\n      0x00\n      dup1\n      revert\n    tag_37:\n      pop\n      tag_38\n      0x04\n      dup1\n      calldatasize\n      sub\n      dup2\n      add\n      swap1\n      tag_39\n      swap2\n      swap1\n      tag_40\n      jump\t// in\n    tag_39:\n      tag_41\n      jump\t// in\n    tag_38:\n      stop\n        /* \".deps/Derivative/DerivativeContract.sol\":6343:6649  function withdrawBalance(address account) external {... */\n    tag_6:\n      callvalue\n      dup1\n      iszero\n      tag_42\n      jumpi\n      0x00\n      dup1\n      revert\n    tag_42:\n      pop\n      tag_43\n      0x04\n      dup1\n      calldatasize\n      sub\n      dup2\n      add\n      swap1\n      tag_44\n      swap2\n      swap1\n      tag_28\n      jump\t// in\n    tag_44:\n      tag_45\n      jump\t// in\n    tag_43:\n      stop\n        /* \".deps/Derivative/DerivativeContract.sol\":5619:6302  function settleDerivative(uint256 derivativeId) external {... */\n    tag_7:\n      callvalue\n      dup1\n      iszero\n      tag_46\n      jumpi\n      0x00\n      dup1\n      revert\n    tag_46:\n      pop\n      tag_47\n      0x04\n      dup1\n      calldatasize\n      sub\n      dup2\n      add\n      swap1\n      tag_48\n      swap2\n      swap1\n      tag_23\n      jump\t// in\n    tag_48:\n      tag_49\n      jump\t// in\n    tag_47:\n      stop\n        /* \".deps/Derivative/DerivativeContract.sol\":3515:3766  function getDerivativeExpiration(uint256 derivativeId)... */\n    tag_8:\n      callvalue\n      dup1\n      iszero\n      tag_50\n      jumpi\n      0x00\n      dup1\n      revert\n    tag_50:\n      pop\n      tag_51\n      0x04\n      dup1\n      calldatasize\n      sub\n      dup2\n      add\n      swap1\n      tag_52\n      swap2\n      swap1\n      tag_23\n      jump\t// in\n    tag_52:\n      tag_53\n      jump\t// in\n    tag_51:\n      mload(0x40)\n      tag_54\n      swap2\n      swap1\n      tag_31\n      jump\t// in\n    tag_54:\n      mload(0x40)\n      dup1\n      swap2\n      sub\n      swap1\n      return\n        /* \".deps/Derivative/DerivativeContract.sol\":4146:4617  function getDerivativeInfo(uint256 derivativeId)... */\n    tag_9:\n      callvalue\n      dup1\n      iszero\n      tag_55\n      jumpi\n      0x00\n      dup1\n      revert\n    tag_55:\n      pop\n      tag_56\n      0x04\n      dup1\n      calldatasize\n      sub\n      dup2\n      add\n      swap1\n      tag_57\n      swap2\n      swap1\n      tag_23\n      jump\t// in\n    tag_57:\n      tag_58\n      jump\t// in\n    tag_56:\n      mload(0x40)\n      tag_59\n      swap6\n      swap5\n      swap4\n      swap3\n      swap2\n      swap1\n      tag_60\n      jump\t// in\n    tag_59:\n      mload(0x40)\n      dup1\n      swap2\n      sub\n      swap1\n      return\n        /* \".deps/Derivative/DerivativeContract.sol\":417:466  mapping(uint256 => Derivative) public derivatives */\n    tag_10:\n      callvalue\n      dup1\n      iszero\n      tag_61\n      jumpi\n      0x00\n      dup1\n      revert\n    tag_61:\n      pop\n      tag_62\n      0x04\n      dup1\n      calldatasize\n      sub\n      dup2\n      add\n      swap1\n      tag_63\n      swap2\n      swap1\n      tag_23\n      jump\t// in\n    tag_63:\n      tag_64\n      jump\t// in\n    tag_62:\n      mload(0x40)\n      tag_65\n      swap6\n      swap5\n      swap4\n      swap3\n      swap2\n      swap1\n      tag_60\n      jump\t// in\n    tag_65:\n      mload(0x40)\n      dup1\n      swap2\n      sub\n      swap1\n      return\n        /* \".deps/Derivative/DerivativeContract.sol\":3827:4089  function isDerivativeExpired(uint256 derivativeId)... */\n    tag_11:\n      callvalue\n      dup1\n      iszero\n      tag_66\n      jumpi\n      0x00\n      dup1\n      revert\n    tag_66:\n      pop\n      tag_67\n      0x04\n      dup1\n      calldatasize\n      sub\n      dup2\n      add\n      swap1\n      tag_68\n      swap2\n      swap1\n      tag_23\n      jump\t// in\n    tag_68:\n      tag_69\n      jump\t// in\n    tag_67:\n      mload(0x40)\n      tag_70\n      swap2\n      swap1\n      tag_71\n      jump\t// in\n    tag_70:\n      mload(0x40)\n      dup1\n      swap2\n      sub\n      swap1\n      return\n        /* \".deps/Derivative/DerivativeContract.sol\":1368:1576  function deposit() external payable {... */\n    tag_12:\n      tag_72\n      tag_73\n      jump\t// in\n    tag_72:\n      stop\n        /* \".deps/Derivative/DerivativeContract.sol\":4675:4778  function getToralDerivatives() external view returns (uint256) {... */\n    tag_13:\n      callvalue\n      dup1\n      iszero\n      tag_74\n      jumpi\n      0x00\n      dup1\n      revert\n    tag_74:\n      pop\n      tag_75\n      tag_76\n      jump\t// in\n    tag_75:\n      mload(0x40)\n      tag_77\n      swap2\n      swap1\n      tag_31\n      jump\t// in\n    tag_77:\n      mload(0x40)\n      dup1\n      swap2\n      sub\n      swap1\n      return\n        /* \".deps/Derivative/DerivativeContract.sol\":3217:3458  function isDerivativeClosed(uint256 derivativeId)... */\n    tag_14:\n      callvalue\n      dup1\n      iszero\n      tag_78\n      jumpi\n      0x00\n      dup1\n      revert\n    tag_78:\n      pop\n      tag_79\n      0x04\n      dup1\n      calldatasize\n      sub\n      dup2\n      add\n      swap1\n      tag_80\n      swap2\n      swap1\n      tag_23\n      jump\t// in\n    tag_80:\n      tag_81\n      jump\t// in\n    tag_79:\n      mload(0x40)\n      tag_82\n      swap2\n      swap1\n      tag_71\n      jump\t// in\n    tag_82:\n      mload(0x40)\n      dup1\n      swap2\n      sub\n      swap1\n      return\n        /* \".deps/Derivative/DerivativeContract.sol\":4838:5079  function getDerivativePrice(uint256 derivativeId)... */\n    tag_15:\n      callvalue\n      dup1\n      iszero\n      tag_83\n      jumpi\n      0x00\n      dup1\n      revert\n    tag_83:\n      pop\n      tag_84\n      0x04\n      dup1\n      calldatasize\n      sub\n      dup2\n      add\n      swap1\n      tag_85\n      swap2\n      swap1\n      tag_23\n      jump\t// in\n    tag_85:\n      tag_86\n      jump\t// in\n    tag_84:\n      mload(0x40)\n      tag_87\n      swap2\n      swap1\n      tag_31\n      jump\t// in\n    tag_87:\n      mload(0x40)\n      dup1\n      swap2\n      sub\n      swap1\n      return\n        /* \".deps/Derivative/DerivativeContract.sol\":514:545  uint256 public nextDerivativeId */\n    tag_16:\n      callvalue\n      dup1\n      iszero\n      tag_88\n      jumpi\n      0x00\n      dup1\n      revert\n    tag_88:\n      pop\n      tag_89\n      tag_90\n      jump\t// in\n    tag_89:\n      mload(0x40)\n      tag_91\n      swap2\n      swap1\n      tag_31\n      jump\t// in\n    tag_91:\n      mload(0x40)\n      dup1\n      swap2\n      sub\n      swap1\n      return\n        /* \".deps/Derivative/DerivativeContract.sol\":2559:3148  function closeDerivative(uint256 derivativeId) external {... */\n    tag_24:\n        /* \".deps/Derivative/DerivativeContract.sol\":2648:2664  nextDerivativeId */\n      sload(0x01)\n        /* \".deps/Derivative/DerivativeContract.sol\":2633:2645  derivativeId */\n      dup2\n        /* \".deps/Derivative/DerivativeContract.sol\":2633:2664  derivativeId < nextDerivativeId */\n      lt\n        /* \".deps/Derivative/DerivativeContract.sol\":2625:2690  require(derivativeId < nextDerivativeId, \"Invalid derivative ID\") */\n      tag_93\n      jumpi\n      mload(0x40)\n      0x08c379a000000000000000000000000000000000000000000000000000000000\n      dup2\n      mstore\n      0x04\n      add\n      tag_94\n      swap1\n      tag_95\n      jump\t// in\n    tag_94:\n      mload(0x40)\n      dup1\n      swap2\n      sub\n      swap1\n      revert\n    tag_93:\n        /* \".deps/Derivative/DerivativeContract.sol\":2757:2767  msg.sender */\n      caller\n        /* \".deps/Derivative/DerivativeContract.sol\":2721:2767  derivatives[derivativeId].seller == msg.sender */\n      0xffffffffffffffffffffffffffffffffffffffff\n      and\n        /* \".deps/Derivative/DerivativeContract.sol\":2721:2732  derivatives */\n      0x00\n        /* \".deps/Derivative/DerivativeContract.sol\":2721:2746  derivatives[derivativeId] */\n      dup1\n        /* \".deps/Derivative/DerivativeContract.sol\":2733:2745  derivativeId */\n      dup4\n        /* \".deps/Derivative/DerivativeContract.sol\":2721:2746  derivatives[derivativeId] */\n      dup2\n      mstore\n      0x20\n      add\n      swap1\n      dup2\n      mstore\n      0x20\n      add\n      0x00\n      keccak256\n        /* \".deps/Derivative/DerivativeContract.sol\":2721:2753  derivatives[derivativeId].seller */\n      0x00\n      add\n      0x00\n      swap1\n      sload\n      swap1\n      0x0100\n      exp\n      swap1\n      div\n      0xffffffffffffffffffffffffffffffffffffffff\n      and\n        /* \".deps/Derivative/DerivativeContract.sol\":2721:2767  derivatives[derivativeId].seller == msg.sender */\n      0xffffffffffffffffffffffffffffffffffffffff\n      and\n      eq\n        /* \".deps/Derivative/DerivativeContract.sol\":2721:2832  derivatives[derivativeId].seller == msg.sender ||... */\n      dup1\n      tag_96\n      jumpi\n      pop\n        /* \".deps/Derivative/DerivativeContract.sol\":2822:2832  msg.sender */\n      caller\n        /* \".deps/Derivative/DerivativeContract.sol\":2787:2832  derivatives[derivativeId].buyer == msg.sender */\n      0xffffffffffffffffffffffffffffffffffffffff\n      and\n        /* \".deps/Derivative/DerivativeContract.sol\":2787:2798  derivatives */\n      0x00\n        /* \".deps/Derivative/DerivativeContract.sol\":2787:2812  derivatives[derivativeId] */\n      dup1\n        /* \".deps/Derivative/DerivativeContract.sol\":2799:2811  derivativeId */\n      dup4\n        /* \".deps/Derivative/DerivativeContract.sol\":2787:2812  derivatives[derivativeId] */\n      dup2\n      mstore\n      0x20\n      add\n      swap1\n      dup2\n      mstore\n      0x20\n      add\n      0x00\n      keccak256\n        /* \".deps/Derivative/DerivativeContract.sol\":2787:2818  derivatives[derivativeId].buyer */\n      0x01\n      add\n      0x00\n      swap1\n      sload\n      swap1\n      0x0100\n      exp\n      swap1\n      div\n      0xffffffffffffffffffffffffffffffffffffffff\n      and\n        /* \".deps/Derivative/DerivativeContract.sol\":2787:2832  derivatives[derivativeId].buyer == msg.sender */\n      0xffffffffffffffffffffffffffffffffffffffff\n      and\n      eq\n        /* \".deps/Derivative/DerivativeContract.sol\":2721:2832  derivatives[derivativeId].seller == msg.sender ||... */\n    tag_96:\n        /* \".deps/Derivative/DerivativeContract.sol\":2700:2842  require(... */\n      tag_97\n      jumpi\n      0x00\n      dup1\n      revert\n    tag_97:\n        /* \".deps/Derivative/DerivativeContract.sol\":2858:2869  derivatives */\n      0x00\n        /* \".deps/Derivative/DerivativeContract.sol\":2858:2883  derivatives[derivativeId] */\n      dup1\n        /* \".deps/Derivative/DerivativeContract.sol\":2870:2882  derivativeId */\n      dup3\n        /* \".deps/Derivative/DerivativeContract.sol\":2858:2883  derivatives[derivativeId] */\n      dup2\n      mstore\n      0x20\n      add\n      swap1\n      dup2\n      mstore\n      0x20\n      add\n      0x00\n      keccak256\n        /* \".deps/Derivative/DerivativeContract.sol\":2858:2892  derivatives[derivativeId].isClosed */\n      0x04\n      add\n      0x00\n      swap1\n      sload\n      swap1\n      0x0100\n      exp\n      swap1\n      div\n      0xff\n      and\n        /* \".deps/Derivative/DerivativeContract.sol\":2853:3045  if (!derivatives[derivativeId].isClosed) {... */\n      tag_98\n      jumpi\n        /* \".deps/Derivative/DerivativeContract.sol\":2932:2943  derivatives */\n      0x00\n        /* \".deps/Derivative/DerivativeContract.sol\":2932:2957  derivatives[derivativeId] */\n      dup1\n        /* \".deps/Derivative/DerivativeContract.sol\":2944:2956  derivativeId */\n      dup3\n        /* \".deps/Derivative/DerivativeContract.sol\":2932:2957  derivatives[derivativeId] */\n      dup2\n      mstore\n      0x20\n      add\n      swap1\n      dup2\n      mstore\n      0x20\n      add\n      0x00\n      keccak256\n        /* \".deps/Derivative/DerivativeContract.sol\":2932:2963  derivatives[derivativeId].price */\n      0x02\n      add\n      sload\n        /* \".deps/Derivative/DerivativeContract.sol\":2908:2916  balances */\n      0x02\n        /* \".deps/Derivative/DerivativeContract.sol\":2908:2928  balances[msg.sender] */\n      0x00\n        /* \".deps/Derivative/DerivativeContract.sol\":2917:2927  msg.sender */\n      caller\n        /* \".deps/Derivative/DerivativeContract.sol\":2908:2928  balances[msg.sender] */\n      0xffffffffffffffffffffffffffffffffffffffff\n      and\n      0xffffffffffffffffffffffffffffffffffffffff\n      and\n      dup2\n      mstore\n      0x20\n      add\n      swap1\n      dup2\n      mstore\n      0x20\n      add\n      0x00\n      keccak256\n      0x00\n        /* \".deps/Derivative/DerivativeContract.sol\":2908:2963  balances[msg.sender] += derivatives[derivativeId].price */\n      dup3\n      dup3\n      sload\n      tag_99\n      swap2\n      swap1\n      tag_100\n      jump\t// in\n    tag_99:\n      swap3\n      pop\n      pop\n      dup2\n      swap1\n      sstore\n      pop\n        /* \".deps/Derivative/DerivativeContract.sol\":2990:3000  msg.sender */\n      caller\n        /* \".deps/Derivative/DerivativeContract.sol\":2982:3034  Deposit(msg.sender, derivatives[derivativeId].price) */\n      0xffffffffffffffffffffffffffffffffffffffff\n      and\n      0xe1fffcc4923d04b559f4d29a8bfc6cda04eb5b0d3c460751c2402c5c5cc9109c\n        /* \".deps/Derivative/DerivativeContract.sol\":3002:3013  derivatives */\n      0x00\n        /* \".deps/Derivative/DerivativeContract.sol\":3002:3027  derivatives[derivativeId] */\n      dup1\n        /* \".deps/Derivative/DerivativeContract.sol\":3014:3026  derivativeId */\n      dup5\n        /* \".deps/Derivative/DerivativeContract.sol\":3002:3027  derivatives[derivativeId] */\n      dup2\n      mstore\n      0x20\n      add\n      swap1\n      dup2\n      mstore\n      0x20\n      add\n      0x00\n      keccak256\n        /* \".deps/Derivative/DerivativeContract.sol\":3002:3033  derivatives[derivativeId].price */\n      0x02\n      add\n      sload\n        /* \".deps/Derivative/DerivativeContract.sol\":2982:3034  Deposit(msg.sender, derivatives[derivativeId].price) */\n      mload(0x40)\n      tag_101\n      swap2\n      swap1\n      tag_31\n      jump\t// in\n    tag_101:\n      mload(0x40)\n      dup1\n      swap2\n      sub\n      swap1\n      log2\n        /* \".deps/Derivative/DerivativeContract.sol\":2853:3045  if (!derivatives[derivativeId].isClosed) {... */\n    tag_98:\n        /* \".deps/Derivative/DerivativeContract.sol\":3092:3096  true */\n      0x01\n        /* \".deps/Derivative/DerivativeContract.sol\":3055:3066  derivatives */\n      0x00\n        /* \".deps/Derivative/DerivativeContract.sol\":3055:3080  derivatives[derivativeId] */\n      dup1\n        /* \".deps/Derivative/DerivativeContract.sol\":3067:3079  derivativeId */\n      dup4\n        /* \".deps/Derivative/DerivativeContract.sol\":3055:3080  derivatives[derivativeId] */\n      dup2\n      mstore\n      0x20\n      add\n      swap1\n      dup2\n      mstore\n      0x20\n      add\n      0x00\n      keccak256\n        /* \".deps/Derivative/DerivativeContract.sol\":3055:3089  derivatives[derivativeId].isClosed */\n      0x04\n      add\n      0x00\n        /* \".deps/Derivative/DerivativeContract.sol\":3055:3096  derivatives[derivativeId].isClosed = true */\n      0x0100\n      exp\n      dup2\n      sload\n      dup2\n      0xff\n      mul\n      not\n      and\n      swap1\n      dup4\n      iszero\n      iszero\n      mul\n      or\n      swap1\n      sstore\n      pop\n        /* \".deps/Derivative/DerivativeContract.sol\":3128:3140  derivativeId */\n      dup1\n        /* \".deps/Derivative/DerivativeContract.sol\":3111:3141  DerivativeClosed(derivativeId) */\n      0x5bd8d77591abd5ce6d29b95741c7c3fd3358f85e50b1dad6b39bb78aec074af8\n      mload(0x40)\n      mload(0x40)\n      dup1\n      swap2\n      sub\n      swap1\n      log2\n        /* \".deps/Derivative/DerivativeContract.sol\":2559:3148  function closeDerivative(uint256 derivativeId) external {... */\n      pop\n      jump\t// out\n        /* \".deps/Derivative/DerivativeContract.sol\":591:634  mapping(address => uint256) public balances */\n    tag_29:\n      mstore(0x20, 0x02)\n      dup1\n      0x00\n      mstore\n      keccak256(0x00, 0x40)\n      0x00\n      swap2\n      pop\n      swap1\n      pop\n      sload\n      dup2\n      jump\t// out\n        /* \".deps/Derivative/DerivativeContract.sol\":5128:5568  function updateDerivativePrice(uint256 derivativeId, uint256 newPrice)... */\n    tag_36:\n        /* \".deps/Derivative/DerivativeContract.sol\":5253:5269  nextDerivativeId */\n      sload(0x01)\n        /* \".deps/Derivative/DerivativeContract.sol\":5238:5250  derivativeId */\n      dup3\n        /* \".deps/Derivative/DerivativeContract.sol\":5238:5269  derivativeId < nextDerivativeId */\n      lt\n        /* \".deps/Derivative/DerivativeContract.sol\":5230:5295  require(derivativeId < nextDerivativeId, \"Invalid derivative ID\") */\n      tag_103\n      jumpi\n      mload(0x40)\n      0x08c379a000000000000000000000000000000000000000000000000000000000\n      dup2\n      mstore\n      0x04\n      add\n      tag_104\n      swap1\n      tag_95\n      jump\t// in\n    tag_104:\n      mload(0x40)\n      dup1\n      swap2\n      sub\n      swap1\n      revert\n    tag_103:\n        /* \".deps/Derivative/DerivativeContract.sol\":5349:5359  msg.sender */\n      caller\n        /* \".deps/Derivative/DerivativeContract.sol\":5313:5359  derivatives[derivativeId].seller == msg.sender */\n      0xffffffffffffffffffffffffffffffffffffffff\n      and\n        /* \".deps/Derivative/DerivativeContract.sol\":5313:5324  derivatives */\n      0x00\n        /* \".deps/Derivative/DerivativeContract.sol\":5313:5338  derivatives[derivativeId] */\n      dup1\n        /* \".deps/Derivative/DerivativeContract.sol\":5325:5337  derivativeId */\n      dup5\n        /* \".deps/Derivative/DerivativeContract.sol\":5313:5338  derivatives[derivativeId] */\n      dup2\n      mstore\n      0x20\n      add\n      swap1\n      dup2\n      mstore\n      0x20\n      add\n      0x00\n      keccak256\n        /* \".deps/Derivative/DerivativeContract.sol\":5313:5345  derivatives[derivativeId].seller */\n      0x00\n      add\n      0x00\n      swap1\n      sload\n      swap1\n      0x0100\n      exp\n      swap1\n      div\n      0xffffffffffffffffffffffffffffffffffffffff\n      and\n        /* \".deps/Derivative/DerivativeContract.sol\":5313:5359  derivatives[derivativeId].seller == msg.sender */\n      0xffffffffffffffffffffffffffffffffffffffff\n      and\n      eq\n        /* \".deps/Derivative/DerivativeContract.sol\":5305:5376  require(derivatives[derivativeId].seller == msg.sender, \"Unauthorized\") */\n      tag_105\n      jumpi\n      mload(0x40)\n      0x08c379a000000000000000000000000000000000000000000000000000000000\n      dup2\n      mstore\n      0x04\n      add\n      tag_106\n      swap1\n      tag_107\n      jump\t// in\n    tag_106:\n      mload(0x40)\n      dup1\n      swap2\n      sub\n      swap1\n      revert\n    tag_105:\n        /* \".deps/Derivative/DerivativeContract.sol\":5422:5433  derivatives */\n      0x00\n        /* \".deps/Derivative/DerivativeContract.sol\":5422:5447  derivatives[derivativeId] */\n      dup1\n        /* \".deps/Derivative/DerivativeContract.sol\":5434:5446  derivativeId */\n      dup4\n        /* \".deps/Derivative/DerivativeContract.sol\":5422:5447  derivatives[derivativeId] */\n      dup2\n      mstore\n      0x20\n      add\n      swap1\n      dup2\n      mstore\n      0x20\n      add\n      0x00\n      keccak256\n        /* \".deps/Derivative/DerivativeContract.sol\":5422:5453  derivatives[derivativeId].price */\n      0x02\n      add\n      sload\n        /* \".deps/Derivative/DerivativeContract.sol\":5411:5419  newPrice */\n      dup2\n        /* \".deps/Derivative/DerivativeContract.sol\":5411:5453  newPrice - derivatives[derivativeId].price */\n      tag_108\n      swap2\n      swap1\n      tag_109\n      jump\t// in\n    tag_108:\n        /* \".deps/Derivative/DerivativeContract.sol\":5387:5395  balances */\n      0x02\n        /* \".deps/Derivative/DerivativeContract.sol\":5387:5407  balances[msg.sender] */\n      0x00\n        /* \".deps/Derivative/DerivativeContract.sol\":5396:5406  msg.sender */\n      caller\n        /* \".deps/Derivative/DerivativeContract.sol\":5387:5407  balances[msg.sender] */\n      0xffffffffffffffffffffffffffffffffffffffff\n      and\n      0xffffffffffffffffffffffffffffffffffffffff\n      and\n      dup2\n      mstore\n      0x20\n      add\n      swap1\n      dup2\n      mstore\n      0x20\n      add\n      0x00\n      keccak256\n      0x00\n        /* \".deps/Derivative/DerivativeContract.sol\":5387:5453  balances[msg.sender] += newPrice - derivatives[derivativeId].price */\n      dup3\n      dup3\n      sload\n      tag_110\n      swap2\n      swap1\n      tag_100\n      jump\t// in\n    tag_110:\n      swap3\n      pop\n      pop\n      dup2\n      swap1\n      sstore\n      pop\n        /* \".deps/Derivative/DerivativeContract.sol\":5497:5505  newPrice */\n      dup1\n        /* \".deps/Derivative/DerivativeContract.sol\":5463:5474  derivatives */\n      0x00\n        /* \".deps/Derivative/DerivativeContract.sol\":5463:5488  derivatives[derivativeId] */\n      dup1\n        /* \".deps/Derivative/DerivativeContract.sol\":5475:5487  derivativeId */\n      dup5\n        /* \".deps/Derivative/DerivativeContract.sol\":5463:5488  derivatives[derivativeId] */\n      dup2\n      mstore\n      0x20\n      add\n      swap1\n      dup2\n      mstore\n      0x20\n      add\n      0x00\n      keccak256\n        /* \".deps/Derivative/DerivativeContract.sol\":5463:5494  derivatives[derivativeId].price */\n      0x02\n      add\n        /* \".deps/Derivative/DerivativeContract.sol\":5463:5505  derivatives[derivativeId].price = newPrice */\n      dup2\n      swap1\n      sstore\n      pop\n        /* \".deps/Derivative/DerivativeContract.sol\":5538:5550  derivativeId */\n      dup2\n        /* \".deps/Derivative/DerivativeContract.sol\":5520:5561  DerivativeUpdated(derivativeId, newPrice) */\n      0xbd3d83d3260757e7000523cd5587280932470792b2cee833142d3366358cef6c\n        /* \".deps/Derivative/DerivativeContract.sol\":5552:5560  newPrice */\n      dup3\n        /* \".deps/Derivative/DerivativeContract.sol\":5520:5561  DerivativeUpdated(derivativeId, newPrice) */\n      mload(0x40)\n      tag_111\n      swap2\n      swap1\n      tag_31\n      jump\t// in\n    tag_111:\n      mload(0x40)\n      dup1\n      swap2\n      sub\n      swap1\n      log2\n        /* \".deps/Derivative/DerivativeContract.sol\":5128:5568  function updateDerivativePrice(uint256 derivativeId, uint256 newPrice)... */\n      pop\n      pop\n      jump\t// out\n        /* \".deps/Derivative/DerivativeContract.sol\":1622:2357  function createDerivative(... */\n    tag_41:\n        /* \".deps/Derivative/DerivativeContract.sol\":1776:1777  0 */\n      0x00\n        /* \".deps/Derivative/DerivativeContract.sol\":1758:1778  _buyer != address(0) */\n      0xffffffffffffffffffffffffffffffffffffffff\n      and\n        /* \".deps/Derivative/DerivativeContract.sol\":1758:1764  _buyer */\n      dup4\n        /* \".deps/Derivative/DerivativeContract.sol\":1758:1778  _buyer != address(0) */\n      0xffffffffffffffffffffffffffffffffffffffff\n      and\n      sub\n        /* \".deps/Derivative/DerivativeContract.sol\":1750:1804  require(_buyer != address(0), \"Invalid buyer address\") */\n      tag_113\n      jumpi\n      mload(0x40)\n      0x08c379a000000000000000000000000000000000000000000000000000000000\n      dup2\n      mstore\n      0x04\n      add\n      tag_114\n      swap1\n      tag_115\n      jump\t// in\n    tag_114:\n      mload(0x40)\n      dup1\n      swap2\n      sub\n      swap1\n      revert\n    tag_113:\n        /* \".deps/Derivative/DerivativeContract.sol\":1831:1832  0 */\n      0x00\n        /* \".deps/Derivative/DerivativeContract.sol\":1822:1828  _price */\n      dup3\n        /* \".deps/Derivative/DerivativeContract.sol\":1822:1832  _price > 0 */\n      gt\n        /* \".deps/Derivative/DerivativeContract.sol\":1814:1865  require(_price > 0, \"Price must be greater than 0\") */\n      tag_116\n      jumpi\n      mload(0x40)\n      0x08c379a000000000000000000000000000000000000000000000000000000000\n      dup2\n      mstore\n      0x04\n      add\n      tag_117\n      swap1\n      tag_118\n      jump\t// in\n    tag_117:\n      mload(0x40)\n      dup1\n      swap2\n      sub\n      swap1\n      revert\n    tag_116:\n        /* \".deps/Derivative/DerivativeContract.sol\":1907:1913  _price */\n      dup2\n        /* \".deps/Derivative/DerivativeContract.sol\":1883:1891  balances */\n      0x02\n        /* \".deps/Derivative/DerivativeContract.sol\":1883:1903  balances[msg.sender] */\n      0x00\n        /* \".deps/Derivative/DerivativeContract.sol\":1892:1902  msg.sender */\n      caller\n        /* \".deps/Derivative/DerivativeContract.sol\":1883:1903  balances[msg.sender] */\n      0xffffffffffffffffffffffffffffffffffffffff\n      and\n      0xffffffffffffffffffffffffffffffffffffffff\n      and\n      dup2\n      mstore\n      0x20\n      add\n      swap1\n      dup2\n      mstore\n      0x20\n      add\n      0x00\n      keccak256\n      sload\n        /* \".deps/Derivative/DerivativeContract.sol\":1883:1913  balances[msg.sender] >= _price */\n      lt\n      iszero\n        /* \".deps/Derivative/DerivativeContract.sol\":1875:1938  require(balances[msg.sender] >= _price, \"Insufficient balance\") */\n      tag_119\n      jumpi\n      mload(0x40)\n      0x08c379a000000000000000000000000000000000000000000000000000000000\n      dup2\n      mstore\n      0x04\n      add\n      tag_120\n      swap1\n      tag_121\n      jump\t// in\n    tag_120:\n      mload(0x40)\n      dup1\n      swap2\n      sub\n      swap1\n      revert\n    tag_119:\n        /* \".deps/Derivative/DerivativeContract.sol\":1990:2164  Derivative({... */\n      mload(0x40)\n      dup1\n      0xa0\n      add\n      0x40\n      mstore\n      dup1\n        /* \".deps/Derivative/DerivativeContract.sol\":2023:2033  msg.sender */\n      caller\n        /* \".deps/Derivative/DerivativeContract.sol\":1990:2164  Derivative({... */\n      0xffffffffffffffffffffffffffffffffffffffff\n      and\n      dup2\n      mstore\n      0x20\n      add\n        /* \".deps/Derivative/DerivativeContract.sol\":2054:2060  _buyer */\n      dup5\n        /* \".deps/Derivative/DerivativeContract.sol\":1990:2164  Derivative({... */\n      0xffffffffffffffffffffffffffffffffffffffff\n      and\n      dup2\n      mstore\n      0x20\n      add\n        /* \".deps/Derivative/DerivativeContract.sol\":2081:2087  _price */\n      dup4\n        /* \".deps/Derivative/DerivativeContract.sol\":1990:2164  Derivative({... */\n      dup2\n      mstore\n      0x20\n      add\n        /* \".deps/Derivative/DerivativeContract.sol\":2113:2124  _expiration */\n      dup3\n        /* \".deps/Derivative/DerivativeContract.sol\":1990:2164  Derivative({... */\n      dup2\n      mstore\n      0x20\n      add\n        /* \".deps/Derivative/DerivativeContract.sol\":2148:2153  false */\n      0x00\n        /* \".deps/Derivative/DerivativeContract.sol\":1990:2164  Derivative({... */\n      iszero\n      iszero\n      dup2\n      mstore\n      pop\n        /* \".deps/Derivative/DerivativeContract.sol\":1958:1969  derivatives */\n      0x00\n        /* \".deps/Derivative/DerivativeContract.sol\":1958:1987  derivatives[nextDerivativeId] */\n      dup1\n        /* \".deps/Derivative/DerivativeContract.sol\":1970:1986  nextDerivativeId */\n      sload(0x01)\n        /* \".deps/Derivative/DerivativeContract.sol\":1958:1987  derivatives[nextDerivativeId] */\n      dup2\n      mstore\n      0x20\n      add\n      swap1\n      dup2\n      mstore\n      0x20\n      add\n      0x00\n      keccak256\n        /* \".deps/Derivative/DerivativeContract.sol\":1958:2164  derivatives[nextDerivativeId] = Derivative({... */\n      0x00\n      dup3\n      add\n      mload\n      dup2\n      0x00\n      add\n      exp(0x0100, 0x00)\n      dup2\n      sload\n      dup2\n      0xffffffffffffffffffffffffffffffffffffffff\n      mul\n      not\n      and\n      swap1\n      dup4\n      0xffffffffffffffffffffffffffffffffffffffff\n      and\n      mul\n      or\n      swap1\n      sstore\n      pop\n      0x20\n      dup3\n      add\n      mload\n      dup2\n      0x01\n      add\n      exp(0x0100, 0x00)\n      dup2\n      sload\n      dup2\n      0xffffffffffffffffffffffffffffffffffffffff\n      mul\n      not\n      and\n      swap1\n      dup4\n      0xffffffffffffffffffffffffffffffffffffffff\n      and\n      mul\n      or\n      swap1\n      sstore\n      pop\n      0x40\n      dup3\n      add\n      mload\n      dup2\n      0x02\n      add\n      sstore\n      0x60\n      dup3\n      add\n      mload\n      dup2\n      0x03\n      add\n      sstore\n      0x80\n      dup3\n      add\n      mload\n      dup2\n      0x04\n      add\n      exp(0x0100, 0x00)\n      dup2\n      sload\n      dup2\n      0xff\n      mul\n      not\n      and\n      swap1\n      dup4\n      iszero\n      iszero\n      mul\n      or\n      swap1\n      sstore\n      pop\n      swap1\n      pop\n      pop\n        /* \".deps/Derivative/DerivativeContract.sol\":2261:2267  _buyer */\n      dup3\n        /* \".deps/Derivative/DerivativeContract.sol\":2180:2322  NewDerivative(... */\n      0xffffffffffffffffffffffffffffffffffffffff\n      and\n        /* \".deps/Derivative/DerivativeContract.sol\":2237:2247  msg.sender */\n      caller\n        /* \".deps/Derivative/DerivativeContract.sol\":2180:2322  NewDerivative(... */\n      0xffffffffffffffffffffffffffffffffffffffff\n      and\n        /* \".deps/Derivative/DerivativeContract.sol\":2207:2223  nextDerivativeId */\n      sload(0x01)\n        /* \".deps/Derivative/DerivativeContract.sol\":2180:2322  NewDerivative(... */\n      0x25c0892f4e432a77fb0dba672d8e07c619b9b341e5785eb8300215a71d1fb205\n        /* \".deps/Derivative/DerivativeContract.sol\":2281:2287  _price */\n      dup6\n        /* \".deps/Derivative/DerivativeContract.sol\":2301:2312  _expiration */\n      dup6\n        /* \".deps/Derivative/DerivativeContract.sol\":2180:2322  NewDerivative(... */\n      mload(0x40)\n      tag_122\n      swap3\n      swap2\n      swap1\n      tag_123\n      jump\t// in\n    tag_122:\n      mload(0x40)\n      dup1\n      swap2\n      sub\n      swap1\n      log4\n        /* \".deps/Derivative/DerivativeContract.sol\":2332:2348  nextDerivativeId */\n      0x01\n      0x00\n        /* \".deps/Derivative/DerivativeContract.sol\":2332:2350  nextDerivativeId++ */\n      dup2\n      sload\n      dup1\n      swap3\n      swap2\n      swap1\n      tag_124\n      swap1\n      tag_125\n      jump\t// in\n    tag_124:\n      swap2\n      swap1\n      pop\n      sstore\n      pop\n        /* \".deps/Derivative/DerivativeContract.sol\":1622:2357  function createDerivative(... */\n      pop\n      pop\n      pop\n      jump\t// out\n        /* \".deps/Derivative/DerivativeContract.sol\":6343:6649  function withdrawBalance(address account) external {... */\n    tag_45:\n        /* \".deps/Derivative/DerivativeContract.sol\":6404:6426  uint256 accountBalance */\n      0x00\n        /* \".deps/Derivative/DerivativeContract.sol\":6429:6437  balances */\n      0x02\n        /* \".deps/Derivative/DerivativeContract.sol\":6429:6446  balances[account] */\n      0x00\n        /* \".deps/Derivative/DerivativeContract.sol\":6438:6445  account */\n      dup4\n        /* \".deps/Derivative/DerivativeContract.sol\":6429:6446  balances[account] */\n      0xffffffffffffffffffffffffffffffffffffffff\n      and\n      0xffffffffffffffffffffffffffffffffffffffff\n      and\n      dup2\n      mstore\n      0x20\n      add\n      swap1\n      dup2\n      mstore\n      0x20\n      add\n      0x00\n      keccak256\n      sload\n        /* \".deps/Derivative/DerivativeContract.sol\":6404:6446  uint256 accountBalance = balances[account] */\n      swap1\n      pop\n        /* \".deps/Derivative/DerivativeContract.sol\":6481:6482  0 */\n      0x00\n        /* \".deps/Derivative/DerivativeContract.sol\":6464:6478  accountBalance */\n      dup2\n        /* \".deps/Derivative/DerivativeContract.sol\":6464:6482  accountBalance > 0 */\n      gt\n        /* \".deps/Derivative/DerivativeContract.sol\":6456:6510  require(accountBalance > 0, \"Account balance is zero\") */\n      tag_127\n      jumpi\n      mload(0x40)\n      0x08c379a000000000000000000000000000000000000000000000000000000000\n      dup2\n      mstore\n      0x04\n      add\n      tag_128\n      swap1\n      tag_129\n      jump\t// in\n    tag_128:\n      mload(0x40)\n      dup1\n      swap2\n      sub\n      swap1\n      revert\n    tag_127:\n        /* \".deps/Derivative/DerivativeContract.sol\":6541:6542  0 */\n      0x00\n        /* \".deps/Derivative/DerivativeContract.sol\":6521:6529  balances */\n      0x02\n        /* \".deps/Derivative/DerivativeContract.sol\":6521:6538  balances[account] */\n      0x00\n        /* \".deps/Derivative/DerivativeContract.sol\":6530:6537  account */\n      dup5\n        /* \".deps/Derivative/DerivativeContract.sol\":6521:6538  balances[account] */\n      0xffffffffffffffffffffffffffffffffffffffff\n      and\n      0xffffffffffffffffffffffffffffffffffffffff\n      and\n      dup2\n      mstore\n      0x20\n      add\n      swap1\n      dup2\n      mstore\n      0x20\n      add\n      0x00\n      keccak256\n        /* \".deps/Derivative/DerivativeContract.sol\":6521:6542  balances[account] = 0 */\n      dup2\n      swap1\n      sstore\n      pop\n        /* \".deps/Derivative/DerivativeContract.sol\":6609:6616  account */\n      dup2\n        /* \".deps/Derivative/DerivativeContract.sol\":6601:6626  payable(account).transfer */\n      0xffffffffffffffffffffffffffffffffffffffff\n      and\n        /* \".deps/Derivative/DerivativeContract.sol\":6601:6642  payable(account).transfer(accountBalance) */\n      0x08fc\n        /* \".deps/Derivative/DerivativeContract.sol\":6627:6641  accountBalance */\n      dup3\n        /* \".deps/Derivative/DerivativeContract.sol\":6601:6642  payable(account).transfer(accountBalance) */\n      swap1\n      dup2\n      iszero\n      mul\n      swap1\n      mload(0x40)\n      0x00\n      mload(0x40)\n      dup1\n      dup4\n      sub\n      dup2\n      dup6\n      dup9\n      dup9\n      call\n      swap4\n      pop\n      pop\n      pop\n      pop\n      iszero\n      dup1\n      iszero\n      tag_131\n      jumpi\n      returndatasize\n      0x00\n      dup1\n      returndatacopy\n      revert(0x00, returndatasize)\n    tag_131:\n      pop\n        /* \".deps/Derivative/DerivativeContract.sol\":6394:6649  {... */\n      pop\n        /* \".deps/Derivative/DerivativeContract.sol\":6343:6649  function withdrawBalance(address account) external {... */\n      pop\n      jump\t// out\n        /* \".deps/Derivative/DerivativeContract.sol\":5619:6302  function settleDerivative(uint256 derivativeId) external {... */\n    tag_49:\n        /* \".deps/Derivative/DerivativeContract.sol\":5709:5725  nextDerivativeId */\n      sload(0x01)\n        /* \".deps/Derivative/DerivativeContract.sol\":5694:5706  derivativeId */\n      dup2\n        /* \".deps/Derivative/DerivativeContract.sol\":5694:5725  derivativeId < nextDerivativeId */\n      lt\n        /* \".deps/Derivative/DerivativeContract.sol\":5686:5751  require(derivativeId < nextDerivativeId, \"Invalid derivative ID\") */\n      tag_133\n      jumpi\n      mload(0x40)\n      0x08c379a000000000000000000000000000000000000000000000000000000000\n      dup2\n      mstore\n      0x04\n      add\n      tag_134\n      swap1\n      tag_95\n      jump\t// in\n    tag_134:\n      mload(0x40)\n      dup1\n      swap2\n      sub\n      swap1\n      revert\n    tag_133:\n        /* \".deps/Derivative/DerivativeContract.sol\":5782:5786  this */\n      address\n        /* \".deps/Derivative/DerivativeContract.sol\":5782:5806  this.isDerivativeExpired */\n      0xffffffffffffffffffffffffffffffffffffffff\n      and\n      0xcb4c1602\n        /* \".deps/Derivative/DerivativeContract.sol\":5807:5819  derivativeId */\n      dup3\n        /* \".deps/Derivative/DerivativeContract.sol\":5782:5820  this.isDerivativeExpired(derivativeId) */\n      mload(0x40)\n      dup3\n      0xffffffff\n      and\n      0xe0\n      shl\n      dup2\n      mstore\n      0x04\n      add\n      tag_135\n      swap2\n      swap1\n      tag_31\n      jump\t// in\n    tag_135:\n      0x20\n      mload(0x40)\n      dup1\n      dup4\n      sub\n      dup2\n      dup7\n      gas\n      staticcall\n      iszero\n      dup1\n      iszero\n      tag_137\n      jumpi\n      returndatasize\n      0x00\n      dup1\n      returndatacopy\n      revert(0x00, returndatasize)\n    tag_137:\n      pop\n      pop\n      pop\n      pop\n      mload(0x40)\n      returndatasize\n      not(0x1f)\n      0x1f\n      dup3\n      add\n      and\n      dup3\n      add\n      dup1\n      0x40\n      mstore\n      pop\n      dup2\n      add\n      swap1\n      tag_138\n      swap2\n      swap1\n      tag_139\n      jump\t// in\n    tag_138:\n        /* \".deps/Derivative/DerivativeContract.sol\":5761:5872  require(... */\n      tag_140\n      jumpi\n      mload(0x40)\n      0x08c379a000000000000000000000000000000000000000000000000000000000\n      dup2\n      mstore\n      0x04\n      add\n      tag_141\n      swap1\n      tag_142\n      jump\t// in\n    tag_141:\n      mload(0x40)\n      dup1\n      swap2\n      sub\n      swap1\n      revert\n    tag_140:\n        /* \".deps/Derivative/DerivativeContract.sol\":5941:5946  false */\n      0x00\n        /* \".deps/Derivative/DerivativeContract.sol\":5903:5946  derivatives[derivativeId].isClosed == false */\n      iszero\n      iszero\n        /* \".deps/Derivative/DerivativeContract.sol\":5903:5914  derivatives */\n      0x00\n        /* \".deps/Derivative/DerivativeContract.sol\":5903:5928  derivatives[derivativeId] */\n      dup1\n        /* \".deps/Derivative/DerivativeContract.sol\":5915:5927  derivativeId */\n      dup4\n        /* \".deps/Derivative/DerivativeContract.sol\":5903:5928  derivatives[derivativeId] */\n      dup2\n      mstore\n      0x20\n      add\n      swap1\n      dup2\n      mstore\n      0x20\n      add\n      0x00\n      keccak256\n        /* \".deps/Derivative/DerivativeContract.sol\":5903:5937  derivatives[derivativeId].isClosed */\n      0x04\n      add\n      0x00\n      swap1\n      sload\n      swap1\n      0x0100\n      exp\n      swap1\n      div\n      0xff\n      and\n        /* \".deps/Derivative/DerivativeContract.sol\":5903:5946  derivatives[derivativeId].isClosed == false */\n      iszero\n      iszero\n      eq\n        /* \".deps/Derivative/DerivativeContract.sol\":5882:5997  require(... */\n      tag_143\n      jumpi\n      mload(0x40)\n      0x08c379a000000000000000000000000000000000000000000000000000000000\n      dup2\n      mstore\n      0x04\n      add\n      tag_144\n      swap1\n      tag_145\n      jump\t// in\n    tag_144:\n      mload(0x40)\n      dup1\n      swap2\n      sub\n      swap1\n      revert\n    tag_143:\n        /* \".deps/Derivative/DerivativeContract.sol\":6054:6065  derivatives */\n      0x00\n        /* \".deps/Derivative/DerivativeContract.sol\":6054:6079  derivatives[derivativeId] */\n      dup1\n        /* \".deps/Derivative/DerivativeContract.sol\":6066:6078  derivativeId */\n      dup3\n        /* \".deps/Derivative/DerivativeContract.sol\":6054:6079  derivatives[derivativeId] */\n      dup2\n      mstore\n      0x20\n      add\n      swap1\n      dup2\n      mstore\n      0x20\n      add\n      0x00\n      keccak256\n        /* \".deps/Derivative/DerivativeContract.sol\":6054:6098  derivatives[derivativeId]... */\n      0x02\n      add\n      sload\n        /* \".deps/Derivative/DerivativeContract.sol\":6008:6016  balances */\n      0x02\n        /* \".deps/Derivative/DerivativeContract.sol\":6008:6050  balances[derivatives[derivativeId].seller] */\n      0x00\n        /* \".deps/Derivative/DerivativeContract.sol\":6017:6028  derivatives */\n      dup1\n        /* \".deps/Derivative/DerivativeContract.sol\":6017:6042  derivatives[derivativeId] */\n      0x00\n        /* \".deps/Derivative/DerivativeContract.sol\":6029:6041  derivativeId */\n      dup6\n        /* \".deps/Derivative/DerivativeContract.sol\":6017:6042  derivatives[derivativeId] */\n      dup2\n      mstore\n      0x20\n      add\n      swap1\n      dup2\n      mstore\n      0x20\n      add\n      0x00\n      keccak256\n        /* \".deps/Derivative/DerivativeContract.sol\":6017:6049  derivatives[derivativeId].seller */\n      0x00\n      add\n      0x00\n      swap1\n      sload\n      swap1\n      0x0100\n      exp\n      swap1\n      div\n      0xffffffffffffffffffffffffffffffffffffffff\n      and\n        /* \".deps/Derivative/DerivativeContract.sol\":6008:6050  balances[derivatives[derivativeId].seller] */\n      0xffffffffffffffffffffffffffffffffffffffff\n      and\n      0xffffffffffffffffffffffffffffffffffffffff\n      and\n      dup2\n      mstore\n      0x20\n      add\n      swap1\n      dup2\n      mstore\n      0x20\n      add\n      0x00\n      keccak256\n      0x00\n        /* \".deps/Derivative/DerivativeContract.sol\":6008:6098  balances[derivatives[derivativeId].seller] += derivatives[derivativeId]... */\n      dup3\n      dup3\n      sload\n      tag_146\n      swap2\n      swap1\n      tag_100\n      jump\t// in\n    tag_146:\n      swap3\n      pop\n      pop\n      dup2\n      swap1\n      sstore\n      pop\n        /* \".deps/Derivative/DerivativeContract.sol\":6153:6164  derivatives */\n      0x00\n        /* \".deps/Derivative/DerivativeContract.sol\":6153:6178  derivatives[derivativeId] */\n      dup1\n        /* \".deps/Derivative/DerivativeContract.sol\":6165:6177  derivativeId */\n      dup3\n        /* \".deps/Derivative/DerivativeContract.sol\":6153:6178  derivatives[derivativeId] */\n      dup2\n      mstore\n      0x20\n      add\n      swap1\n      dup2\n      mstore\n      0x20\n      add\n      0x00\n      keccak256\n        /* \".deps/Derivative/DerivativeContract.sol\":6153:6197  derivatives[derivativeId]... */\n      0x02\n      add\n      sload\n        /* \".deps/Derivative/DerivativeContract.sol\":6108:6116  balances */\n      0x02\n        /* \".deps/Derivative/DerivativeContract.sol\":6108:6149  balances[derivatives[derivativeId].buyer] */\n      0x00\n        /* \".deps/Derivative/DerivativeContract.sol\":6117:6128  derivatives */\n      dup1\n        /* \".deps/Derivative/DerivativeContract.sol\":6117:6142  derivatives[derivativeId] */\n      0x00\n        /* \".deps/Derivative/DerivativeContract.sol\":6129:6141  derivativeId */\n      dup6\n        /* \".deps/Derivative/DerivativeContract.sol\":6117:6142  derivatives[derivativeId] */\n      dup2\n      mstore\n      0x20\n      add\n      swap1\n      dup2\n      mstore\n      0x20\n      add\n      0x00\n      keccak256\n        /* \".deps/Derivative/DerivativeContract.sol\":6117:6148  derivatives[derivativeId].buyer */\n      0x01\n      add\n      0x00\n      swap1\n      sload\n      swap1\n      0x0100\n      exp\n      swap1\n      div\n      0xffffffffffffffffffffffffffffffffffffffff\n      and\n        /* \".deps/Derivative/DerivativeContract.sol\":6108:6149  balances[derivatives[derivativeId].buyer] */\n      0xffffffffffffffffffffffffffffffffffffffff\n      and\n      0xffffffffffffffffffffffffffffffffffffffff\n      and\n      dup2\n      mstore\n      0x20\n      add\n      swap1\n      dup2\n      mstore\n      0x20\n      add\n      0x00\n      keccak256\n      0x00\n        /* \".deps/Derivative/DerivativeContract.sol\":6108:6197  balances[derivatives[derivativeId].buyer] -= derivatives[derivativeId]... */\n      dup3\n      dup3\n      sload\n      tag_147\n      swap2\n      swap1\n      tag_109\n      jump\t// in\n    tag_147:\n      swap3\n      pop\n      pop\n      dup2\n      swap1\n      sstore\n      pop\n        /* \".deps/Derivative/DerivativeContract.sol\":6245:6249  true */\n      0x01\n        /* \".deps/Derivative/DerivativeContract.sol\":6208:6219  derivatives */\n      0x00\n        /* \".deps/Derivative/DerivativeContract.sol\":6208:6233  derivatives[derivativeId] */\n      dup1\n        /* \".deps/Derivative/DerivativeContract.sol\":6220:6232  derivativeId */\n      dup4\n        /* \".deps/Derivative/DerivativeContract.sol\":6208:6233  derivatives[derivativeId] */\n      dup2\n      mstore\n      0x20\n      add\n      swap1\n      dup2\n      mstore\n      0x20\n      add\n      0x00\n      keccak256\n        /* \".deps/Derivative/DerivativeContract.sol\":6208:6242  derivatives[derivativeId].isClosed */\n      0x04\n      add\n      0x00\n        /* \".deps/Derivative/DerivativeContract.sol\":6208:6249  derivatives[derivativeId].isClosed = true */\n      0x0100\n      exp\n      dup2\n      sload\n      dup2\n      0xff\n      mul\n      not\n      and\n      swap1\n      dup4\n      iszero\n      iszero\n      mul\n      or\n      swap1\n      sstore\n      pop\n        /* \".deps/Derivative/DerivativeContract.sol\":6282:6294  derivativeId */\n      dup1\n        /* \".deps/Derivative/DerivativeContract.sol\":6264:6295  DerivativeSettled(derivativeId) */\n      0xe78a4937b81735499a64366d0e0d838e038ee57ad73e99aff592b0b502db88d8\n      mload(0x40)\n      mload(0x40)\n      dup1\n      swap2\n      sub\n      swap1\n      log2\n        /* \".deps/Derivative/DerivativeContract.sol\":5619:6302  function settleDerivative(uint256 derivativeId) external {... */\n      pop\n      jump\t// out\n        /* \".deps/Derivative/DerivativeContract.sol\":3515:3766  function getDerivativeExpiration(uint256 derivativeId)... */\n    tag_53:\n        /* \".deps/Derivative/DerivativeContract.sol\":3617:3624  uint256 */\n      0x00\n        /* \".deps/Derivative/DerivativeContract.sol\":3663:3679  nextDerivativeId */\n      sload(0x01)\n        /* \".deps/Derivative/DerivativeContract.sol\":3648:3660  derivativeId */\n      dup3\n        /* \".deps/Derivative/DerivativeContract.sol\":3648:3679  derivativeId < nextDerivativeId */\n      lt\n        /* \".deps/Derivative/DerivativeContract.sol\":3640:3705  require(derivativeId < nextDerivativeId, \"Invalid derivative ID\") */\n      tag_149\n      jumpi\n      mload(0x40)\n      0x08c379a000000000000000000000000000000000000000000000000000000000\n      dup2\n      mstore\n      0x04\n      add\n      tag_150\n      swap1\n      tag_95\n      jump\t// in\n    tag_150:\n      mload(0x40)\n      dup1\n      swap2\n      sub\n      swap1\n      revert\n    tag_149:\n        /* \".deps/Derivative/DerivativeContract.sol\":3723:3734  derivatives */\n      0x00\n        /* \".deps/Derivative/DerivativeContract.sol\":3723:3748  derivatives[derivativeId] */\n      dup1\n        /* \".deps/Derivative/DerivativeContract.sol\":3735:3747  derivativeId */\n      dup4\n        /* \".deps/Derivative/DerivativeContract.sol\":3723:3748  derivatives[derivativeId] */\n      dup2\n      mstore\n      0x20\n      add\n      swap1\n      dup2\n      mstore\n      0x20\n      add\n      0x00\n      keccak256\n        /* \".deps/Derivative/DerivativeContract.sol\":3723:3759  derivatives[derivativeId].expiration */\n      0x03\n      add\n      sload\n        /* \".deps/Derivative/DerivativeContract.sol\":3716:3759  return derivatives[derivativeId].expiration */\n      swap1\n      pop\n        /* \".deps/Derivative/DerivativeContract.sol\":3515:3766  function getDerivativeExpiration(uint256 derivativeId)... */\n      swap2\n      swap1\n      pop\n      jump\t// out\n        /* \".deps/Derivative/DerivativeContract.sol\":4146:4617  function getDerivativeInfo(uint256 derivativeId)... */\n    tag_58:\n        /* \".deps/Derivative/DerivativeContract.sol\":4255:4262  address */\n      0x00\n        /* \".deps/Derivative/DerivativeContract.sol\":4276:4283  address */\n      dup1\n        /* \".deps/Derivative/DerivativeContract.sol\":4297:4304  uint256 */\n      0x00\n        /* \".deps/Derivative/DerivativeContract.sol\":4318:4325  uint256 */\n      dup1\n        /* \".deps/Derivative/DerivativeContract.sol\":4339:4343  bool */\n      0x00\n        /* \".deps/Derivative/DerivativeContract.sol\":4368:4396  Derivative memory derivative */\n      dup1\n        /* \".deps/Derivative/DerivativeContract.sol\":4399:4410  derivatives */\n      0x00\n        /* \".deps/Derivative/DerivativeContract.sol\":4399:4424  derivatives[derivativeId] */\n      dup1\n        /* \".deps/Derivative/DerivativeContract.sol\":4411:4423  derivativeId */\n      dup9\n        /* \".deps/Derivative/DerivativeContract.sol\":4399:4424  derivatives[derivativeId] */\n      dup2\n      mstore\n      0x20\n      add\n      swap1\n      dup2\n      mstore\n      0x20\n      add\n      0x00\n      keccak256\n        /* \".deps/Derivative/DerivativeContract.sol\":4368:4424  Derivative memory derivative = derivatives[derivativeId] */\n      mload(0x40)\n      dup1\n      0xa0\n      add\n      0x40\n      mstore\n      swap1\n      dup2\n      0x00\n      dup3\n      add\n      0x00\n      swap1\n      sload\n      swap1\n      0x0100\n      exp\n      swap1\n      div\n      0xffffffffffffffffffffffffffffffffffffffff\n      and\n      0xffffffffffffffffffffffffffffffffffffffff\n      and\n      0xffffffffffffffffffffffffffffffffffffffff\n      and\n      dup2\n      mstore\n      0x20\n      add\n      0x01\n      dup3\n      add\n      0x00\n      swap1\n      sload\n      swap1\n      0x0100\n      exp\n      swap1\n      div\n      0xffffffffffffffffffffffffffffffffffffffff\n      and\n      0xffffffffffffffffffffffffffffffffffffffff\n      and\n      0xffffffffffffffffffffffffffffffffffffffff\n      and\n      dup2\n      mstore\n      0x20\n      add\n      0x02\n      dup3\n      add\n      sload\n      dup2\n      mstore\n      0x20\n      add\n      0x03\n      dup3\n      add\n      sload\n      dup2\n      mstore\n      0x20\n      add\n      0x04\n      dup3\n      add\n      0x00\n      swap1\n      sload\n      swap1\n      0x0100\n      exp\n      swap1\n      div\n      0xff\n      and\n      iszero\n      iszero\n      iszero\n      iszero\n      dup2\n      mstore\n      pop\n      pop\n      swap1\n      pop\n        /* \".deps/Derivative/DerivativeContract.sol\":4455:4465  derivative */\n      dup1\n        /* \".deps/Derivative/DerivativeContract.sol\":4455:4472  derivative.seller */\n      0x00\n      add\n      mload\n        /* \".deps/Derivative/DerivativeContract.sol\":4486:4496  derivative */\n      dup2\n        /* \".deps/Derivative/DerivativeContract.sol\":4486:4502  derivative.buyer */\n      0x20\n      add\n      mload\n        /* \".deps/Derivative/DerivativeContract.sol\":4516:4526  derivative */\n      dup3\n        /* \".deps/Derivative/DerivativeContract.sol\":4516:4532  derivative.price */\n      0x40\n      add\n      mload\n        /* \".deps/Derivative/DerivativeContract.sol\":4546:4556  derivative */\n      dup4\n        /* \".deps/Derivative/DerivativeContract.sol\":4546:4567  derivative.expiration */\n      0x60\n      add\n      mload\n        /* \".deps/Derivative/DerivativeContract.sol\":4581:4591  derivative */\n      dup5\n        /* \".deps/Derivative/DerivativeContract.sol\":4581:4600  derivative.isClosed */\n      0x80\n      add\n      mload\n        /* \".deps/Derivative/DerivativeContract.sol\":4434:4610  return (... */\n      swap6\n      pop\n      swap6\n      pop\n      swap6\n      pop\n      swap6\n      pop\n      swap6\n      pop\n      pop\n        /* \".deps/Derivative/DerivativeContract.sol\":4146:4617  function getDerivativeInfo(uint256 derivativeId)... */\n      swap2\n      swap4\n      swap6\n      swap1\n      swap3\n      swap5\n      pop\n      jump\t// out\n        /* \".deps/Derivative/DerivativeContract.sol\":417:466  mapping(uint256 => Derivative) public derivatives */\n    tag_64:\n      mstore(0x20, 0x00)\n      dup1\n      0x00\n      mstore\n      keccak256(0x00, 0x40)\n      0x00\n      swap2\n      pop\n      swap1\n      pop\n      dup1\n      0x00\n      add\n      0x00\n      swap1\n      sload\n      swap1\n      0x0100\n      exp\n      swap1\n      div\n      0xffffffffffffffffffffffffffffffffffffffff\n      and\n      swap1\n      dup1\n      0x01\n      add\n      0x00\n      swap1\n      sload\n      swap1\n      0x0100\n      exp\n      swap1\n      div\n      0xffffffffffffffffffffffffffffffffffffffff\n      and\n      swap1\n      dup1\n      0x02\n      add\n      sload\n      swap1\n      dup1\n      0x03\n      add\n      sload\n      swap1\n      dup1\n      0x04\n      add\n      0x00\n      swap1\n      sload\n      swap1\n      0x0100\n      exp\n      swap1\n      div\n      0xff\n      and\n      swap1\n      pop\n      dup6\n      jump\t// out\n        /* \".deps/Derivative/DerivativeContract.sol\":3827:4089  function isDerivativeExpired(uint256 derivativeId)... */\n    tag_69:\n        /* \".deps/Derivative/DerivativeContract.sol\":3925:3929  bool */\n      0x00\n        /* \".deps/Derivative/DerivativeContract.sol\":3968:3984  nextDerivativeId */\n      sload(0x01)\n        /* \".deps/Derivative/DerivativeContract.sol\":3953:3965  derivativeId */\n      dup3\n        /* \".deps/Derivative/DerivativeContract.sol\":3953:3984  derivativeId < nextDerivativeId */\n      lt\n        /* \".deps/Derivative/DerivativeContract.sol\":3945:4010  require(derivativeId < nextDerivativeId, \"Invalid derivative ID\") */\n      tag_153\n      jumpi\n      mload(0x40)\n      0x08c379a000000000000000000000000000000000000000000000000000000000\n      dup2\n      mstore\n      0x04\n      add\n      tag_154\n      swap1\n      tag_95\n      jump\t// in\n    tag_154:\n      mload(0x40)\n      dup1\n      swap2\n      sub\n      swap1\n      revert\n    tag_153:\n        /* \".deps/Derivative/DerivativeContract.sol\":4046:4057  derivatives */\n      0x00\n        /* \".deps/Derivative/DerivativeContract.sol\":4046:4071  derivatives[derivativeId] */\n      dup1\n        /* \".deps/Derivative/DerivativeContract.sol\":4058:4070  derivativeId */\n      dup4\n        /* \".deps/Derivative/DerivativeContract.sol\":4046:4071  derivatives[derivativeId] */\n      dup2\n      mstore\n      0x20\n      add\n      swap1\n      dup2\n      mstore\n      0x20\n      add\n      0x00\n      keccak256\n        /* \".deps/Derivative/DerivativeContract.sol\":4046:4082  derivatives[derivativeId].expiration */\n      0x03\n      add\n      sload\n        /* \".deps/Derivative/DerivativeContract.sol\":4027:4042  block.timestamp */\n      timestamp\n        /* \".deps/Derivative/DerivativeContract.sol\":4027:4082  block.timestamp >= derivatives[derivativeId].expiration */\n      lt\n      iszero\n        /* \".deps/Derivative/DerivativeContract.sol\":4020:4082  return block.timestamp >= derivatives[derivativeId].expiration */\n      swap1\n      pop\n        /* \".deps/Derivative/DerivativeContract.sol\":3827:4089  function isDerivativeExpired(uint256 derivativeId)... */\n      swap2\n      swap1\n      pop\n      jump\t// out\n        /* \".deps/Derivative/DerivativeContract.sol\":1368:1576  function deposit() external payable {... */\n    tag_73:\n        /* \".deps/Derivative/DerivativeContract.sol\":1434:1435  0 */\n      0x00\n        /* \".deps/Derivative/DerivativeContract.sol\":1422:1431  msg.value */\n      callvalue\n        /* \".deps/Derivative/DerivativeContract.sol\":1422:1435  msg.value > 0 */\n      gt\n        /* \".deps/Derivative/DerivativeContract.sol\":1414:1480  require(msg.value > 0, \"Deposit amount must be greater than zero\") */\n      tag_156\n      jumpi\n      mload(0x40)\n      0x08c379a000000000000000000000000000000000000000000000000000000000\n      dup2\n      mstore\n      0x04\n      add\n      tag_157\n      swap1\n      tag_158\n      jump\t// in\n    tag_157:\n      mload(0x40)\n      dup1\n      swap2\n      sub\n      swap1\n      revert\n    tag_156:\n        /* \".deps/Derivative/DerivativeContract.sol\":1515:1524  msg.value */\n      callvalue\n        /* \".deps/Derivative/DerivativeContract.sol\":1491:1499  balances */\n      0x02\n        /* \".deps/Derivative/DerivativeContract.sol\":1491:1511  balances[msg.sender] */\n      0x00\n        /* \".deps/Derivative/DerivativeContract.sol\":1500:1510  msg.sender */\n      caller\n        /* \".deps/Derivative/DerivativeContract.sol\":1491:1511  balances[msg.sender] */\n      0xffffffffffffffffffffffffffffffffffffffff\n      and\n      0xffffffffffffffffffffffffffffffffffffffff\n      and\n      dup2\n      mstore\n      0x20\n      add\n      swap1\n      dup2\n      mstore\n      0x20\n      add\n      0x00\n      keccak256\n      0x00\n        /* \".deps/Derivative/DerivativeContract.sol\":1491:1524  balances[msg.sender] += msg.value */\n      dup3\n      dup3\n      sload\n      tag_159\n      swap2\n      swap1\n      tag_100\n      jump\t// in\n    tag_159:\n      swap3\n      pop\n      pop\n      dup2\n      swap1\n      sstore\n      pop\n        /* \".deps/Derivative/DerivativeContract.sol\":1547:1557  msg.sender */\n      caller\n        /* \".deps/Derivative/DerivativeContract.sol\":1539:1569  Deposit(msg.sender, msg.value) */\n      0xffffffffffffffffffffffffffffffffffffffff\n      and\n      0xe1fffcc4923d04b559f4d29a8bfc6cda04eb5b0d3c460751c2402c5c5cc9109c\n        /* \".deps/Derivative/DerivativeContract.sol\":1559:1568  msg.value */\n      callvalue\n        /* \".deps/Derivative/DerivativeContract.sol\":1539:1569  Deposit(msg.sender, msg.value) */\n      mload(0x40)\n      tag_160\n      swap2\n      swap1\n      tag_31\n      jump\t// in\n    tag_160:\n      mload(0x40)\n      dup1\n      swap2\n      sub\n      swap1\n      log2\n        /* \".deps/Derivative/DerivativeContract.sol\":1368:1576  function deposit() external payable {... */\n      jump\t// out\n        /* \".deps/Derivative/DerivativeContract.sol\":4675:4778  function getToralDerivatives() external view returns (uint256) {... */\n    tag_76:\n        /* \".deps/Derivative/DerivativeContract.sol\":4729:4736  uint256 */\n      0x00\n        /* \".deps/Derivative/DerivativeContract.sol\":4755:4771  nextDerivativeId */\n      sload(0x01)\n        /* \".deps/Derivative/DerivativeContract.sol\":4748:4771  return nextDerivativeId */\n      swap1\n      pop\n        /* \".deps/Derivative/DerivativeContract.sol\":4675:4778  function getToralDerivatives() external view returns (uint256) {... */\n      swap1\n      jump\t// out\n        /* \".deps/Derivative/DerivativeContract.sol\":3217:3458  function isDerivativeClosed(uint256 derivativeId)... */\n    tag_81:\n        /* \".deps/Derivative/DerivativeContract.sol\":3314:3318  bool */\n      0x00\n        /* \".deps/Derivative/DerivativeContract.sol\":3357:3373  nextDerivativeId */\n      sload(0x01)\n        /* \".deps/Derivative/DerivativeContract.sol\":3342:3354  derivativeId */\n      dup3\n        /* \".deps/Derivative/DerivativeContract.sol\":3342:3373  derivativeId < nextDerivativeId */\n      lt\n        /* \".deps/Derivative/DerivativeContract.sol\":3334:3399  require(derivativeId < nextDerivativeId, \"Invalid derivative ID\") */\n      tag_163\n      jumpi\n      mload(0x40)\n      0x08c379a000000000000000000000000000000000000000000000000000000000\n      dup2\n      mstore\n      0x04\n      add\n      tag_164\n      swap1\n      tag_95\n      jump\t// in\n    tag_164:\n      mload(0x40)\n      dup1\n      swap2\n      sub\n      swap1\n      revert\n    tag_163:\n        /* \".deps/Derivative/DerivativeContract.sol\":3417:3428  derivatives */\n      0x00\n        /* \".deps/Derivative/DerivativeContract.sol\":3417:3442  derivatives[derivativeId] */\n      dup1\n        /* \".deps/Derivative/DerivativeContract.sol\":3429:3441  derivativeId */\n      dup4\n        /* \".deps/Derivative/DerivativeContract.sol\":3417:3442  derivatives[derivativeId] */\n      dup2\n      mstore\n      0x20\n      add\n      swap1\n      dup2\n      mstore\n      0x20\n      add\n      0x00\n      keccak256\n        /* \".deps/Derivative/DerivativeContract.sol\":3417:3451  derivatives[derivativeId].isClosed */\n      0x04\n      add\n      0x00\n      swap1\n      sload\n      swap1\n      0x0100\n      exp\n      swap1\n      div\n      0xff\n      and\n        /* \".deps/Derivative/DerivativeContract.sol\":3410:3451  return derivatives[derivativeId].isClosed */\n      swap1\n      pop\n        /* \".deps/Derivative/DerivativeContract.sol\":3217:3458  function isDerivativeClosed(uint256 derivativeId)... */\n      swap2\n      swap1\n      pop\n      jump\t// out\n        /* \".deps/Derivative/DerivativeContract.sol\":4838:5079  function getDerivativePrice(uint256 derivativeId)... */\n    tag_86:\n        /* \".deps/Derivative/DerivativeContract.sol\":4935:4942  uint256 */\n      0x00\n        /* \".deps/Derivative/DerivativeContract.sol\":4981:4997  nextDerivativeId */\n      sload(0x01)\n        /* \".deps/Derivative/DerivativeContract.sol\":4966:4978  derivativeId */\n      dup3\n        /* \".deps/Derivative/DerivativeContract.sol\":4966:4997  derivativeId < nextDerivativeId */\n      lt\n        /* \".deps/Derivative/DerivativeContract.sol\":4958:5023  require(derivativeId < nextDerivativeId, \"Invalid derivative ID\") */\n      tag_166\n      jumpi\n      mload(0x40)\n      0x08c379a000000000000000000000000000000000000000000000000000000000\n      dup2\n      mstore\n      0x04\n      add\n      tag_167\n      swap1\n      tag_95\n      jump\t// in\n    tag_167:\n      mload(0x40)\n      dup1\n      swap2\n      sub\n      swap1\n      revert\n    tag_166:\n        /* \".deps/Derivative/DerivativeContract.sol\":5041:5052  derivatives */\n      0x00\n        /* \".deps/Derivative/DerivativeContract.sol\":5041:5066  derivatives[derivativeId] */\n      dup1\n        /* \".deps/Derivative/DerivativeContract.sol\":5053:5065  derivativeId */\n      dup4\n        /* \".deps/Derivative/DerivativeContract.sol\":5041:5066  derivatives[derivativeId] */\n      dup2\n      mstore\n      0x20\n      add\n      swap1\n      dup2\n      mstore\n      0x20\n      add\n      0x00\n      keccak256\n        /* \".deps/Derivative/DerivativeContract.sol\":5041:5072  derivatives[derivativeId].price */\n      0x02\n      add\n      sload\n        /* \".deps/Derivative/DerivativeContract.sol\":5034:5072  return derivatives[derivativeId].price */\n      swap1\n      pop\n        /* \".deps/Derivative/DerivativeContract.sol\":4838:5079  function getDerivativePrice(uint256 derivativeId)... */\n      swap2\n      swap1\n      pop\n      jump\t// out\n        /* \".deps/Derivative/DerivativeContract.sol\":514:545  uint256 public nextDerivativeId */\n    tag_90:\n      sload(0x01)\n      dup2\n      jump\t// out\n        /* \"#utility.yul\":88:205   */\n    tag_169:\n        /* \"#utility.yul\":197:198   */\n      0x00\n        /* \"#utility.yul\":194:195   */\n      dup1\n        /* \"#utility.yul\":187:199   */\n      revert\n        /* \"#utility.yul\":334:411   */\n    tag_171:\n        /* \"#utility.yul\":371:378   */\n      0x00\n        /* \"#utility.yul\":400:405   */\n      dup2\n        /* \"#utility.yul\":389:405   */\n      swap1\n      pop\n        /* \"#utility.yul\":334:411   */\n      swap2\n      swap1\n      pop\n      jump\t// out\n        /* \"#utility.yul\":417:539   */\n    tag_172:\n        /* \"#utility.yul\":490:514   */\n      tag_210\n        /* \"#utility.yul\":508:513   */\n      dup2\n        /* \"#utility.yul\":490:514   */\n      tag_171\n      jump\t// in\n    tag_210:\n        /* \"#utility.yul\":483:488   */\n      dup2\n        /* \"#utility.yul\":480:515   */\n      eq\n        /* \"#utility.yul\":470:533   */\n      tag_211\n      jumpi\n        /* \"#utility.yul\":529:530   */\n      0x00\n        /* \"#utility.yul\":526:527   */\n      dup1\n        /* \"#utility.yul\":519:531   */\n      revert\n        /* \"#utility.yul\":470:533   */\n    tag_211:\n        /* \"#utility.yul\":417:539   */\n      pop\n      jump\t// out\n        /* \"#utility.yul\":545:684   */\n    tag_173:\n        /* \"#utility.yul\":591:596   */\n      0x00\n        /* \"#utility.yul\":629:635   */\n      dup2\n        /* \"#utility.yul\":616:636   */\n      calldataload\n        /* \"#utility.yul\":607:636   */\n      swap1\n      pop\n        /* \"#utility.yul\":645:678   */\n      tag_213\n        /* \"#utility.yul\":672:677   */\n      dup2\n        /* \"#utility.yul\":645:678   */\n      tag_172\n      jump\t// in\n    tag_213:\n        /* \"#utility.yul\":545:684   */\n      swap3\n      swap2\n      pop\n      pop\n      jump\t// out\n        /* \"#utility.yul\":690:1019   */\n    tag_23:\n        /* \"#utility.yul\":749:755   */\n      0x00\n        /* \"#utility.yul\":798:800   */\n      0x20\n        /* \"#utility.yul\":786:795   */\n      dup3\n        /* \"#utility.yul\":777:784   */\n      dup5\n        /* \"#utility.yul\":773:796   */\n      sub\n        /* \"#utility.yul\":769:801   */\n      slt\n        /* \"#utility.yul\":766:885   */\n      iszero\n      tag_215\n      jumpi\n        /* \"#utility.yul\":804:883   */\n      tag_216\n      tag_169\n      jump\t// in\n    tag_216:\n        /* \"#utility.yul\":766:885   */\n    tag_215:\n        /* \"#utility.yul\":924:925   */\n      0x00\n        /* \"#utility.yul\":949:1002   */\n      tag_217\n        /* \"#utility.yul\":994:1001   */\n      dup5\n        /* \"#utility.yul\":985:991   */\n      dup3\n        /* \"#utility.yul\":974:983   */\n      dup6\n        /* \"#utility.yul\":970:992   */\n      add\n        /* \"#utility.yul\":949:1002   */\n      tag_173\n      jump\t// in\n    tag_217:\n        /* \"#utility.yul\":939:1002   */\n      swap2\n      pop\n        /* \"#utility.yul\":895:1012   */\n      pop\n        /* \"#utility.yul\":690:1019   */\n      swap3\n      swap2\n      pop\n      pop\n      jump\t// out\n        /* \"#utility.yul\":1025:1151   */\n    tag_174:\n        /* \"#utility.yul\":1062:1069   */\n      0x00\n        /* \"#utility.yul\":1102:1144   */\n      0xffffffffffffffffffffffffffffffffffffffff\n        /* \"#utility.yul\":1095:1100   */\n      dup3\n        /* \"#utility.yul\":1091:1145   */\n      and\n        /* \"#utility.yul\":1080:1145   */\n      swap1\n      pop\n        /* \"#utility.yul\":1025:1151   */\n      swap2\n      swap1\n      pop\n      jump\t// out\n        /* \"#utility.yul\":1157:1253   */\n    tag_175:\n        /* \"#utility.yul\":1194:1201   */\n      0x00\n        /* \"#utility.yul\":1223:1247   */\n      tag_220\n        /* \"#utility.yul\":1241:1246   */\n      dup3\n        /* \"#utility.yul\":1223:1247   */\n      tag_174\n      jump\t// in\n    tag_220:\n        /* \"#utility.yul\":1212:1247   */\n      swap1\n      pop\n        /* \"#utility.yul\":1157:1253   */\n      swap2\n      swap1\n      pop\n      jump\t// out\n        /* \"#utility.yul\":1259:1381   */\n    tag_176:\n        /* \"#utility.yul\":1332:1356   */\n      tag_222\n        /* \"#utility.yul\":1350:1355   */\n      dup2\n        /* \"#utility.yul\":1332:1356   */\n      tag_175\n      jump\t// in\n    tag_222:\n        /* \"#utility.yul\":1325:1330   */\n      dup2\n        /* \"#utility.yul\":1322:1357   */\n      eq\n        /* \"#utility.yul\":1312:1375   */\n      tag_223\n      jumpi\n        /* \"#utility.yul\":1371:1372   */\n      0x00\n        /* \"#utility.yul\":1368:1369   */\n      dup1\n        /* \"#utility.yul\":1361:1373   */\n      revert\n        /* \"#utility.yul\":1312:1375   */\n    tag_223:\n        /* \"#utility.yul\":1259:1381   */\n      pop\n      jump\t// out\n        /* \"#utility.yul\":1387:1526   */\n    tag_177:\n        /* \"#utility.yul\":1433:1438   */\n      0x00\n        /* \"#utility.yul\":1471:1477   */\n      dup2\n        /* \"#utility.yul\":1458:1478   */\n      calldataload\n        /* \"#utility.yul\":1449:1478   */\n      swap1\n      pop\n        /* \"#utility.yul\":1487:1520   */\n      tag_225\n        /* \"#utility.yul\":1514:1519   */\n      dup2\n        /* \"#utility.yul\":1487:1520   */\n      tag_176\n      jump\t// in\n    tag_225:\n        /* \"#utility.yul\":1387:1526   */\n      swap3\n      swap2\n      pop\n      pop\n      jump\t// out\n        /* \"#utility.yul\":1532:1861   */\n    tag_28:\n        /* \"#utility.yul\":1591:1597   */\n      0x00\n        /* \"#utility.yul\":1640:1642   */\n      0x20\n        /* \"#utility.yul\":1628:1637   */\n      dup3\n        /* \"#utility.yul\":1619:1626   */\n      dup5\n        /* \"#utility.yul\":1615:1638   */\n      sub\n        /* \"#utility.yul\":1611:1643   */\n      slt\n        /* \"#utility.yul\":1608:1727   */\n      iszero\n      tag_227\n      jumpi\n        /* \"#utility.yul\":1646:1725   */\n      tag_228\n      tag_169\n      jump\t// in\n    tag_228:\n        /* \"#utility.yul\":1608:1727   */\n    tag_227:\n        /* \"#utility.yul\":1766:1767   */\n      0x00\n        /* \"#utility.yul\":1791:1844   */\n      tag_229\n        /* \"#utility.yul\":1836:1843   */\n      dup5\n        /* \"#utility.yul\":1827:1833   */\n      dup3\n        /* \"#utility.yul\":1816:1825   */\n      dup6\n        /* \"#utility.yul\":1812:1834   */\n      add\n        /* \"#utility.yul\":1791:1844   */\n      tag_177\n      jump\t// in\n    tag_229:\n        /* \"#utility.yul\":1781:1844   */\n      swap2\n      pop\n        /* \"#utility.yul\":1737:1854   */\n      pop\n        /* \"#utility.yul\":1532:1861   */\n      swap3\n      swap2\n      pop\n      pop\n      jump\t// out\n        /* \"#utility.yul\":1867:1985   */\n    tag_178:\n        /* \"#utility.yul\":1954:1978   */\n      tag_231\n        /* \"#utility.yul\":1972:1977   */\n      dup2\n        /* \"#utility.yul\":1954:1978   */\n      tag_171\n      jump\t// in\n    tag_231:\n        /* \"#utility.yul\":1949:1952   */\n      dup3\n        /* \"#utility.yul\":1942:1979   */\n      mstore\n        /* \"#utility.yul\":1867:1985   */\n      pop\n      pop\n      jump\t// out\n        /* \"#utility.yul\":1991:2213   */\n    tag_31:\n        /* \"#utility.yul\":2084:2088   */\n      0x00\n        /* \"#utility.yul\":2122:2124   */\n      0x20\n        /* \"#utility.yul\":2111:2120   */\n      dup3\n        /* \"#utility.yul\":2107:2125   */\n      add\n        /* \"#utility.yul\":2099:2125   */\n      swap1\n      pop\n        /* \"#utility.yul\":2135:2206   */\n      tag_233\n        /* \"#utility.yul\":2203:2204   */\n      0x00\n        /* \"#utility.yul\":2192:2201   */\n      dup4\n        /* \"#utility.yul\":2188:2205   */\n      add\n        /* \"#utility.yul\":2179:2185   */\n      dup5\n        /* \"#utility.yul\":2135:2206   */\n      tag_178\n      jump\t// in\n    tag_233:\n        /* \"#utility.yul\":1991:2213   */\n      swap3\n      swap2\n      pop\n      pop\n      jump\t// out\n        /* \"#utility.yul\":2219:2693   */\n    tag_35:\n        /* \"#utility.yul\":2287:2293   */\n      0x00\n        /* \"#utility.yul\":2295:2301   */\n      dup1\n        /* \"#utility.yul\":2344:2346   */\n      0x40\n        /* \"#utility.yul\":2332:2341   */\n      dup4\n        /* \"#utility.yul\":2323:2330   */\n      dup6\n        /* \"#utility.yul\":2319:2342   */\n      sub\n        /* \"#utility.yul\":2315:2347   */\n      slt\n        /* \"#utility.yul\":2312:2431   */\n      iszero\n      tag_235\n      jumpi\n        /* \"#utility.yul\":2350:2429   */\n      tag_236\n      tag_169\n      jump\t// in\n    tag_236:\n        /* \"#utility.yul\":2312:2431   */\n    tag_235:\n        /* \"#utility.yul\":2470:2471   */\n      0x00\n        /* \"#utility.yul\":2495:2548   */\n      tag_237\n        /* \"#utility.yul\":2540:2547   */\n      dup6\n        /* \"#utility.yul\":2531:2537   */\n      dup3\n        /* \"#utility.yul\":2520:2529   */\n      dup7\n        /* \"#utility.yul\":2516:2538   */\n      add\n        /* \"#utility.yul\":2495:2548   */\n      tag_173\n      jump\t// in\n    tag_237:\n        /* \"#utility.yul\":2485:2548   */\n      swap3\n      pop\n        /* \"#utility.yul\":2441:2558   */\n      pop\n        /* \"#utility.yul\":2597:2599   */\n      0x20\n        /* \"#utility.yul\":2623:2676   */\n      tag_238\n        /* \"#utility.yul\":2668:2675   */\n      dup6\n        /* \"#utility.yul\":2659:2665   */\n      dup3\n        /* \"#utility.yul\":2648:2657   */\n      dup7\n        /* \"#utility.yul\":2644:2666   */\n      add\n        /* \"#utility.yul\":2623:2676   */\n      tag_173\n      jump\t// in\n    tag_238:\n        /* \"#utility.yul\":2613:2676   */\n      swap2\n      pop\n        /* \"#utility.yul\":2568:2686   */\n      pop\n        /* \"#utility.yul\":2219:2693   */\n      swap3\n      pop\n      swap3\n      swap1\n      pop\n      jump\t// out\n        /* \"#utility.yul\":2699:3318   */\n    tag_40:\n        /* \"#utility.yul\":2776:2782   */\n      0x00\n        /* \"#utility.yul\":2784:2790   */\n      dup1\n        /* \"#utility.yul\":2792:2798   */\n      0x00\n        /* \"#utility.yul\":2841:2843   */\n      0x60\n        /* \"#utility.yul\":2829:2838   */\n      dup5\n        /* \"#utility.yul\":2820:2827   */\n      dup7\n        /* \"#utility.yul\":2816:2839   */\n      sub\n        /* \"#utility.yul\":2812:2844   */\n      slt\n        /* \"#utility.yul\":2809:2928   */\n      iszero\n      tag_240\n      jumpi\n        /* \"#utility.yul\":2847:2926   */\n      tag_241\n      tag_169\n      jump\t// in\n    tag_241:\n        /* \"#utility.yul\":2809:2928   */\n    tag_240:\n        /* \"#utility.yul\":2967:2968   */\n      0x00\n        /* \"#utility.yul\":2992:3045   */\n      tag_242\n        /* \"#utility.yul\":3037:3044   */\n      dup7\n        /* \"#utility.yul\":3028:3034   */\n      dup3\n        /* \"#utility.yul\":3017:3026   */\n      dup8\n        /* \"#utility.yul\":3013:3035   */\n      add\n        /* \"#utility.yul\":2992:3045   */\n      tag_177\n      jump\t// in\n    tag_242:\n        /* \"#utility.yul\":2982:3045   */\n      swap4\n      pop\n        /* \"#utility.yul\":2938:3055   */\n      pop\n        /* \"#utility.yul\":3094:3096   */\n      0x20\n        /* \"#utility.yul\":3120:3173   */\n      tag_243\n        /* \"#utility.yul\":3165:3172   */\n      dup7\n        /* \"#utility.yul\":3156:3162   */\n      dup3\n        /* \"#utility.yul\":3145:3154   */\n      dup8\n        /* \"#utility.yul\":3141:3163   */\n      add\n        /* \"#utility.yul\":3120:3173   */\n      tag_173\n      jump\t// in\n    tag_243:\n        /* \"#utility.yul\":3110:3173   */\n      swap3\n      pop\n        /* \"#utility.yul\":3065:3183   */\n      pop\n        /* \"#utility.yul\":3222:3224   */\n      0x40\n        /* \"#utility.yul\":3248:3301   */\n      tag_244\n        /* \"#utility.yul\":3293:3300   */\n      dup7\n        /* \"#utility.yul\":3284:3290   */\n      dup3\n        /* \"#utility.yul\":3273:3282   */\n      dup8\n        /* \"#utility.yul\":3269:3291   */\n      add\n        /* \"#utility.yul\":3248:3301   */\n      tag_173\n      jump\t// in\n    tag_244:\n        /* \"#utility.yul\":3238:3301   */\n      swap2\n      pop\n        /* \"#utility.yul\":3193:3311   */\n      pop\n        /* \"#utility.yul\":2699:3318   */\n      swap3\n      pop\n      swap3\n      pop\n      swap3\n      jump\t// out\n        /* \"#utility.yul\":3324:3442   */\n    tag_179:\n        /* \"#utility.yul\":3411:3435   */\n      tag_246\n        /* \"#utility.yul\":3429:3434   */\n      dup2\n        /* \"#utility.yul\":3411:3435   */\n      tag_175\n      jump\t// in\n    tag_246:\n        /* \"#utility.yul\":3406:3409   */\n      dup3\n        /* \"#utility.yul\":3399:3436   */\n      mstore\n        /* \"#utility.yul\":3324:3442   */\n      pop\n      pop\n      jump\t// out\n        /* \"#utility.yul\":3448:3538   */\n    tag_180:\n        /* \"#utility.yul\":3482:3489   */\n      0x00\n        /* \"#utility.yul\":3525:3530   */\n      dup2\n        /* \"#utility.yul\":3518:3531   */\n      iszero\n        /* \"#utility.yul\":3511:3532   */\n      iszero\n        /* \"#utility.yul\":3500:3532   */\n      swap1\n      pop\n        /* \"#utility.yul\":3448:3538   */\n      swap2\n      swap1\n      pop\n      jump\t// out\n        /* \"#utility.yul\":3544:3653   */\n    tag_181:\n        /* \"#utility.yul\":3625:3646   */\n      tag_249\n        /* \"#utility.yul\":3640:3645   */\n      dup2\n        /* \"#utility.yul\":3625:3646   */\n      tag_180\n      jump\t// in\n    tag_249:\n        /* \"#utility.yul\":3620:3623   */\n      dup3\n        /* \"#utility.yul\":3613:3647   */\n      mstore\n        /* \"#utility.yul\":3544:3653   */\n      pop\n      pop\n      jump\t// out\n        /* \"#utility.yul\":3659:4311   */\n    tag_60:\n        /* \"#utility.yul\":3858:3862   */\n      0x00\n        /* \"#utility.yul\":3896:3899   */\n      0xa0\n        /* \"#utility.yul\":3885:3894   */\n      dup3\n        /* \"#utility.yul\":3881:3900   */\n      add\n        /* \"#utility.yul\":3873:3900   */\n      swap1\n      pop\n        /* \"#utility.yul\":3910:3981   */\n      tag_251\n        /* \"#utility.yul\":3978:3979   */\n      0x00\n        /* \"#utility.yul\":3967:3976   */\n      dup4\n        /* \"#utility.yul\":3963:3980   */\n      add\n        /* \"#utility.yul\":3954:3960   */\n      dup9\n        /* \"#utility.yul\":3910:3981   */\n      tag_179\n      jump\t// in\n    tag_251:\n        /* \"#utility.yul\":3991:4063   */\n      tag_252\n        /* \"#utility.yul\":4059:4061   */\n      0x20\n        /* \"#utility.yul\":4048:4057   */\n      dup4\n        /* \"#utility.yul\":4044:4062   */\n      add\n        /* \"#utility.yul\":4035:4041   */\n      dup8\n        /* \"#utility.yul\":3991:4063   */\n      tag_179\n      jump\t// in\n    tag_252:\n        /* \"#utility.yul\":4073:4145   */\n      tag_253\n        /* \"#utility.yul\":4141:4143   */\n      0x40\n        /* \"#utility.yul\":4130:4139   */\n      dup4\n        /* \"#utility.yul\":4126:4144   */\n      add\n        /* \"#utility.yul\":4117:4123   */\n      dup7\n        /* \"#utility.yul\":4073:4145   */\n      tag_178\n      jump\t// in\n    tag_253:\n        /* \"#utility.yul\":4155:4227   */\n      tag_254\n        /* \"#utility.yul\":4223:4225   */\n      0x60\n        /* \"#utility.yul\":4212:4221   */\n      dup4\n        /* \"#utility.yul\":4208:4226   */\n      add\n        /* \"#utility.yul\":4199:4205   */\n      dup6\n        /* \"#utility.yul\":4155:4227   */\n      tag_178\n      jump\t// in\n    tag_254:\n        /* \"#utility.yul\":4237:4304   */\n      tag_255\n        /* \"#utility.yul\":4299:4302   */\n      0x80\n        /* \"#utility.yul\":4288:4297   */\n      dup4\n        /* \"#utility.yul\":4284:4303   */\n      add\n        /* \"#utility.yul\":4275:4281   */\n      dup5\n        /* \"#utility.yul\":4237:4304   */\n      tag_181\n      jump\t// in\n    tag_255:\n        /* \"#utility.yul\":3659:4311   */\n      swap7\n      swap6\n      pop\n      pop\n      pop\n      pop\n      pop\n      pop\n      jump\t// out\n        /* \"#utility.yul\":4317:4527   */\n    tag_71:\n        /* \"#utility.yul\":4404:4408   */\n      0x00\n        /* \"#utility.yul\":4442:4444   */\n      0x20\n        /* \"#utility.yul\":4431:4440   */\n      dup3\n        /* \"#utility.yul\":4427:4445   */\n      add\n        /* \"#utility.yul\":4419:4445   */\n      swap1\n      pop\n        /* \"#utility.yul\":4455:4520   */\n      tag_257\n        /* \"#utility.yul\":4517:4518   */\n      0x00\n        /* \"#utility.yul\":4506:4515   */\n      dup4\n        /* \"#utility.yul\":4502:4519   */\n      add\n        /* \"#utility.yul\":4493:4499   */\n      dup5\n        /* \"#utility.yul\":4455:4520   */\n      tag_181\n      jump\t// in\n    tag_257:\n        /* \"#utility.yul\":4317:4527   */\n      swap3\n      swap2\n      pop\n      pop\n      jump\t// out\n        /* \"#utility.yul\":4533:4702   */\n    tag_182:\n        /* \"#utility.yul\":4617:4628   */\n      0x00\n        /* \"#utility.yul\":4651:4657   */\n      dup3\n        /* \"#utility.yul\":4646:4649   */\n      dup3\n        /* \"#utility.yul\":4639:4658   */\n      mstore\n        /* \"#utility.yul\":4691:4695   */\n      0x20\n        /* \"#utility.yul\":4686:4689   */\n      dup3\n        /* \"#utility.yul\":4682:4696   */\n      add\n        /* \"#utility.yul\":4667:4696   */\n      swap1\n      pop\n        /* \"#utility.yul\":4533:4702   */\n      swap3\n      swap2\n      pop\n      pop\n      jump\t// out\n        /* \"#utility.yul\":4708:4879   */\n    tag_183:\n        /* \"#utility.yul\":4848:4871   */\n      0x496e76616c696420646572697661746976652049440000000000000000000000\n        /* \"#utility.yul\":4844:4845   */\n      0x00\n        /* \"#utility.yul\":4836:4842   */\n      dup3\n        /* \"#utility.yul\":4832:4846   */\n      add\n        /* \"#utility.yul\":4825:4872   */\n      mstore\n        /* \"#utility.yul\":4708:4879   */\n      pop\n      jump\t// out\n        /* \"#utility.yul\":4885:5251   */\n    tag_184:\n        /* \"#utility.yul\":5027:5030   */\n      0x00\n        /* \"#utility.yul\":5048:5115   */\n      tag_261\n        /* \"#utility.yul\":5112:5114   */\n      0x15\n        /* \"#utility.yul\":5107:5110   */\n      dup4\n        /* \"#utility.yul\":5048:5115   */\n      tag_182\n      jump\t// in\n    tag_261:\n        /* \"#utility.yul\":5041:5115   */\n      swap2\n      pop\n        /* \"#utility.yul\":5124:5217   */\n      tag_262\n        /* \"#utility.yul\":5213:5216   */\n      dup3\n        /* \"#utility.yul\":5124:5217   */\n      tag_183\n      jump\t// in\n    tag_262:\n        /* \"#utility.yul\":5242:5244   */\n      0x20\n        /* \"#utility.yul\":5237:5240   */\n      dup3\n        /* \"#utility.yul\":5233:5245   */\n      add\n        /* \"#utility.yul\":5226:5245   */\n      swap1\n      pop\n        /* \"#utility.yul\":4885:5251   */\n      swap2\n      swap1\n      pop\n      jump\t// out\n        /* \"#utility.yul\":5257:5676   */\n    tag_95:\n        /* \"#utility.yul\":5423:5427   */\n      0x00\n        /* \"#utility.yul\":5461:5463   */\n      0x20\n        /* \"#utility.yul\":5450:5459   */\n      dup3\n        /* \"#utility.yul\":5446:5464   */\n      add\n        /* \"#utility.yul\":5438:5464   */\n      swap1\n      pop\n        /* \"#utility.yul\":5510:5519   */\n      dup2\n        /* \"#utility.yul\":5504:5508   */\n      dup2\n        /* \"#utility.yul\":5500:5520   */\n      sub\n        /* \"#utility.yul\":5496:5497   */\n      0x00\n        /* \"#utility.yul\":5485:5494   */\n      dup4\n        /* \"#utility.yul\":5481:5498   */\n      add\n        /* \"#utility.yul\":5474:5521   */\n      mstore\n        /* \"#utility.yul\":5538:5669   */\n      tag_264\n        /* \"#utility.yul\":5664:5668   */\n      dup2\n        /* \"#utility.yul\":5538:5669   */\n      tag_184\n      jump\t// in\n    tag_264:\n        /* \"#utility.yul\":5530:5669   */\n      swap1\n      pop\n        /* \"#utility.yul\":5257:5676   */\n      swap2\n      swap1\n      pop\n      jump\t// out\n        /* \"#utility.yul\":5682:5862   */\n    tag_185:\n        /* \"#utility.yul\":5730:5807   */\n      0x4e487b7100000000000000000000000000000000000000000000000000000000\n        /* \"#utility.yul\":5727:5728   */\n      0x00\n        /* \"#utility.yul\":5720:5808   */\n      mstore\n        /* \"#utility.yul\":5827:5831   */\n      0x11\n        /* \"#utility.yul\":5824:5825   */\n      0x04\n        /* \"#utility.yul\":5817:5832   */\n      mstore\n        /* \"#utility.yul\":5851:5855   */\n      0x24\n        /* \"#utility.yul\":5848:5849   */\n      0x00\n        /* \"#utility.yul\":5841:5856   */\n      revert\n        /* \"#utility.yul\":5868:6059   */\n    tag_100:\n        /* \"#utility.yul\":5908:5911   */\n      0x00\n        /* \"#utility.yul\":5927:5947   */\n      tag_267\n        /* \"#utility.yul\":5945:5946   */\n      dup3\n        /* \"#utility.yul\":5927:5947   */\n      tag_171\n      jump\t// in\n    tag_267:\n        /* \"#utility.yul\":5922:5947   */\n      swap2\n      pop\n        /* \"#utility.yul\":5961:5981   */\n      tag_268\n        /* \"#utility.yul\":5979:5980   */\n      dup4\n        /* \"#utility.yul\":5961:5981   */\n      tag_171\n      jump\t// in\n    tag_268:\n        /* \"#utility.yul\":5956:5981   */\n      swap3\n      pop\n        /* \"#utility.yul\":6004:6005   */\n      dup3\n        /* \"#utility.yul\":6001:6002   */\n      dup3\n        /* \"#utility.yul\":5997:6006   */\n      add\n        /* \"#utility.yul\":5990:6006   */\n      swap1\n      pop\n        /* \"#utility.yul\":6025:6028   */\n      dup1\n        /* \"#utility.yul\":6022:6023   */\n      dup3\n        /* \"#utility.yul\":6019:6029   */\n      gt\n        /* \"#utility.yul\":6016:6052   */\n      iszero\n      tag_269\n      jumpi\n        /* \"#utility.yul\":6032:6050   */\n      tag_270\n      tag_185\n      jump\t// in\n    tag_270:\n        /* \"#utility.yul\":6016:6052   */\n    tag_269:\n        /* \"#utility.yul\":5868:6059   */\n      swap3\n      swap2\n      pop\n      pop\n      jump\t// out\n        /* \"#utility.yul\":6065:6227   */\n    tag_186:\n        /* \"#utility.yul\":6205:6219   */\n      0x556e617574686f72697a65640000000000000000000000000000000000000000\n        /* \"#utility.yul\":6201:6202   */\n      0x00\n        /* \"#utility.yul\":6193:6199   */\n      dup3\n        /* \"#utility.yul\":6189:6203   */\n      add\n        /* \"#utility.yul\":6182:6220   */\n      mstore\n        /* \"#utility.yul\":6065:6227   */\n      pop\n      jump\t// out\n        /* \"#utility.yul\":6233:6599   */\n    tag_187:\n        /* \"#utility.yul\":6375:6378   */\n      0x00\n        /* \"#utility.yul\":6396:6463   */\n      tag_273\n        /* \"#utility.yul\":6460:6462   */\n      0x0c\n        /* \"#utility.yul\":6455:6458   */\n      dup4\n        /* \"#utility.yul\":6396:6463   */\n      tag_182\n      jump\t// in\n    tag_273:\n        /* \"#utility.yul\":6389:6463   */\n      swap2\n      pop\n        /* \"#utility.yul\":6472:6565   */\n      tag_274\n        /* \"#utility.yul\":6561:6564   */\n      dup3\n        /* \"#utility.yul\":6472:6565   */\n      tag_186\n      jump\t// in\n    tag_274:\n        /* \"#utility.yul\":6590:6592   */\n      0x20\n        /* \"#utility.yul\":6585:6588   */\n      dup3\n        /* \"#utility.yul\":6581:6593   */\n      add\n        /* \"#utility.yul\":6574:6593   */\n      swap1\n      pop\n        /* \"#utility.yul\":6233:6599   */\n      swap2\n      swap1\n      pop\n      jump\t// out\n        /* \"#utility.yul\":6605:7024   */\n    tag_107:\n        /* \"#utility.yul\":6771:6775   */\n      0x00\n        /* \"#utility.yul\":6809:6811   */\n      0x20\n        /* \"#utility.yul\":6798:6807   */\n      dup3\n        /* \"#utility.yul\":6794:6812   */\n      add\n        /* \"#utility.yul\":6786:6812   */\n      swap1\n      pop\n        /* \"#utility.yul\":6858:6867   */\n      dup2\n        /* \"#utility.yul\":6852:6856   */\n      dup2\n        /* \"#utility.yul\":6848:6868   */\n      sub\n        /* \"#utility.yul\":6844:6845   */\n      0x00\n        /* \"#utility.yul\":6833:6842   */\n      dup4\n        /* \"#utility.yul\":6829:6846   */\n      add\n        /* \"#utility.yul\":6822:6869   */\n      mstore\n        /* \"#utility.yul\":6886:7017   */\n      tag_276\n        /* \"#utility.yul\":7012:7016   */\n      dup2\n        /* \"#utility.yul\":6886:7017   */\n      tag_187\n      jump\t// in\n    tag_276:\n        /* \"#utility.yul\":6878:7017   */\n      swap1\n      pop\n        /* \"#utility.yul\":6605:7024   */\n      swap2\n      swap1\n      pop\n      jump\t// out\n        /* \"#utility.yul\":7030:7224   */\n    tag_109:\n        /* \"#utility.yul\":7070:7074   */\n      0x00\n        /* \"#utility.yul\":7090:7110   */\n      tag_278\n        /* \"#utility.yul\":7108:7109   */\n      dup3\n        /* \"#utility.yul\":7090:7110   */\n      tag_171\n      jump\t// in\n    tag_278:\n        /* \"#utility.yul\":7085:7110   */\n      swap2\n      pop\n        /* \"#utility.yul\":7124:7144   */\n      tag_279\n        /* \"#utility.yul\":7142:7143   */\n      dup4\n        /* \"#utility.yul\":7124:7144   */\n      tag_171\n      jump\t// in\n    tag_279:\n        /* \"#utility.yul\":7119:7144   */\n      swap3\n      pop\n        /* \"#utility.yul\":7168:7169   */\n      dup3\n        /* \"#utility.yul\":7165:7166   */\n      dup3\n        /* \"#utility.yul\":7161:7170   */\n      sub\n        /* \"#utility.yul\":7153:7170   */\n      swap1\n      pop\n        /* \"#utility.yul\":7192:7193   */\n      dup2\n        /* \"#utility.yul\":7186:7190   */\n      dup2\n        /* \"#utility.yul\":7183:7194   */\n      gt\n        /* \"#utility.yul\":7180:7217   */\n      iszero\n      tag_280\n      jumpi\n        /* \"#utility.yul\":7197:7215   */\n      tag_281\n      tag_185\n      jump\t// in\n    tag_281:\n        /* \"#utility.yul\":7180:7217   */\n    tag_280:\n        /* \"#utility.yul\":7030:7224   */\n      swap3\n      swap2\n      pop\n      pop\n      jump\t// out\n        /* \"#utility.yul\":7230:7401   */\n    tag_188:\n        /* \"#utility.yul\":7370:7393   */\n      0x496e76616c696420627579657220616464726573730000000000000000000000\n        /* \"#utility.yul\":7366:7367   */\n      0x00\n        /* \"#utility.yul\":7358:7364   */\n      dup3\n        /* \"#utility.yul\":7354:7368   */\n      add\n        /* \"#utility.yul\":7347:7394   */\n      mstore\n        /* \"#utility.yul\":7230:7401   */\n      pop\n      jump\t// out\n        /* \"#utility.yul\":7407:7773   */\n    tag_189:\n        /* \"#utility.yul\":7549:7552   */\n      0x00\n        /* \"#utility.yul\":7570:7637   */\n      tag_284\n        /* \"#utility.yul\":7634:7636   */\n      0x15\n        /* \"#utility.yul\":7629:7632   */\n      dup4\n        /* \"#utility.yul\":7570:7637   */\n      tag_182\n      jump\t// in\n    tag_284:\n        /* \"#utility.yul\":7563:7637   */\n      swap2\n      pop\n        /* \"#utility.yul\":7646:7739   */\n      tag_285\n        /* \"#utility.yul\":7735:7738   */\n      dup3\n        /* \"#utility.yul\":7646:7739   */\n      tag_188\n      jump\t// in\n    tag_285:\n        /* \"#utility.yul\":7764:7766   */\n      0x20\n        /* \"#utility.yul\":7759:7762   */\n      dup3\n        /* \"#utility.yul\":7755:7767   */\n      add\n        /* \"#utility.yul\":7748:7767   */\n      swap1\n      pop\n        /* \"#utility.yul\":7407:7773   */\n      swap2\n      swap1\n      pop\n      jump\t// out\n        /* \"#utility.yul\":7779:8198   */\n    tag_115:\n        /* \"#utility.yul\":7945:7949   */\n      0x00\n        /* \"#utility.yul\":7983:7985   */\n      0x20\n        /* \"#utility.yul\":7972:7981   */\n      dup3\n        /* \"#utility.yul\":7968:7986   */\n      add\n        /* \"#utility.yul\":7960:7986   */\n      swap1\n      pop\n        /* \"#utility.yul\":8032:8041   */\n      dup2\n        /* \"#utility.yul\":8026:8030   */\n      dup2\n        /* \"#utility.yul\":8022:8042   */\n      sub\n        /* \"#utility.yul\":8018:8019   */\n      0x00\n        /* \"#utility.yul\":8007:8016   */\n      dup4\n        /* \"#utility.yul\":8003:8020   */\n      add\n        /* \"#utility.yul\":7996:8043   */\n      mstore\n        /* \"#utility.yul\":8060:8191   */\n      tag_287\n        /* \"#utility.yul\":8186:8190   */\n      dup2\n        /* \"#utility.yul\":8060:8191   */\n      tag_189\n      jump\t// in\n    tag_287:\n        /* \"#utility.yul\":8052:8191   */\n      swap1\n      pop\n        /* \"#utility.yul\":7779:8198   */\n      swap2\n      swap1\n      pop\n      jump\t// out\n        /* \"#utility.yul\":8204:8382   */\n    tag_190:\n        /* \"#utility.yul\":8344:8374   */\n      0x5072696365206d7573742062652067726561746572207468616e203000000000\n        /* \"#utility.yul\":8340:8341   */\n      0x00\n        /* \"#utility.yul\":8332:8338   */\n      dup3\n        /* \"#utility.yul\":8328:8342   */\n      add\n        /* \"#utility.yul\":8321:8375   */\n      mstore\n        /* \"#utility.yul\":8204:8382   */\n      pop\n      jump\t// out\n        /* \"#utility.yul\":8388:8754   */\n    tag_191:\n        /* \"#utility.yul\":8530:8533   */\n      0x00\n        /* \"#utility.yul\":8551:8618   */\n      tag_290\n        /* \"#utility.yul\":8615:8617   */\n      0x1c\n        /* \"#utility.yul\":8610:8613   */\n      dup4\n        /* \"#utility.yul\":8551:8618   */\n      tag_182\n      jump\t// in\n    tag_290:\n        /* \"#utility.yul\":8544:8618   */\n      swap2\n      pop\n        /* \"#utility.yul\":8627:8720   */\n      tag_291\n        /* \"#utility.yul\":8716:8719   */\n      dup3\n        /* \"#utility.yul\":8627:8720   */\n      tag_190\n      jump\t// in\n    tag_291:\n        /* \"#utility.yul\":8745:8747   */\n      0x20\n        /* \"#utility.yul\":8740:8743   */\n      dup3\n        /* \"#utility.yul\":8736:8748   */\n      add\n        /* \"#utility.yul\":8729:8748   */\n      swap1\n      pop\n        /* \"#utility.yul\":8388:8754   */\n      swap2\n      swap1\n      pop\n      jump\t// out\n        /* \"#utility.yul\":8760:9179   */\n    tag_118:\n        /* \"#utility.yul\":8926:8930   */\n      0x00\n        /* \"#utility.yul\":8964:8966   */\n      0x20\n        /* \"#utility.yul\":8953:8962   */\n      dup3\n        /* \"#utility.yul\":8949:8967   */\n      add\n        /* \"#utility.yul\":8941:8967   */\n      swap1\n      pop\n        /* \"#utility.yul\":9013:9022   */\n      dup2\n        /* \"#utility.yul\":9007:9011   */\n      dup2\n        /* \"#utility.yul\":9003:9023   */\n      sub\n        /* \"#utility.yul\":8999:9000   */\n      0x00\n        /* \"#utility.yul\":8988:8997   */\n      dup4\n        /* \"#utility.yul\":8984:9001   */\n      add\n        /* \"#utility.yul\":8977:9024   */\n      mstore\n        /* \"#utility.yul\":9041:9172   */\n      tag_293\n        /* \"#utility.yul\":9167:9171   */\n      dup2\n        /* \"#utility.yul\":9041:9172   */\n      tag_191\n      jump\t// in\n    tag_293:\n        /* \"#utility.yul\":9033:9172   */\n      swap1\n      pop\n        /* \"#utility.yul\":8760:9179   */\n      swap2\n      swap1\n      pop\n      jump\t// out\n        /* \"#utility.yul\":9185:9355   */\n    tag_192:\n        /* \"#utility.yul\":9325:9347   */\n      0x496e73756666696369656e742062616c616e6365000000000000000000000000\n        /* \"#utility.yul\":9321:9322   */\n      0x00\n        /* \"#utility.yul\":9313:9319   */\n      dup3\n        /* \"#utility.yul\":9309:9323   */\n      add\n        /* \"#utility.yul\":9302:9348   */\n      mstore\n        /* \"#utility.yul\":9185:9355   */\n      pop\n      jump\t// out\n        /* \"#utility.yul\":9361:9727   */\n    tag_193:\n        /* \"#utility.yul\":9503:9506   */\n      0x00\n        /* \"#utility.yul\":9524:9591   */\n      tag_296\n        /* \"#utility.yul\":9588:9590   */\n      0x14\n        /* \"#utility.yul\":9583:9586   */\n      dup4\n        /* \"#utility.yul\":9524:9591   */\n      tag_182\n      jump\t// in\n    tag_296:\n        /* \"#utility.yul\":9517:9591   */\n      swap2\n      pop\n        /* \"#utility.yul\":9600:9693   */\n      tag_297\n        /* \"#utility.yul\":9689:9692   */\n      dup3\n        /* \"#utility.yul\":9600:9693   */\n      tag_192\n      jump\t// in\n    tag_297:\n        /* \"#utility.yul\":9718:9720   */\n      0x20\n        /* \"#utility.yul\":9713:9716   */\n      dup3\n        /* \"#utility.yul\":9709:9721   */\n      add\n        /* \"#utility.yul\":9702:9721   */\n      swap1\n      pop\n        /* \"#utility.yul\":9361:9727   */\n      swap2\n      swap1\n      pop\n      jump\t// out\n        /* \"#utility.yul\":9733:10152   */\n    tag_121:\n        /* \"#utility.yul\":9899:9903   */\n      0x00\n        /* \"#utility.yul\":9937:9939   */\n      0x20\n        /* \"#utility.yul\":9926:9935   */\n      dup3\n        /* \"#utility.yul\":9922:9940   */\n      add\n        /* \"#utility.yul\":9914:9940   */\n      swap1\n      pop\n        /* \"#utility.yul\":9986:9995   */\n      dup2\n        /* \"#utility.yul\":9980:9984   */\n      dup2\n        /* \"#utility.yul\":9976:9996   */\n      sub\n        /* \"#utility.yul\":9972:9973   */\n      0x00\n        /* \"#utility.yul\":9961:9970   */\n      dup4\n        /* \"#utility.yul\":9957:9974   */\n      add\n        /* \"#utility.yul\":9950:9997   */\n      mstore\n        /* \"#utility.yul\":10014:10145   */\n      tag_299\n        /* \"#utility.yul\":10140:10144   */\n      dup2\n        /* \"#utility.yul\":10014:10145   */\n      tag_193\n      jump\t// in\n    tag_299:\n        /* \"#utility.yul\":10006:10145   */\n      swap1\n      pop\n        /* \"#utility.yul\":9733:10152   */\n      swap2\n      swap1\n      pop\n      jump\t// out\n        /* \"#utility.yul\":10158:10490   */\n    tag_123:\n        /* \"#utility.yul\":10279:10283   */\n      0x00\n        /* \"#utility.yul\":10317:10319   */\n      0x40\n        /* \"#utility.yul\":10306:10315   */\n      dup3\n        /* \"#utility.yul\":10302:10320   */\n      add\n        /* \"#utility.yul\":10294:10320   */\n      swap1\n      pop\n        /* \"#utility.yul\":10330:10401   */\n      tag_301\n        /* \"#utility.yul\":10398:10399   */\n      0x00\n        /* \"#utility.yul\":10387:10396   */\n      dup4\n        /* \"#utility.yul\":10383:10400   */\n      add\n        /* \"#utility.yul\":10374:10380   */\n      dup6\n        /* \"#utility.yul\":10330:10401   */\n      tag_178\n      jump\t// in\n    tag_301:\n        /* \"#utility.yul\":10411:10483   */\n      tag_302\n        /* \"#utility.yul\":10479:10481   */\n      0x20\n        /* \"#utility.yul\":10468:10477   */\n      dup4\n        /* \"#utility.yul\":10464:10482   */\n      add\n        /* \"#utility.yul\":10455:10461   */\n      dup5\n        /* \"#utility.yul\":10411:10483   */\n      tag_178\n      jump\t// in\n    tag_302:\n        /* \"#utility.yul\":10158:10490   */\n      swap4\n      swap3\n      pop\n      pop\n      pop\n      jump\t// out\n        /* \"#utility.yul\":10496:10729   */\n    tag_125:\n        /* \"#utility.yul\":10535:10538   */\n      0x00\n        /* \"#utility.yul\":10558:10582   */\n      tag_304\n        /* \"#utility.yul\":10576:10581   */\n      dup3\n        /* \"#utility.yul\":10558:10582   */\n      tag_171\n      jump\t// in\n    tag_304:\n        /* \"#utility.yul\":10549:10582   */\n      swap2\n      pop\n        /* \"#utility.yul\":10604:10670   */\n      0xffffffffffffffffffffffffffffffffffffffffffffffffffffffffffffffff\n        /* \"#utility.yul\":10597:10602   */\n      dup3\n        /* \"#utility.yul\":10594:10671   */\n      sub\n        /* \"#utility.yul\":10591:10694   */\n      tag_305\n      jumpi\n        /* \"#utility.yul\":10674:10692   */\n      tag_306\n      tag_185\n      jump\t// in\n    tag_306:\n        /* \"#utility.yul\":10591:10694   */\n    tag_305:\n        /* \"#utility.yul\":10721:10722   */\n      0x01\n        /* \"#utility.yul\":10714:10719   */\n      dup3\n        /* \"#utility.yul\":10710:10723   */\n      add\n        /* \"#utility.yul\":10703:10723   */\n      swap1\n      pop\n        /* \"#utility.yul\":10496:10729   */\n      swap2\n      swap1\n      pop\n      jump\t// out\n        /* \"#utility.yul\":10735:10908   */\n    tag_194:\n        /* \"#utility.yul\":10875:10900   */\n      0x4163636f756e742062616c616e6365206973207a65726f000000000000000000\n        /* \"#utility.yul\":10871:10872   */\n      0x00\n        /* \"#utility.yul\":10863:10869   */\n      dup3\n        /* \"#utility.yul\":10859:10873   */\n      add\n        /* \"#utility.yul\":10852:10901   */\n      mstore\n        /* \"#utility.yul\":10735:10908   */\n      pop\n      jump\t// out\n        /* \"#utility.yul\":10914:11280   */\n    tag_195:\n        /* \"#utility.yul\":11056:11059   */\n      0x00\n        /* \"#utility.yul\":11077:11144   */\n      tag_309\n        /* \"#utility.yul\":11141:11143   */\n      0x17\n        /* \"#utility.yul\":11136:11139   */\n      dup4\n        /* \"#utility.yul\":11077:11144   */\n      tag_182\n      jump\t// in\n    tag_309:\n        /* \"#utility.yul\":11070:11144   */\n      swap2\n      pop\n        /* \"#utility.yul\":11153:11246   */\n      tag_310\n        /* \"#utility.yul\":11242:11245   */\n      dup3\n        /* \"#utility.yul\":11153:11246   */\n      tag_194\n      jump\t// in\n    tag_310:\n        /* \"#utility.yul\":11271:11273   */\n      0x20\n        /* \"#utility.yul\":11266:11269   */\n      dup3\n        /* \"#utility.yul\":11262:11274   */\n      add\n        /* \"#utility.yul\":11255:11274   */\n      swap1\n      pop\n        /* \"#utility.yul\":10914:11280   */\n      swap2\n      swap1\n      pop\n      jump\t// out\n        /* \"#utility.yul\":11286:11705   */\n    tag_129:\n        /* \"#utility.yul\":11452:11456   */\n      0x00\n        /* \"#utility.yul\":11490:11492   */\n      0x20\n        /* \"#utility.yul\":11479:11488   */\n      dup3\n        /* \"#utility.yul\":11475:11493   */\n      add\n        /* \"#utility.yul\":11467:11493   */\n      swap1\n      pop\n        /* \"#utility.yul\":11539:11548   */\n      dup2\n        /* \"#utility.yul\":11533:11537   */\n      dup2\n        /* \"#utility.yul\":11529:11549   */\n      sub\n        /* \"#utility.yul\":11525:11526   */\n      0x00\n        /* \"#utility.yul\":11514:11523   */\n      dup4\n        /* \"#utility.yul\":11510:11527   */\n      add\n        /* \"#utility.yul\":11503:11550   */\n      mstore\n        /* \"#utility.yul\":11567:11698   */\n      tag_312\n        /* \"#utility.yul\":11693:11697   */\n      dup2\n        /* \"#utility.yul\":11567:11698   */\n      tag_195\n      jump\t// in\n    tag_312:\n        /* \"#utility.yul\":11559:11698   */\n      swap1\n      pop\n        /* \"#utility.yul\":11286:11705   */\n      swap2\n      swap1\n      pop\n      jump\t// out\n        /* \"#utility.yul\":11711:11827   */\n    tag_196:\n        /* \"#utility.yul\":11781:11802   */\n      tag_314\n        /* \"#utility.yul\":11796:11801   */\n      dup2\n        /* \"#utility.yul\":11781:11802   */\n      tag_180\n      jump\t// in\n    tag_314:\n        /* \"#utility.yul\":11774:11779   */\n      dup2\n        /* \"#utility.yul\":11771:11803   */\n      eq\n        /* \"#utility.yul\":11761:11821   */\n      tag_315\n      jumpi\n        /* \"#utility.yul\":11817:11818   */\n      0x00\n        /* \"#utility.yul\":11814:11815   */\n      dup1\n        /* \"#utility.yul\":11807:11819   */\n      revert\n        /* \"#utility.yul\":11761:11821   */\n    tag_315:\n        /* \"#utility.yul\":11711:11827   */\n      pop\n      jump\t// out\n        /* \"#utility.yul\":11833:11970   */\n    tag_197:\n        /* \"#utility.yul\":11887:11892   */\n      0x00\n        /* \"#utility.yul\":11918:11924   */\n      dup2\n        /* \"#utility.yul\":11912:11925   */\n      mload\n        /* \"#utility.yul\":11903:11925   */\n      swap1\n      pop\n        /* \"#utility.yul\":11934:11964   */\n      tag_317\n        /* \"#utility.yul\":11958:11963   */\n      dup2\n        /* \"#utility.yul\":11934:11964   */\n      tag_196\n      jump\t// in\n    tag_317:\n        /* \"#utility.yul\":11833:11970   */\n      swap3\n      swap2\n      pop\n      pop\n      jump\t// out\n        /* \"#utility.yul\":11976:12321   */\n    tag_139:\n        /* \"#utility.yul\":12043:12049   */\n      0x00\n        /* \"#utility.yul\":12092:12094   */\n      0x20\n        /* \"#utility.yul\":12080:12089   */\n      dup3\n        /* \"#utility.yul\":12071:12078   */\n      dup5\n        /* \"#utility.yul\":12067:12090   */\n      sub\n        /* \"#utility.yul\":12063:12095   */\n      slt\n        /* \"#utility.yul\":12060:12179   */\n      iszero\n      tag_319\n      jumpi\n        /* \"#utility.yul\":12098:12177   */\n      tag_320\n      tag_169\n      jump\t// in\n    tag_320:\n        /* \"#utility.yul\":12060:12179   */\n    tag_319:\n        /* \"#utility.yul\":12218:12219   */\n      0x00\n        /* \"#utility.yul\":12243:12304   */\n      tag_321\n        /* \"#utility.yul\":12296:12303   */\n      dup5\n        /* \"#utility.yul\":12287:12293   */\n      dup3\n        /* \"#utility.yul\":12276:12285   */\n      dup6\n        /* \"#utility.yul\":12272:12294   */\n      add\n        /* \"#utility.yul\":12243:12304   */\n      tag_197\n      jump\t// in\n    tag_321:\n        /* \"#utility.yul\":12233:12304   */\n      swap2\n      pop\n        /* \"#utility.yul\":12189:12314   */\n      pop\n        /* \"#utility.yul\":11976:12321   */\n      swap3\n      swap2\n      pop\n      pop\n      jump\t// out\n        /* \"#utility.yul\":12327:12503   */\n    tag_198:\n        /* \"#utility.yul\":12467:12495   */\n      0x44657269766174697665206e6f74206578706972656420796574000000000000\n        /* \"#utility.yul\":12463:12464   */\n      0x00\n        /* \"#utility.yul\":12455:12461   */\n      dup3\n        /* \"#utility.yul\":12451:12465   */\n      add\n        /* \"#utility.yul\":12444:12496   */\n      mstore\n        /* \"#utility.yul\":12327:12503   */\n      pop\n      jump\t// out\n        /* \"#utility.yul\":12509:12875   */\n    tag_199:\n        /* \"#utility.yul\":12651:12654   */\n      0x00\n        /* \"#utility.yul\":12672:12739   */\n      tag_324\n        /* \"#utility.yul\":12736:12738   */\n      0x1a\n        /* \"#utility.yul\":12731:12734   */\n      dup4\n        /* \"#utility.yul\":12672:12739   */\n      tag_182\n      jump\t// in\n    tag_324:\n        /* \"#utility.yul\":12665:12739   */\n      swap2\n      pop\n        /* \"#utility.yul\":12748:12841   */\n      tag_325\n        /* \"#utility.yul\":12837:12840   */\n      dup3\n        /* \"#utility.yul\":12748:12841   */\n      tag_198\n      jump\t// in\n    tag_325:\n        /* \"#utility.yul\":12866:12868   */\n      0x20\n        /* \"#utility.yul\":12861:12864   */\n      dup3\n        /* \"#utility.yul\":12857:12869   */\n      add\n        /* \"#utility.yul\":12850:12869   */\n      swap1\n      pop\n        /* \"#utility.yul\":12509:12875   */\n      swap2\n      swap1\n      pop\n      jump\t// out\n        /* \"#utility.yul\":12881:13300   */\n    tag_142:\n        /* \"#utility.yul\":13047:13051   */\n      0x00\n        /* \"#utility.yul\":13085:13087   */\n      0x20\n        /* \"#utility.yul\":13074:13083   */\n      dup3\n        /* \"#utility.yul\":13070:13088   */\n      add\n        /* \"#utility.yul\":13062:13088   */\n      swap1\n      pop\n        /* \"#utility.yul\":13134:13143   */\n      dup2\n        /* \"#utility.yul\":13128:13132   */\n      dup2\n        /* \"#utility.yul\":13124:13144   */\n      sub\n        /* \"#utility.yul\":13120:13121   */\n      0x00\n        /* \"#utility.yul\":13109:13118   */\n      dup4\n        /* \"#utility.yul\":13105:13122   */\n      add\n        /* \"#utility.yul\":13098:13145   */\n      mstore\n        /* \"#utility.yul\":13162:13293   */\n      tag_327\n        /* \"#utility.yul\":13288:13292   */\n      dup2\n        /* \"#utility.yul\":13162:13293   */\n      tag_199\n      jump\t// in\n    tag_327:\n        /* \"#utility.yul\":13154:13293   */\n      swap1\n      pop\n        /* \"#utility.yul\":12881:13300   */\n      swap2\n      swap1\n      pop\n      jump\t// out\n        /* \"#utility.yul\":13306:13481   */\n    tag_200:\n        /* \"#utility.yul\":13446:13473   */\n      0x4465726976617469766520616c726561647920636c6f73656400000000000000\n        /* \"#utility.yul\":13442:13443   */\n      0x00\n        /* \"#utility.yul\":13434:13440   */\n      dup3\n        /* \"#utility.yul\":13430:13444   */\n      add\n        /* \"#utility.yul\":13423:13474   */\n      mstore\n        /* \"#utility.yul\":13306:13481   */\n      pop\n      jump\t// out\n        /* \"#utility.yul\":13487:13853   */\n    tag_201:\n        /* \"#utility.yul\":13629:13632   */\n      0x00\n        /* \"#utility.yul\":13650:13717   */\n      tag_330\n        /* \"#utility.yul\":13714:13716   */\n      0x19\n        /* \"#utility.yul\":13709:13712   */\n      dup4\n        /* \"#utility.yul\":13650:13717   */\n      tag_182\n      jump\t// in\n    tag_330:\n        /* \"#utility.yul\":13643:13717   */\n      swap2\n      pop\n        /* \"#utility.yul\":13726:13819   */\n      tag_331\n        /* \"#utility.yul\":13815:13818   */\n      dup3\n        /* \"#utility.yul\":13726:13819   */\n      tag_200\n      jump\t// in\n    tag_331:\n        /* \"#utility.yul\":13844:13846   */\n      0x20\n        /* \"#utility.yul\":13839:13842   */\n      dup3\n        /* \"#utility.yul\":13835:13847   */\n      add\n        /* \"#utility.yul\":13828:13847   */\n      swap1\n      pop\n        /* \"#utility.yul\":13487:13853   */\n      swap2\n      swap1\n      pop\n      jump\t// out\n        /* \"#utility.yul\":13859:14278   */\n    tag_145:\n        /* \"#utility.yul\":14025:14029   */\n      0x00\n        /* \"#utility.yul\":14063:14065   */\n      0x20\n        /* \"#utility.yul\":14052:14061   */\n      dup3\n        /* \"#utility.yul\":14048:14066   */\n      add\n        /* \"#utility.yul\":14040:14066   */\n      swap1\n      pop\n        /* \"#utility.yul\":14112:14121   */\n      dup2\n        /* \"#utility.yul\":14106:14110   */\n      dup2\n        /* \"#utility.yul\":14102:14122   */\n      sub\n        /* \"#utility.yul\":14098:14099   */\n      0x00\n        /* \"#utility.yul\":14087:14096   */\n      dup4\n        /* \"#utility.yul\":14083:14100   */\n      add\n        /* \"#utility.yul\":14076:14123   */\n      mstore\n        /* \"#utility.yul\":14140:14271   */\n      tag_333\n        /* \"#utility.yul\":14266:14270   */\n      dup2\n        /* \"#utility.yul\":14140:14271   */\n      tag_201\n      jump\t// in\n    tag_333:\n        /* \"#utility.yul\":14132:14271   */\n      swap1\n      pop\n        /* \"#utility.yul\":13859:14278   */\n      swap2\n      swap1\n      pop\n      jump\t// out\n        /* \"#utility.yul\":14284:14511   */\n    tag_202:\n        /* \"#utility.yul\":14424:14458   */\n      0x4465706f73697420616d6f756e74206d75737420626520677265617465722074\n        /* \"#utility.yul\":14420:14421   */\n      0x00\n        /* \"#utility.yul\":14412:14418   */\n      dup3\n        /* \"#utility.yul\":14408:14422   */\n      add\n        /* \"#utility.yul\":14401:14459   */\n      mstore\n        /* \"#utility.yul\":14493:14503   */\n      0x68616e207a65726f000000000000000000000000000000000000000000000000\n        /* \"#utility.yul\":14488:14490   */\n      0x20\n        /* \"#utility.yul\":14480:14486   */\n      dup3\n        /* \"#utility.yul\":14476:14491   */\n      add\n        /* \"#utility.yul\":14469:14504   */\n      mstore\n        /* \"#utility.yul\":14284:14511   */\n      pop\n      jump\t// out\n        /* \"#utility.yul\":14517:14883   */\n    tag_203:\n        /* \"#utility.yul\":14659:14662   */\n      0x00\n        /* \"#utility.yul\":14680:14747   */\n      tag_336\n        /* \"#utility.yul\":14744:14746   */\n      0x28\n        /* \"#utility.yul\":14739:14742   */\n      dup4\n        /* \"#utility.yul\":14680:14747   */\n      tag_182\n      jump\t// in\n    tag_336:\n        /* \"#utility.yul\":14673:14747   */\n      swap2\n      pop\n        /* \"#utility.yul\":14756:14849   */\n      tag_337\n        /* \"#utility.yul\":14845:14848   */\n      dup3\n        /* \"#utility.yul\":14756:14849   */\n      tag_202\n      jump\t// in\n    tag_337:\n        /* \"#utility.yul\":14874:14876   */\n      0x40\n        /* \"#utility.yul\":14869:14872   */\n      dup3\n        /* \"#utility.yul\":14865:14877   */\n      add\n        /* \"#utility.yul\":14858:14877   */\n      swap1\n      pop\n        /* \"#utility.yul\":14517:14883   */\n      swap2\n      swap1\n      pop\n      jump\t// out\n        /* \"#utility.yul\":14889:15308   */\n    tag_158:\n        /* \"#utility.yul\":15055:15059   */\n      0x00\n        /* \"#utility.yul\":15093:15095   */\n      0x20\n        /* \"#utility.yul\":15082:15091   */\n      dup3\n        /* \"#utility.yul\":15078:15096   */\n      add\n        /* \"#utility.yul\":15070:15096   */\n      swap1\n      pop\n        /* \"#utility.yul\":15142:15151   */\n      dup2\n        /* \"#utility.yul\":15136:15140   */\n      dup2\n        /* \"#utility.yul\":15132:15152   */\n      sub\n        /* \"#utility.yul\":15128:15129   */\n      0x00\n        /* \"#utility.yul\":15117:15126   */\n      dup4\n        /* \"#utility.yul\":15113:15130   */\n      add\n        /* \"#utility.yul\":15106:15153   */\n      mstore\n        /* \"#utility.yul\":15170:15301   */\n      tag_339\n        /* \"#utility.yul\":15296:15300   */\n      dup2\n        /* \"#utility.yul\":15170:15301   */\n      tag_203\n      jump\t// in\n    tag_339:\n        /* \"#utility.yul\":15162:15301   */\n      swap1\n      pop\n        /* \"#utility.yul\":14889:15308   */\n      swap2\n      swap1\n      pop\n      jump\t// out\n\n    auxdata: 0xa2646970667358221220cbbfb1ebe6935401f61aa29e11ab4507ef66bfd098c08e09d9bf5f3f0c42391b64736f6c63430008160033\n}\n",
				"bytecode": {
					"linkReferences": {},
					"object": "608060405234801561000f575f80fd5b50611a678061001d5f395ff3fe6080604052600436106100e7575f3560e01c8063ba8db95b11610089578063d9e80a4b11610058578063d9e80a4b146102f1578063e1cf47271461031b578063ec5c0b2d14610357578063fac3fa3d14610393576100e7565b8063ba8db95b1461022b578063c0046e391461026b578063cb4c1602146102ab578063d0e30db0146102e7576100e7565b806341cb3632116100c557806341cb363214610177578063756af45f1461019f578063793c3b60146101c757806383ef3b18146101ef576100e7565b8063035af668146100eb57806327e235e314610113578063331119cf1461014f575b5f80fd5b3480156100f6575f80fd5b50610111600480360381019061010c9190611304565b6103bd565b005b34801561011e575f80fd5b5061013960048036038101906101349190611389565b610618565b60405161014691906113c3565b60405180910390f35b34801561015a575f80fd5b50610175600480360381019061017091906113dc565b61062d565b005b348015610182575f80fd5b5061019d6004803603810190610198919061141a565b6107d5565b005b3480156101aa575f80fd5b506101c560048036038101906101c09190611389565b610ab2565b005b3480156101d2575f80fd5b506101ed60048036038101906101e89190611304565b610bbf565b005b3480156101fa575f80fd5b5061021560048036038101906102109190611304565b610ea9565b60405161022291906113c3565b60405180910390f35b348015610236575f80fd5b50610251600480360381019061024c9190611304565b610f09565b604051610262959493929190611493565b60405180910390f35b348015610276575f80fd5b50610291600480360381019061028c9190611304565b61102f565b6040516102a2959493929190611493565b60405180910390f35b3480156102b6575f80fd5b506102d160048036038101906102cc9190611304565b6110aa565b6040516102de91906114e4565b60405180910390f35b6102ef61110d565b005b3480156102fc575f80fd5b506103056111f2565b60405161031291906113c3565b60405180910390f35b348015610326575f80fd5b50610341600480360381019061033c9190611304565b6111fb565b60405161034e91906114e4565b60405180910390f35b348015610362575f80fd5b5061037d60048036038101906103789190611304565b611267565b60405161038a91906113c3565b60405180910390f35b34801561039e575f80fd5b506103a76112c7565b6040516103b491906113c3565b60405180910390f35b6001548110610401576040517f08c379a00000000000000000000000000000000000000000000000000000000081526004016103f890611557565b60405180910390fd5b3373ffffffffffffffffffffffffffffffffffffffff165f808381526020019081526020015f205f015f9054906101000a900473ffffffffffffffffffffffffffffffffffffffff1673ffffffffffffffffffffffffffffffffffffffff1614806104c957503373ffffffffffffffffffffffffffffffffffffffff165f808381526020019081526020015f206001015f9054906101000a900473ffffffffffffffffffffffffffffffffffffffff1673ffffffffffffffffffffffffffffffffffffffff16145b6104d1575f80fd5b5f808281526020019081526020015f206004015f9054906101000a900460ff166105bd575f808281526020019081526020015f206002015460025f3373ffffffffffffffffffffffffffffffffffffffff1673ffffffffffffffffffffffffffffffffffffffff1681526020019081526020015f205f82825461055491906115a2565b925050819055503373ffffffffffffffffffffffffffffffffffffffff167fe1fffcc4923d04b559f4d29a8bfc6cda04eb5b0d3c460751c2402c5c5cc9109c5f808481526020019081526020015f20600201546040516105b491906113c3565b60405180910390a25b60015f808381526020019081526020015f206004015f6101000a81548160ff021916908315150217905550807f5bd8d77591abd5ce6d29b95741c7c3fd3358f85e50b1dad6b39bb78aec074af860405160405180910390a250565b6002602052805f5260405f205f915090505481565b6001548210610671576040517f08c379a000000000000000000000000000000000000000000000000000000000815260040161066890611557565b60405180910390fd5b3373ffffffffffffffffffffffffffffffffffffffff165f808481526020019081526020015f205f015f9054906101000a900473ffffffffffffffffffffffffffffffffffffffff1673ffffffffffffffffffffffffffffffffffffffff1614610710576040517f08c379a00000000000000000000000000000000000000000000000000000000081526004016107079061161f565b60405180910390fd5b5f808381526020019081526020015f20600201548161072f919061163d565b60025f3373ffffffffffffffffffffffffffffffffffffffff1673ffffffffffffffffffffffffffffffffffffffff1681526020019081526020015f205f82825461077a91906115a2565b92505081905550805f808481526020019081526020015f2060020181905550817fbd3d83d3260757e7000523cd5587280932470792b2cee833142d3366358cef6c826040516107c991906113c3565b60405180910390a25050565b5f73ffffffffffffffffffffffffffffffffffffffff168373ffffffffffffffffffffffffffffffffffffffff1603610843576040517f08c379a000000000000000000000000000000000000000000000000000000000815260040161083a906116ba565b60405180910390fd5b5f8211610885576040517f08c379a000000000000000000000000000000000000000000000000000000000815260040161087c90611722565b60405180910390fd5b8160025f3373ffffffffffffffffffffffffffffffffffffffff1673ffffffffffffffffffffffffffffffffffffffff1681526020019081526020015f20541015610905576040517f08c379a00000000000000000000000000000000000000000000000000000000081526004016108fc9061178a565b60405180910390fd5b6040518060a001604052803373ffffffffffffffffffffffffffffffffffffffff1681526020018473ffffffffffffffffffffffffffffffffffffffff1681526020018381526020018281526020015f15158152505f8060015481526020019081526020015f205f820151815f015f6101000a81548173ffffffffffffffffffffffffffffffffffffffff021916908373ffffffffffffffffffffffffffffffffffffffff1602179055506020820151816001015f6101000a81548173ffffffffffffffffffffffffffffffffffffffff021916908373ffffffffffffffffffffffffffffffffffffffff16021790555060408201518160020155606082015181600301556080820151816004015f6101000a81548160ff0219169083151502179055509050508273ffffffffffffffffffffffffffffffffffffffff163373ffffffffffffffffffffffffffffffffffffffff166001547f25c0892f4e432a77fb0dba672d8e07c619b9b341e5785eb8300215a71d1fb2058585604051610a8e9291906117a8565b60405180910390a460015f815480929190610aa8906117cf565b9190505550505050565b5f60025f8373ffffffffffffffffffffffffffffffffffffffff1673ffffffffffffffffffffffffffffffffffffffff1681526020019081526020015f205490505f8111610b35576040517f08c379a0000000000000000000000000000000000000000000000000000000008152600401610b2c90611860565b60405180910390fd5b5f60025f8473ffffffffffffffffffffffffffffffffffffffff1673ffffffffffffffffffffffffffffffffffffffff1681526020019081526020015f20819055508173ffffffffffffffffffffffffffffffffffffffff166108fc8290811502906040515f60405180830381858888f19350505050158015610bba573d5f803e3d5ffd5b505050565b6001548110610c03576040517f08c379a0000000000000000000000000000000000000000000000000000000008152600401610bfa90611557565b60405180910390fd5b3073ffffffffffffffffffffffffffffffffffffffff1663cb4c1602826040518263ffffffff1660e01b8152600401610c3c91906113c3565b602060405180830381865afa158015610c57573d5f803e3d5ffd5b505050506040513d601f19601f82011682018060405250810190610c7b91906118a8565b610cba576040517f08c379a0000000000000000000000000000000000000000000000000000000008152600401610cb19061191d565b60405180910390fd5b5f15155f808381526020019081526020015f206004015f9054906101000a900460ff16151514610d1f576040517f08c379a0000000000000000000000000000000000000000000000000000000008152600401610d1690611985565b60405180910390fd5b5f808281526020019081526020015f206002015460025f805f8581526020019081526020015f205f015f9054906101000a900473ffffffffffffffffffffffffffffffffffffffff1673ffffffffffffffffffffffffffffffffffffffff1673ffffffffffffffffffffffffffffffffffffffff1681526020019081526020015f205f828254610daf91906115a2565b925050819055505f808281526020019081526020015f206002015460025f805f8581526020019081526020015f206001015f9054906101000a900473ffffffffffffffffffffffffffffffffffffffff1673ffffffffffffffffffffffffffffffffffffffff1673ffffffffffffffffffffffffffffffffffffffff1681526020019081526020015f205f828254610e47919061163d565b9250508190555060015f808381526020019081526020015f206004015f6101000a81548160ff021916908315150217905550807fe78a4937b81735499a64366d0e0d838e038ee57ad73e99aff592b0b502db88d860405160405180910390a250565b5f6001548210610eee576040517f08c379a0000000000000000000000000000000000000000000000000000000008152600401610ee590611557565b60405180910390fd5b5f808381526020019081526020015f20600301549050919050565b5f805f805f805f808881526020019081526020015f206040518060a00160405290815f82015f9054906101000a900473ffffffffffffffffffffffffffffffffffffffff1673ffffffffffffffffffffffffffffffffffffffff1673ffffffffffffffffffffffffffffffffffffffff168152602001600182015f9054906101000a900473ffffffffffffffffffffffffffffffffffffffff1673ffffffffffffffffffffffffffffffffffffffff1673ffffffffffffffffffffffffffffffffffffffff1681526020016002820154815260200160038201548152602001600482015f9054906101000a900460ff1615151515815250509050805f01518160200151826040015183606001518460800151955095509550955095505091939590929450565b5f602052805f5260405f205f91509050805f015f9054906101000a900473ffffffffffffffffffffffffffffffffffffffff1690806001015f9054906101000a900473ffffffffffffffffffffffffffffffffffffffff1690806002015490806003015490806004015f9054906101000a900460ff16905085565b5f60015482106110ef576040517f08c379a00000000000000000000000000000000000000000000000000000000081526004016110e690611557565b60405180910390fd5b5f808381526020019081526020015f20600301544210159050919050565b5f341161114f576040517f08c379a000000000000000000000000000000000000000000000000000000000815260040161114690611a13565b60405180910390fd5b3460025f3373ffffffffffffffffffffffffffffffffffffffff1673ffffffffffffffffffffffffffffffffffffffff1681526020019081526020015f205f82825461119b91906115a2565b925050819055503373ffffffffffffffffffffffffffffffffffffffff167fe1fffcc4923d04b559f4d29a8bfc6cda04eb5b0d3c460751c2402c5c5cc9109c346040516111e891906113c3565b60405180910390a2565b5f600154905090565b5f6001548210611240576040517f08c379a000000000000000000000000000000000000000000000000000000000815260040161123790611557565b60405180910390fd5b5f808381526020019081526020015f206004015f9054906101000a900460ff169050919050565b5f60015482106112ac576040517f08c379a00000000000000000000000000000000000000000000000000000000081526004016112a390611557565b60405180910390fd5b5f808381526020019081526020015f20600201549050919050565b60015481565b5f80fd5b5f819050919050565b6112e3816112d1565b81146112ed575f80fd5b50565b5f813590506112fe816112da565b92915050565b5f60208284031215611319576113186112cd565b5b5f611326848285016112f0565b91505092915050565b5f73ffffffffffffffffffffffffffffffffffffffff82169050919050565b5f6113588261132f565b9050919050565b6113688161134e565b8114611372575f80fd5b50565b5f813590506113838161135f565b92915050565b5f6020828403121561139e5761139d6112cd565b5b5f6113ab84828501611375565b91505092915050565b6113bd816112d1565b82525050565b5f6020820190506113d65f8301846113b4565b92915050565b5f80604083850312156113f2576113f16112cd565b5b5f6113ff858286016112f0565b9250506020611410858286016112f0565b9150509250929050565b5f805f60608486031215611431576114306112cd565b5b5f61143e86828701611375565b935050602061144f868287016112f0565b9250506040611460868287016112f0565b9150509250925092565b6114738161134e565b82525050565b5f8115159050919050565b61148d81611479565b82525050565b5f60a0820190506114a65f83018861146a565b6114b3602083018761146a565b6114c060408301866113b4565b6114cd60608301856113b4565b6114da6080830184611484565b9695505050505050565b5f6020820190506114f75f830184611484565b92915050565b5f82825260208201905092915050565b7f496e76616c6964206465726976617469766520494400000000000000000000005f82015250565b5f6115416015836114fd565b915061154c8261150d565b602082019050919050565b5f6020820190508181035f83015261156e81611535565b9050919050565b7f4e487b71000000000000000000000000000000000000000000000000000000005f52601160045260245ffd5b5f6115ac826112d1565b91506115b7836112d1565b92508282019050808211156115cf576115ce611575565b5b92915050565b7f556e617574686f72697a656400000000000000000000000000000000000000005f82015250565b5f611609600c836114fd565b9150611614826115d5565b602082019050919050565b5f6020820190508181035f830152611636816115fd565b9050919050565b5f611647826112d1565b9150611652836112d1565b925082820390508181111561166a57611669611575565b5b92915050565b7f496e76616c6964206275796572206164647265737300000000000000000000005f82015250565b5f6116a46015836114fd565b91506116af82611670565b602082019050919050565b5f6020820190508181035f8301526116d181611698565b9050919050565b7f5072696365206d7573742062652067726561746572207468616e2030000000005f82015250565b5f61170c601c836114fd565b9150611717826116d8565b602082019050919050565b5f6020820190508181035f83015261173981611700565b9050919050565b7f496e73756666696369656e742062616c616e63650000000000000000000000005f82015250565b5f6117746014836114fd565b915061177f82611740565b602082019050919050565b5f6020820190508181035f8301526117a181611768565b9050919050565b5f6040820190506117bb5f8301856113b4565b6117c860208301846113b4565b9392505050565b5f6117d9826112d1565b91507fffffffffffffffffffffffffffffffffffffffffffffffffffffffffffffffff820361180b5761180a611575565b5b600182019050919050565b7f4163636f756e742062616c616e6365206973207a65726f0000000000000000005f82015250565b5f61184a6017836114fd565b915061185582611816565b602082019050919050565b5f6020820190508181035f8301526118778161183e565b9050919050565b61188781611479565b8114611891575f80fd5b50565b5f815190506118a28161187e565b92915050565b5f602082840312156118bd576118bc6112cd565b5b5f6118ca84828501611894565b91505092915050565b7f44657269766174697665206e6f742065787069726564207965740000000000005f82015250565b5f611907601a836114fd565b9150611912826118d3565b602082019050919050565b5f6020820190508181035f830152611934816118fb565b9050919050565b7f4465726976617469766520616c726561647920636c6f736564000000000000005f82015250565b5f61196f6019836114fd565b915061197a8261193b565b602082019050919050565b5f6020820190508181035f83015261199c81611963565b9050919050565b7f4465706f73697420616d6f756e74206d757374206265206772656174657220745f8201527f68616e207a65726f000000000000000000000000000000000000000000000000602082015250565b5f6119fd6028836114fd565b9150611a08826119a3565b604082019050919050565b5f6020820190508181035f830152611a2a816119f1565b905091905056fea2646970667358221220cbbfb1ebe6935401f61aa29e11ab4507ef66bfd098c08e09d9bf5f3f0c42391b64736f6c63430008160033",
					"opcodes": "PUSH1 0x80 PUSH1 0x40 MSTORE CALLVALUE DUP1 ISZERO PUSH2 0xF JUMPI PUSH0 DUP1 REVERT JUMPDEST POP PUSH2 0x1A67 DUP1 PUSH2 0x1D PUSH0 CODECOPY PUSH0 RETURN INVALID PUSH1 0x80 PUSH1 0x40 MSTORE PUSH1 0x4 CALLDATASIZE LT PUSH2 0xE7 JUMPI PUSH0 CALLDATALOAD PUSH1 0xE0 SHR DUP1 PUSH4 0xBA8DB95B GT PUSH2 0x89 JUMPI DUP1 PUSH4 0xD9E80A4B GT PUSH2 0x58 JUMPI DUP1 PUSH4 0xD9E80A4B EQ PUSH2 0x2F1 JUMPI DUP1 PUSH4 0xE1CF4727 EQ PUSH2 0x31B JUMPI DUP1 PUSH4 0xEC5C0B2D EQ PUSH2 0x357 JUMPI DUP1 PUSH4 0xFAC3FA3D EQ PUSH2 0x393 JUMPI PUSH2 0xE7 JUMP JUMPDEST DUP1 PUSH4 0xBA8DB95B EQ PUSH2 0x22B JUMPI DUP1 PUSH4 0xC0046E39 EQ PUSH2 0x26B JUMPI DUP1 PUSH4 0xCB4C1602 EQ PUSH2 0x2AB JUMPI DUP1 PUSH4 0xD0E30DB0 EQ PUSH2 0x2E7 JUMPI PUSH2 0xE7 JUMP JUMPDEST DUP1 PUSH4 0x41CB3632 GT PUSH2 0xC5 JUMPI DUP1 PUSH4 0x41CB3632 EQ PUSH2 0x177 JUMPI DUP1 PUSH4 0x756AF45F EQ PUSH2 0x19F JUMPI DUP1 PUSH4 0x793C3B60 EQ PUSH2 0x1C7 JUMPI DUP1 PUSH4 0x83EF3B18 EQ PUSH2 0x1EF JUMPI PUSH2 0xE7 JUMP JUMPDEST DUP1 PUSH4 0x35AF668 EQ PUSH2 0xEB JUMPI DUP1 PUSH4 0x27E235E3 EQ PUSH2 0x113 JUMPI DUP1 PUSH4 0x331119CF EQ PUSH2 0x14F JUMPI JUMPDEST PUSH0 DUP1 REVERT JUMPDEST CALLVALUE DUP1 ISZERO PUSH2 0xF6 JUMPI PUSH0 DUP1 REVERT JUMPDEST POP PUSH2 0x111 PUSH1 0x4 DUP1 CALLDATASIZE SUB DUP2 ADD SWAP1 PUSH2 0x10C SWAP2 SWAP1 PUSH2 0x1304 JUMP JUMPDEST PUSH2 0x3BD JUMP JUMPDEST STOP JUMPDEST CALLVALUE DUP1 ISZERO PUSH2 0x11E JUMPI PUSH0 DUP1 REVERT JUMPDEST POP PUSH2 0x139 PUSH1 0x4 DUP1 CALLDATASIZE SUB DUP2 ADD SWAP1 PUSH2 0x134 SWAP2 SWAP1 PUSH2 0x1389 JUMP JUMPDEST PUSH2 0x618 JUMP JUMPDEST PUSH1 0x40 MLOAD PUSH2 0x146 SWAP2 SWAP1 PUSH2 0x13C3 JUMP JUMPDEST PUSH1 0x40 MLOAD DUP1 SWAP2 SUB SWAP1 RETURN JUMPDEST CALLVALUE DUP1 ISZERO PUSH2 0x15A JUMPI PUSH0 DUP1 REVERT JUMPDEST POP PUSH2 0x175 PUSH1 0x4 DUP1 CALLDATASIZE SUB DUP2 ADD SWAP1 PUSH2 0x170 SWAP2 SWAP1 PUSH2 0x13DC JUMP JUMPDEST PUSH2 0x62D JUMP JUMPDEST STOP JUMPDEST CALLVALUE DUP1 ISZERO PUSH2 0x182 JUMPI PUSH0 DUP1 REVERT JUMPDEST POP PUSH2 0x19D PUSH1 0x4 DUP1 CALLDATASIZE SUB DUP2 ADD SWAP1 PUSH2 0x198 SWAP2 SWAP1 PUSH2 0x141A JUMP JUMPDEST PUSH2 0x7D5 JUMP JUMPDEST STOP JUMPDEST CALLVALUE DUP1 ISZERO PUSH2 0x1AA JUMPI PUSH0 DUP1 REVERT JUMPDEST POP PUSH2 0x1C5 PUSH1 0x4 DUP1 CALLDATASIZE SUB DUP2 ADD SWAP1 PUSH2 0x1C0 SWAP2 SWAP1 PUSH2 0x1389 JUMP JUMPDEST PUSH2 0xAB2 JUMP JUMPDEST STOP JUMPDEST CALLVALUE DUP1 ISZERO PUSH2 0x1D2 JUMPI PUSH0 DUP1 REVERT JUMPDEST POP PUSH2 0x1ED PUSH1 0x4 DUP1 CALLDATASIZE SUB DUP2 ADD SWAP1 PUSH2 0x1E8 SWAP2 SWAP1 PUSH2 0x1304 JUMP JUMPDEST PUSH2 0xBBF JUMP JUMPDEST STOP JUMPDEST CALLVALUE DUP1 ISZERO PUSH2 0x1FA JUMPI PUSH0 DUP1 REVERT JUMPDEST POP PUSH2 0x215 PUSH1 0x4 DUP1 CALLDATASIZE SUB DUP2 ADD SWAP1 PUSH2 0x210 SWAP2 SWAP1 PUSH2 0x1304 JUMP JUMPDEST PUSH2 0xEA9 JUMP JUMPDEST PUSH1 0x40 MLOAD PUSH2 0x222 SWAP2 SWAP1 PUSH2 0x13C3 JUMP JUMPDEST PUSH1 0x40 MLOAD DUP1 SWAP2 SUB SWAP1 RETURN JUMPDEST CALLVALUE DUP1 ISZERO PUSH2 0x236 JUMPI PUSH0 DUP1 REVERT JUMPDEST POP PUSH2 0x251 PUSH1 0x4 DUP1 CALLDATASIZE SUB DUP2 ADD SWAP1 PUSH2 0x24C SWAP2 SWAP1 PUSH2 0x1304 JUMP JUMPDEST PUSH2 0xF09 JUMP JUMPDEST PUSH1 0x40 MLOAD PUSH2 0x262 SWAP6 SWAP5 SWAP4 SWAP3 SWAP2 SWAP1 PUSH2 0x1493 JUMP JUMPDEST PUSH1 0x40 MLOAD DUP1 SWAP2 SUB SWAP1 RETURN JUMPDEST CALLVALUE DUP1 ISZERO PUSH2 0x276 JUMPI PUSH0 DUP1 REVERT JUMPDEST POP PUSH2 0x291 PUSH1 0x4 DUP1 CALLDATASIZE SUB DUP2 ADD SWAP1 PUSH2 0x28C SWAP2 SWAP1 PUSH2 0x1304 JUMP JUMPDEST PUSH2 0x102F JUMP JUMPDEST PUSH1 0x40 MLOAD PUSH2 0x2A2 SWAP6 SWAP5 SWAP4 SWAP3 SWAP2 SWAP1 PUSH2 0x1493 JUMP JUMPDEST PUSH1 0x40 MLOAD DUP1 SWAP2 SUB SWAP1 RETURN JUMPDEST CALLVALUE DUP1 ISZERO PUSH2 0x2B6 JUMPI PUSH0 DUP1 REVERT JUMPDEST POP PUSH2 0x2D1 PUSH1 0x4 DUP1 CALLDATASIZE SUB DUP2 ADD SWAP1 PUSH2 0x2CC SWAP2 SWAP1 PUSH2 0x1304 JUMP JUMPDEST PUSH2 0x10AA JUMP JUMPDEST PUSH1 0x40 MLOAD PUSH2 0x2DE SWAP2 SWAP1 PUSH2 0x14E4 JUMP JUMPDEST PUSH1 0x40 MLOAD DUP1 SWAP2 SUB SWAP1 RETURN JUMPDEST PUSH2 0x2EF PUSH2 0x110D JUMP JUMPDEST STOP JUMPDEST CALLVALUE DUP1 ISZERO PUSH2 0x2FC JUMPI PUSH0 DUP1 REVERT JUMPDEST POP PUSH2 0x305 PUSH2 0x11F2 JUMP JUMPDEST PUSH1 0x40 MLOAD PUSH2 0x312 SWAP2 SWAP1 PUSH2 0x13C3 JUMP JUMPDEST PUSH1 0x40 MLOAD DUP1 SWAP2 SUB SWAP1 RETURN JUMPDEST CALLVALUE DUP1 ISZERO PUSH2 0x326 JUMPI PUSH0 DUP1 REVERT JUMPDEST POP PUSH2 0x341 PUSH1 0x4 DUP1 CALLDATASIZE SUB DUP2 ADD SWAP1 PUSH2 0x33C SWAP2 SWAP1 PUSH2 0x1304 JUMP JUMPDEST PUSH2 0x11FB JUMP JUMPDEST PUSH1 0x40 MLOAD PUSH2 0x34E SWAP2 SWAP1 PUSH2 0x14E4 JUMP JUMPDEST PUSH1 0x40 MLOAD DUP1 SWAP2 SUB SWAP1 RETURN JUMPDEST CALLVALUE DUP1 ISZERO PUSH2 0x362 JUMPI PUSH0 DUP1 REVERT JUMPDEST POP PUSH2 0x37D PUSH1 0x4 DUP1 CALLDATASIZE SUB DUP2 ADD SWAP1 PUSH2 0x378 SWAP2 SWAP1 PUSH2 0x1304 JUMP JUMPDEST PUSH2 0x1267 JUMP JUMPDEST PUSH1 0x40 MLOAD PUSH2 0x38A SWAP2 SWAP1 PUSH2 0x13C3 JUMP JUMPDEST PUSH1 0x40 MLOAD DUP1 SWAP2 SUB SWAP1 RETURN JUMPDEST CALLVALUE DUP1 ISZERO PUSH2 0x39E JUMPI PUSH0 DUP1 REVERT JUMPDEST POP PUSH2 0x3A7 PUSH2 0x12C7 JUMP JUMPDEST PUSH1 0x40 MLOAD PUSH2 0x3B4 SWAP2 SWAP1 PUSH2 0x13C3 JUMP JUMPDEST PUSH1 0x40 MLOAD DUP1 SWAP2 SUB SWAP1 RETURN JUMPDEST PUSH1 0x1 SLOAD DUP2 LT PUSH2 0x401 JUMPI PUSH1 0x40 MLOAD PUSH32 0x8C379A000000000000000000000000000000000000000000000000000000000 DUP2 MSTORE PUSH1 0x4 ADD PUSH2 0x3F8 SWAP1 PUSH2 0x1557 JUMP JUMPDEST PUSH1 0x40 MLOAD DUP1 SWAP2 SUB SWAP1 REVERT JUMPDEST CALLER PUSH20 0xFFFFFFFFFFFFFFFFFFFFFFFFFFFFFFFFFFFFFFFF AND PUSH0 DUP1 DUP4 DUP2 MSTORE PUSH1 0x20 ADD SWAP1 DUP2 MSTORE PUSH1 0x20 ADD PUSH0 KECCAK256 PUSH0 ADD PUSH0 SWAP1 SLOAD SWAP1 PUSH2 0x100 EXP SWAP1 DIV PUSH20 0xFFFFFFFFFFFFFFFFFFFFFFFFFFFFFFFFFFFFFFFF AND PUSH20 0xFFFFFFFFFFFFFFFFFFFFFFFFFFFFFFFFFFFFFFFF AND EQ DUP1 PUSH2 0x4C9 JUMPI POP CALLER PUSH20 0xFFFFFFFFFFFFFFFFFFFFFFFFFFFFFFFFFFFFFFFF AND PUSH0 DUP1 DUP4 DUP2 MSTORE PUSH1 0x20 ADD SWAP1 DUP2 MSTORE PUSH1 0x20 ADD PUSH0 KECCAK256 PUSH1 0x1 ADD PUSH0 SWAP1 SLOAD SWAP1 PUSH2 0x100 EXP SWAP1 DIV PUSH20 0xFFFFFFFFFFFFFFFFFFFFFFFFFFFFFFFFFFFFFFFF AND PUSH20 0xFFFFFFFFFFFFFFFFFFFFFFFFFFFFFFFFFFFFFFFF AND EQ JUMPDEST PUSH2 0x4D1 JUMPI PUSH0 DUP1 REVERT JUMPDEST PUSH0 DUP1 DUP3 DUP2 MSTORE PUSH1 0x20 ADD SWAP1 DUP2 MSTORE PUSH1 0x20 ADD PUSH0 KECCAK256 PUSH1 0x4 ADD PUSH0 SWAP1 SLOAD SWAP1 PUSH2 0x100 EXP SWAP1 DIV PUSH1 0xFF AND PUSH2 0x5BD JUMPI PUSH0 DUP1 DUP3 DUP2 MSTORE PUSH1 0x20 ADD SWAP1 DUP2 MSTORE PUSH1 0x20 ADD PUSH0 KECCAK256 PUSH1 0x2 ADD SLOAD PUSH1 0x2 PUSH0 CALLER PUSH20 0xFFFFFFFFFFFFFFFFFFFFFFFFFFFFFFFFFFFFFFFF AND PUSH20 0xFFFFFFFFFFFFFFFFFFFFFFFFFFFFFFFFFFFFFFFF AND DUP2 MSTORE PUSH1 0x20 ADD SWAP1 DUP2 MSTORE PUSH1 0x20 ADD PUSH0 KECCAK256 PUSH0 DUP3 DUP3 SLOAD PUSH2 0x554 SWAP2 SWAP1 PUSH2 0x15A2 JUMP JUMPDEST SWAP3 POP POP DUP2 SWAP1 SSTORE POP CALLER PUSH20 0xFFFFFFFFFFFFFFFFFFFFFFFFFFFFFFFFFFFFFFFF AND PUSH32 0xE1FFFCC4923D04B559F4D29A8BFC6CDA04EB5B0D3C460751C2402C5C5CC9109C PUSH0 DUP1 DUP5 DUP2 MSTORE PUSH1 0x20 ADD SWAP1 DUP2 MSTORE PUSH1 0x20 ADD PUSH0 KECCAK256 PUSH1 0x2 ADD SLOAD PUSH1 0x40 MLOAD PUSH2 0x5B4 SWAP2 SWAP1 PUSH2 0x13C3 JUMP JUMPDEST PUSH1 0x40 MLOAD DUP1 SWAP2 SUB SWAP1 LOG2 JUMPDEST PUSH1 0x1 PUSH0 DUP1 DUP4 DUP2 MSTORE PUSH1 0x20 ADD SWAP1 DUP2 MSTORE PUSH1 0x20 ADD PUSH0 KECCAK256 PUSH1 0x4 ADD PUSH0 PUSH2 0x100 EXP DUP2 SLOAD DUP2 PUSH1 0xFF MUL NOT AND SWAP1 DUP4 ISZERO ISZERO MUL OR SWAP1 SSTORE POP DUP1 PUSH32 0x5BD8D77591ABD5CE6D29B95741C7C3FD3358F85E50B1DAD6B39BB78AEC074AF8 PUSH1 0x40 MLOAD PUSH1 0x40 MLOAD DUP1 SWAP2 SUB SWAP1 LOG2 POP JUMP JUMPDEST PUSH1 0x2 PUSH1 0x20 MSTORE DUP1 PUSH0 MSTORE PUSH1 0x40 PUSH0 KECCAK256 PUSH0 SWAP2 POP SWAP1 POP SLOAD DUP2 JUMP JUMPDEST PUSH1 0x1 SLOAD DUP3 LT PUSH2 0x671 JUMPI PUSH1 0x40 MLOAD PUSH32 0x8C379A000000000000000000000000000000000000000000000000000000000 DUP2 MSTORE PUSH1 0x4 ADD PUSH2 0x668 SWAP1 PUSH2 0x1557 JUMP JUMPDEST PUSH1 0x40 MLOAD DUP1 SWAP2 SUB SWAP1 REVERT JUMPDEST CALLER PUSH20 0xFFFFFFFFFFFFFFFFFFFFFFFFFFFFFFFFFFFFFFFF AND PUSH0 DUP1 DUP5 DUP2 MSTORE PUSH1 0x20 ADD SWAP1 DUP2 MSTORE PUSH1 0x20 ADD PUSH0 KECCAK256 PUSH0 ADD PUSH0 SWAP1 SLOAD SWAP1 PUSH2 0x100 EXP SWAP1 DIV PUSH20 0xFFFFFFFFFFFFFFFFFFFFFFFFFFFFFFFFFFFFFFFF AND PUSH20 0xFFFFFFFFFFFFFFFFFFFFFFFFFFFFFFFFFFFFFFFF AND EQ PUSH2 0x710 JUMPI PUSH1 0x40 MLOAD PUSH32 0x8C379A000000000000000000000000000000000000000000000000000000000 DUP2 MSTORE PUSH1 0x4 ADD PUSH2 0x707 SWAP1 PUSH2 0x161F JUMP JUMPDEST PUSH1 0x40 MLOAD DUP1 SWAP2 SUB SWAP1 REVERT JUMPDEST PUSH0 DUP1 DUP4 DUP2 MSTORE PUSH1 0x20 ADD SWAP1 DUP2 MSTORE PUSH1 0x20 ADD PUSH0 KECCAK256 PUSH1 0x2 ADD SLOAD DUP2 PUSH2 0x72F SWAP2 SWAP1 PUSH2 0x163D JUMP JUMPDEST PUSH1 0x2 PUSH0 CALLER PUSH20 0xFFFFFFFFFFFFFFFFFFFFFFFFFFFFFFFFFFFFFFFF AND PUSH20 0xFFFFFFFFFFFFFFFFFFFFFFFFFFFFFFFFFFFFFFFF AND DUP2 MSTORE PUSH1 0x20 ADD SWAP1 DUP2 MSTORE PUSH1 0x20 ADD PUSH0 KECCAK256 PUSH0 DUP3 DUP3 SLOAD PUSH2 0x77A SWAP2 SWAP1 PUSH2 0x15A2 JUMP JUMPDEST SWAP3 POP POP DUP2 SWAP1 SSTORE POP DUP1 PUSH0 DUP1 DUP5 DUP2 MSTORE PUSH1 0x20 ADD SWAP1 DUP2 MSTORE PUSH1 0x20 ADD PUSH0 KECCAK256 PUSH1 0x2 ADD DUP2 SWAP1 SSTORE POP DUP2 PUSH32 0xBD3D83D3260757E7000523CD5587280932470792B2CEE833142D3366358CEF6C DUP3 PUSH1 0x40 MLOAD PUSH2 0x7C9 SWAP2 SWAP1 PUSH2 0x13C3 JUMP JUMPDEST PUSH1 0x40 MLOAD DUP1 SWAP2 SUB SWAP1 LOG2 POP POP JUMP JUMPDEST PUSH0 PUSH20 0xFFFFFFFFFFFFFFFFFFFFFFFFFFFFFFFFFFFFFFFF AND DUP4 PUSH20 0xFFFFFFFFFFFFFFFFFFFFFFFFFFFFFFFFFFFFFFFF AND SUB PUSH2 0x843 JUMPI PUSH1 0x40 MLOAD PUSH32 0x8C379A000000000000000000000000000000000000000000000000000000000 DUP2 MSTORE PUSH1 0x4 ADD PUSH2 0x83A SWAP1 PUSH2 0x16BA JUMP JUMPDEST PUSH1 0x40 MLOAD DUP1 SWAP2 SUB SWAP1 REVERT JUMPDEST PUSH0 DUP3 GT PUSH2 0x885 JUMPI PUSH1 0x40 MLOAD PUSH32 0x8C379A000000000000000000000000000000000000000000000000000000000 DUP2 MSTORE PUSH1 0x4 ADD PUSH2 0x87C SWAP1 PUSH2 0x1722 JUMP JUMPDEST PUSH1 0x40 MLOAD DUP1 SWAP2 SUB SWAP1 REVERT JUMPDEST DUP2 PUSH1 0x2 PUSH0 CALLER PUSH20 0xFFFFFFFFFFFFFFFFFFFFFFFFFFFFFFFFFFFFFFFF AND PUSH20 0xFFFFFFFFFFFFFFFFFFFFFFFFFFFFFFFFFFFFFFFF AND DUP2 MSTORE PUSH1 0x20 ADD SWAP1 DUP2 MSTORE PUSH1 0x20 ADD PUSH0 KECCAK256 SLOAD LT ISZERO PUSH2 0x905 JUMPI PUSH1 0x40 MLOAD PUSH32 0x8C379A000000000000000000000000000000000000000000000000000000000 DUP2 MSTORE PUSH1 0x4 ADD PUSH2 0x8FC SWAP1 PUSH2 0x178A JUMP JUMPDEST PUSH1 0x40 MLOAD DUP1 SWAP2 SUB SWAP1 REVERT JUMPDEST PUSH1 0x40 MLOAD DUP1 PUSH1 0xA0 ADD PUSH1 0x40 MSTORE DUP1 CALLER PUSH20 0xFFFFFFFFFFFFFFFFFFFFFFFFFFFFFFFFFFFFFFFF AND DUP2 MSTORE PUSH1 0x20 ADD DUP5 PUSH20 0xFFFFFFFFFFFFFFFFFFFFFFFFFFFFFFFFFFFFFFFF AND DUP2 MSTORE PUSH1 0x20 ADD DUP4 DUP2 MSTORE PUSH1 0x20 ADD DUP3 DUP2 MSTORE PUSH1 0x20 ADD PUSH0 ISZERO ISZERO DUP2 MSTORE POP PUSH0 DUP1 PUSH1 0x1 SLOAD DUP2 MSTORE PUSH1 0x20 ADD SWAP1 DUP2 MSTORE PUSH1 0x20 ADD PUSH0 KECCAK256 PUSH0 DUP3 ADD MLOAD DUP2 PUSH0 ADD PUSH0 PUSH2 0x100 EXP DUP2 SLOAD DUP2 PUSH20 0xFFFFFFFFFFFFFFFFFFFFFFFFFFFFFFFFFFFFFFFF MUL NOT AND SWAP1 DUP4 PUSH20 0xFFFFFFFFFFFFFFFFFFFFFFFFFFFFFFFFFFFFFFFF AND MUL OR SWAP1 SSTORE POP PUSH1 0x20 DUP3 ADD MLOAD DUP2 PUSH1 0x1 ADD PUSH0 PUSH2 0x100 EXP DUP2 SLOAD DUP2 PUSH20 0xFFFFFFFFFFFFFFFFFFFFFFFFFFFFFFFFFFFFFFFF MUL NOT AND SWAP1 DUP4 PUSH20 0xFFFFFFFFFFFFFFFFFFFFFFFFFFFFFFFFFFFFFFFF AND MUL OR SWAP1 SSTORE POP PUSH1 0x40 DUP3 ADD MLOAD DUP2 PUSH1 0x2 ADD SSTORE PUSH1 0x60 DUP3 ADD MLOAD DUP2 PUSH1 0x3 ADD SSTORE PUSH1 0x80 DUP3 ADD MLOAD DUP2 PUSH1 0x4 ADD PUSH0 PUSH2 0x100 EXP DUP2 SLOAD DUP2 PUSH1 0xFF MUL NOT AND SWAP1 DUP4 ISZERO ISZERO MUL OR SWAP1 SSTORE POP SWAP1 POP POP DUP3 PUSH20 0xFFFFFFFFFFFFFFFFFFFFFFFFFFFFFFFFFFFFFFFF AND CALLER PUSH20 0xFFFFFFFFFFFFFFFFFFFFFFFFFFFFFFFFFFFFFFFF AND PUSH1 0x1 SLOAD PUSH32 0x25C0892F4E432A77FB0DBA672D8E07C619B9B341E5785EB8300215A71D1FB205 DUP6 DUP6 PUSH1 0x40 MLOAD PUSH2 0xA8E SWAP3 SWAP2 SWAP1 PUSH2 0x17A8 JUMP JUMPDEST PUSH1 0x40 MLOAD DUP1 SWAP2 SUB SWAP1 LOG4 PUSH1 0x1 PUSH0 DUP2 SLOAD DUP1 SWAP3 SWAP2 SWAP1 PUSH2 0xAA8 SWAP1 PUSH2 0x17CF JUMP JUMPDEST SWAP2 SWAP1 POP SSTORE POP POP POP POP JUMP JUMPDEST PUSH0 PUSH1 0x2 PUSH0 DUP4 PUSH20 0xFFFFFFFFFFFFFFFFFFFFFFFFFFFFFFFFFFFFFFFF AND PUSH20 0xFFFFFFFFFFFFFFFFFFFFFFFFFFFFFFFFFFFFFFFF AND DUP2 MSTORE PUSH1 0x20 ADD SWAP1 DUP2 MSTORE PUSH1 0x20 ADD PUSH0 KECCAK256 SLOAD SWAP1 POP PUSH0 DUP2 GT PUSH2 0xB35 JUMPI PUSH1 0x40 MLOAD PUSH32 0x8C379A000000000000000000000000000000000000000000000000000000000 DUP2 MSTORE PUSH1 0x4 ADD PUSH2 0xB2C SWAP1 PUSH2 0x1860 JUMP JUMPDEST PUSH1 0x40 MLOAD DUP1 SWAP2 SUB SWAP1 REVERT JUMPDEST PUSH0 PUSH1 0x2 PUSH0 DUP5 PUSH20 0xFFFFFFFFFFFFFFFFFFFFFFFFFFFFFFFFFFFFFFFF AND PUSH20 0xFFFFFFFFFFFFFFFFFFFFFFFFFFFFFFFFFFFFFFFF AND DUP2 MSTORE PUSH1 0x20 ADD SWAP1 DUP2 MSTORE PUSH1 0x20 ADD PUSH0 KECCAK256 DUP2 SWAP1 SSTORE POP DUP2 PUSH20 0xFFFFFFFFFFFFFFFFFFFFFFFFFFFFFFFFFFFFFFFF AND PUSH2 0x8FC DUP3 SWAP1 DUP2 ISZERO MUL SWAP1 PUSH1 0x40 MLOAD PUSH0 PUSH1 0x40 MLOAD DUP1 DUP4 SUB DUP2 DUP6 DUP9 DUP9 CALL SWAP4 POP POP POP POP ISZERO DUP1 ISZERO PUSH2 0xBBA JUMPI RETURNDATASIZE PUSH0 DUP1 RETURNDATACOPY RETURNDATASIZE PUSH0 REVERT JUMPDEST POP POP POP JUMP JUMPDEST PUSH1 0x1 SLOAD DUP2 LT PUSH2 0xC03 JUMPI PUSH1 0x40 MLOAD PUSH32 0x8C379A000000000000000000000000000000000000000000000000000000000 DUP2 MSTORE PUSH1 0x4 ADD PUSH2 0xBFA SWAP1 PUSH2 0x1557 JUMP JUMPDEST PUSH1 0x40 MLOAD DUP1 SWAP2 SUB SWAP1 REVERT JUMPDEST ADDRESS PUSH20 0xFFFFFFFFFFFFFFFFFFFFFFFFFFFFFFFFFFFFFFFF AND PUSH4 0xCB4C1602 DUP3 PUSH1 0x40 MLOAD DUP3 PUSH4 0xFFFFFFFF AND PUSH1 0xE0 SHL DUP2 MSTORE PUSH1 0x4 ADD PUSH2 0xC3C SWAP2 SWAP1 PUSH2 0x13C3 JUMP JUMPDEST PUSH1 0x20 PUSH1 0x40 MLOAD DUP1 DUP4 SUB DUP2 DUP7 GAS STATICCALL ISZERO DUP1 ISZERO PUSH2 0xC57 JUMPI RETURNDATASIZE PUSH0 DUP1 RETURNDATACOPY RETURNDATASIZE PUSH0 REVERT JUMPDEST POP POP POP POP PUSH1 0x40 MLOAD RETURNDATASIZE PUSH1 0x1F NOT PUSH1 0x1F DUP3 ADD AND DUP3 ADD DUP1 PUSH1 0x40 MSTORE POP DUP2 ADD SWAP1 PUSH2 0xC7B SWAP2 SWAP1 PUSH2 0x18A8 JUMP JUMPDEST PUSH2 0xCBA JUMPI PUSH1 0x40 MLOAD PUSH32 0x8C379A000000000000000000000000000000000000000000000000000000000 DUP2 MSTORE PUSH1 0x4 ADD PUSH2 0xCB1 SWAP1 PUSH2 0x191D JUMP JUMPDEST PUSH1 0x40 MLOAD DUP1 SWAP2 SUB SWAP1 REVERT JUMPDEST PUSH0 ISZERO ISZERO PUSH0 DUP1 DUP4 DUP2 MSTORE PUSH1 0x20 ADD SWAP1 DUP2 MSTORE PUSH1 0x20 ADD PUSH0 KECCAK256 PUSH1 0x4 ADD PUSH0 SWAP1 SLOAD SWAP1 PUSH2 0x100 EXP SWAP1 DIV PUSH1 0xFF AND ISZERO ISZERO EQ PUSH2 0xD1F JUMPI PUSH1 0x40 MLOAD PUSH32 0x8C379A000000000000000000000000000000000000000000000000000000000 DUP2 MSTORE PUSH1 0x4 ADD PUSH2 0xD16 SWAP1 PUSH2 0x1985 JUMP JUMPDEST PUSH1 0x40 MLOAD DUP1 SWAP2 SUB SWAP1 REVERT JUMPDEST PUSH0 DUP1 DUP3 DUP2 MSTORE PUSH1 0x20 ADD SWAP1 DUP2 MSTORE PUSH1 0x20 ADD PUSH0 KECCAK256 PUSH1 0x2 ADD SLOAD PUSH1 0x2 PUSH0 DUP1 PUSH0 DUP6 DUP2 MSTORE PUSH1 0x20 ADD SWAP1 DUP2 MSTORE PUSH1 0x20 ADD PUSH0 KECCAK256 PUSH0 ADD PUSH0 SWAP1 SLOAD SWAP1 PUSH2 0x100 EXP SWAP1 DIV PUSH20 0xFFFFFFFFFFFFFFFFFFFFFFFFFFFFFFFFFFFFFFFF AND PUSH20 0xFFFFFFFFFFFFFFFFFFFFFFFFFFFFFFFFFFFFFFFF AND PUSH20 0xFFFFFFFFFFFFFFFFFFFFFFFFFFFFFFFFFFFFFFFF AND DUP2 MSTORE PUSH1 0x20 ADD SWAP1 DUP2 MSTORE PUSH1 0x20 ADD PUSH0 KECCAK256 PUSH0 DUP3 DUP3 SLOAD PUSH2 0xDAF SWAP2 SWAP1 PUSH2 0x15A2 JUMP JUMPDEST SWAP3 POP POP DUP2 SWAP1 SSTORE POP PUSH0 DUP1 DUP3 DUP2 MSTORE PUSH1 0x20 ADD SWAP1 DUP2 MSTORE PUSH1 0x20 ADD PUSH0 KECCAK256 PUSH1 0x2 ADD SLOAD PUSH1 0x2 PUSH0 DUP1 PUSH0 DUP6 DUP2 MSTORE PUSH1 0x20 ADD SWAP1 DUP2 MSTORE PUSH1 0x20 ADD PUSH0 KECCAK256 PUSH1 0x1 ADD PUSH0 SWAP1 SLOAD SWAP1 PUSH2 0x100 EXP SWAP1 DIV PUSH20 0xFFFFFFFFFFFFFFFFFFFFFFFFFFFFFFFFFFFFFFFF AND PUSH20 0xFFFFFFFFFFFFFFFFFFFFFFFFFFFFFFFFFFFFFFFF AND PUSH20 0xFFFFFFFFFFFFFFFFFFFFFFFFFFFFFFFFFFFFFFFF AND DUP2 MSTORE PUSH1 0x20 ADD SWAP1 DUP2 MSTORE PUSH1 0x20 ADD PUSH0 KECCAK256 PUSH0 DUP3 DUP3 SLOAD PUSH2 0xE47 SWAP2 SWAP1 PUSH2 0x163D JUMP JUMPDEST SWAP3 POP POP DUP2 SWAP1 SSTORE POP PUSH1 0x1 PUSH0 DUP1 DUP4 DUP2 MSTORE PUSH1 0x20 ADD SWAP1 DUP2 MSTORE PUSH1 0x20 ADD PUSH0 KECCAK256 PUSH1 0x4 ADD PUSH0 PUSH2 0x100 EXP DUP2 SLOAD DUP2 PUSH1 0xFF MUL NOT AND SWAP1 DUP4 ISZERO ISZERO MUL OR SWAP1 SSTORE POP DUP1 PUSH32 0xE78A4937B81735499A64366D0E0D838E038EE57AD73E99AFF592B0B502DB88D8 PUSH1 0x40 MLOAD PUSH1 0x40 MLOAD DUP1 SWAP2 SUB SWAP1 LOG2 POP JUMP JUMPDEST PUSH0 PUSH1 0x1 SLOAD DUP3 LT PUSH2 0xEEE JUMPI PUSH1 0x40 MLOAD PUSH32 0x8C379A000000000000000000000000000000000000000000000000000000000 DUP2 MSTORE PUSH1 0x4 ADD PUSH2 0xEE5 SWAP1 PUSH2 0x1557 JUMP JUMPDEST PUSH1 0x40 MLOAD DUP1 SWAP2 SUB SWAP1 REVERT JUMPDEST PUSH0 DUP1 DUP4 DUP2 MSTORE PUSH1 0x20 ADD SWAP1 DUP2 MSTORE PUSH1 0x20 ADD PUSH0 KECCAK256 PUSH1 0x3 ADD SLOAD SWAP1 POP SWAP2 SWAP1 POP JUMP JUMPDEST PUSH0 DUP1 PUSH0 DUP1 PUSH0 DUP1 PUSH0 DUP1 DUP9 DUP2 MSTORE PUSH1 0x20 ADD SWAP1 DUP2 MSTORE PUSH1 0x20 ADD PUSH0 KECCAK256 PUSH1 0x40 MLOAD DUP1 PUSH1 0xA0 ADD PUSH1 0x40 MSTORE SWAP1 DUP2 PUSH0 DUP3 ADD PUSH0 SWAP1 SLOAD SWAP1 PUSH2 0x100 EXP SWAP1 DIV PUSH20 0xFFFFFFFFFFFFFFFFFFFFFFFFFFFFFFFFFFFFFFFF AND PUSH20 0xFFFFFFFFFFFFFFFFFFFFFFFFFFFFFFFFFFFFFFFF AND PUSH20 0xFFFFFFFFFFFFFFFFFFFFFFFFFFFFFFFFFFFFFFFF AND DUP2 MSTORE PUSH1 0x20 ADD PUSH1 0x1 DUP3 ADD PUSH0 SWAP1 SLOAD SWAP1 PUSH2 0x100 EXP SWAP1 DIV PUSH20 0xFFFFFFFFFFFFFFFFFFFFFFFFFFFFFFFFFFFFFFFF AND PUSH20 0xFFFFFFFFFFFFFFFFFFFFFFFFFFFFFFFFFFFFFFFF AND PUSH20 0xFFFFFFFFFFFFFFFFFFFFFFFFFFFFFFFFFFFFFFFF AND DUP2 MSTORE PUSH1 0x20 ADD PUSH1 0x2 DUP3 ADD SLOAD DUP2 MSTORE PUSH1 0x20 ADD PUSH1 0x3 DUP3 ADD SLOAD DUP2 MSTORE PUSH1 0x20 ADD PUSH1 0x4 DUP3 ADD PUSH0 SWAP1 SLOAD SWAP1 PUSH2 0x100 EXP SWAP1 DIV PUSH1 0xFF AND ISZERO ISZERO ISZERO ISZERO DUP2 MSTORE POP POP SWAP1 POP DUP1 PUSH0 ADD MLOAD DUP2 PUSH1 0x20 ADD MLOAD DUP3 PUSH1 0x40 ADD MLOAD DUP4 PUSH1 0x60 ADD MLOAD DUP5 PUSH1 0x80 ADD MLOAD SWAP6 POP SWAP6 POP SWAP6 POP SWAP6 POP SWAP6 POP POP SWAP2 SWAP4 SWAP6 SWAP1 SWAP3 SWAP5 POP JUMP JUMPDEST PUSH0 PUSH1 0x20 MSTORE DUP1 PUSH0 MSTORE PUSH1 0x40 PUSH0 KECCAK256 PUSH0 SWAP2 POP SWAP1 POP DUP1 PUSH0 ADD PUSH0 SWAP1 SLOAD SWAP1 PUSH2 0x100 EXP SWAP1 DIV PUSH20 0xFFFFFFFFFFFFFFFFFFFFFFFFFFFFFFFFFFFFFFFF AND SWAP1 DUP1 PUSH1 0x1 ADD PUSH0 SWAP1 SLOAD SWAP1 PUSH2 0x100 EXP SWAP1 DIV PUSH20 0xFFFFFFFFFFFFFFFFFFFFFFFFFFFFFFFFFFFFFFFF AND SWAP1 DUP1 PUSH1 0x2 ADD SLOAD SWAP1 DUP1 PUSH1 0x3 ADD SLOAD SWAP1 DUP1 PUSH1 0x4 ADD PUSH0 SWAP1 SLOAD SWAP1 PUSH2 0x100 EXP SWAP1 DIV PUSH1 0xFF AND SWAP1 POP DUP6 JUMP JUMPDEST PUSH0 PUSH1 0x1 SLOAD DUP3 LT PUSH2 0x10EF JUMPI PUSH1 0x40 MLOAD PUSH32 0x8C379A000000000000000000000000000000000000000000000000000000000 DUP2 MSTORE PUSH1 0x4 ADD PUSH2 0x10E6 SWAP1 PUSH2 0x1557 JUMP JUMPDEST PUSH1 0x40 MLOAD DUP1 SWAP2 SUB SWAP1 REVERT JUMPDEST PUSH0 DUP1 DUP4 DUP2 MSTORE PUSH1 0x20 ADD SWAP1 DUP2 MSTORE PUSH1 0x20 ADD PUSH0 KECCAK256 PUSH1 0x3 ADD SLOAD TIMESTAMP LT ISZERO SWAP1 POP SWAP2 SWAP1 POP JUMP JUMPDEST PUSH0 CALLVALUE GT PUSH2 0x114F JUMPI PUSH1 0x40 MLOAD PUSH32 0x8C379A000000000000000000000000000000000000000000000000000000000 DUP2 MSTORE PUSH1 0x4 ADD PUSH2 0x1146 SWAP1 PUSH2 0x1A13 JUMP JUMPDEST PUSH1 0x40 MLOAD DUP1 SWAP2 SUB SWAP1 REVERT JUMPDEST CALLVALUE PUSH1 0x2 PUSH0 CALLER PUSH20 0xFFFFFFFFFFFFFFFFFFFFFFFFFFFFFFFFFFFFFFFF AND PUSH20 0xFFFFFFFFFFFFFFFFFFFFFFFFFFFFFFFFFFFFFFFF AND DUP2 MSTORE PUSH1 0x20 ADD SWAP1 DUP2 MSTORE PUSH1 0x20 ADD PUSH0 KECCAK256 PUSH0 DUP3 DUP3 SLOAD PUSH2 0x119B SWAP2 SWAP1 PUSH2 0x15A2 JUMP JUMPDEST SWAP3 POP POP DUP2 SWAP1 SSTORE POP CALLER PUSH20 0xFFFFFFFFFFFFFFFFFFFFFFFFFFFFFFFFFFFFFFFF AND PUSH32 0xE1FFFCC4923D04B559F4D29A8BFC6CDA04EB5B0D3C460751C2402C5C5CC9109C CALLVALUE PUSH1 0x40 MLOAD PUSH2 0x11E8 SWAP2 SWAP1 PUSH2 0x13C3 JUMP JUMPDEST PUSH1 0x40 MLOAD DUP1 SWAP2 SUB SWAP1 LOG2 JUMP JUMPDEST PUSH0 PUSH1 0x1 SLOAD SWAP1 POP SWAP1 JUMP JUMPDEST PUSH0 PUSH1 0x1 SLOAD DUP3 LT PUSH2 0x1240 JUMPI PUSH1 0x40 MLOAD PUSH32 0x8C379A000000000000000000000000000000000000000000000000000000000 DUP2 MSTORE PUSH1 0x4 ADD PUSH2 0x1237 SWAP1 PUSH2 0x1557 JUMP JUMPDEST PUSH1 0x40 MLOAD DUP1 SWAP2 SUB SWAP1 REVERT JUMPDEST PUSH0 DUP1 DUP4 DUP2 MSTORE PUSH1 0x20 ADD SWAP1 DUP2 MSTORE PUSH1 0x20 ADD PUSH0 KECCAK256 PUSH1 0x4 ADD PUSH0 SWAP1 SLOAD SWAP1 PUSH2 0x100 EXP SWAP1 DIV PUSH1 0xFF AND SWAP1 POP SWAP2 SWAP1 POP JUMP JUMPDEST PUSH0 PUSH1 0x1 SLOAD DUP3 LT PUSH2 0x12AC JUMPI PUSH1 0x40 MLOAD PUSH32 0x8C379A000000000000000000000000000000000000000000000000000000000 DUP2 MSTORE PUSH1 0x4 ADD PUSH2 0x12A3 SWAP1 PUSH2 0x1557 JUMP JUMPDEST PUSH1 0x40 MLOAD DUP1 SWAP2 SUB SWAP1 REVERT JUMPDEST PUSH0 DUP1 DUP4 DUP2 MSTORE PUSH1 0x20 ADD SWAP1 DUP2 MSTORE PUSH1 0x20 ADD PUSH0 KECCAK256 PUSH1 0x2 ADD SLOAD SWAP1 POP SWAP2 SWAP1 POP JUMP JUMPDEST PUSH1 0x1 SLOAD DUP2 JUMP JUMPDEST PUSH0 DUP1 REVERT JUMPDEST PUSH0 DUP2 SWAP1 POP SWAP2 SWAP1 POP JUMP JUMPDEST PUSH2 0x12E3 DUP2 PUSH2 0x12D1 JUMP JUMPDEST DUP2 EQ PUSH2 0x12ED JUMPI PUSH0 DUP1 REVERT JUMPDEST POP JUMP JUMPDEST PUSH0 DUP2 CALLDATALOAD SWAP1 POP PUSH2 0x12FE DUP2 PUSH2 0x12DA JUMP JUMPDEST SWAP3 SWAP2 POP POP JUMP JUMPDEST PUSH0 PUSH1 0x20 DUP3 DUP5 SUB SLT ISZERO PUSH2 0x1319 JUMPI PUSH2 0x1318 PUSH2 0x12CD JUMP JUMPDEST JUMPDEST PUSH0 PUSH2 0x1326 DUP5 DUP3 DUP6 ADD PUSH2 0x12F0 JUMP JUMPDEST SWAP2 POP POP SWAP3 SWAP2 POP POP JUMP JUMPDEST PUSH0 PUSH20 0xFFFFFFFFFFFFFFFFFFFFFFFFFFFFFFFFFFFFFFFF DUP3 AND SWAP1 POP SWAP2 SWAP1 POP JUMP JUMPDEST PUSH0 PUSH2 0x1358 DUP3 PUSH2 0x132F JUMP JUMPDEST SWAP1 POP SWAP2 SWAP1 POP JUMP JUMPDEST PUSH2 0x1368 DUP2 PUSH2 0x134E JUMP JUMPDEST DUP2 EQ PUSH2 0x1372 JUMPI PUSH0 DUP1 REVERT JUMPDEST POP JUMP JUMPDEST PUSH0 DUP2 CALLDATALOAD SWAP1 POP PUSH2 0x1383 DUP2 PUSH2 0x135F JUMP JUMPDEST SWAP3 SWAP2 POP POP JUMP JUMPDEST PUSH0 PUSH1 0x20 DUP3 DUP5 SUB SLT ISZERO PUSH2 0x139E JUMPI PUSH2 0x139D PUSH2 0x12CD JUMP JUMPDEST JUMPDEST PUSH0 PUSH2 0x13AB DUP5 DUP3 DUP6 ADD PUSH2 0x1375 JUMP JUMPDEST SWAP2 POP POP SWAP3 SWAP2 POP POP JUMP JUMPDEST PUSH2 0x13BD DUP2 PUSH2 0x12D1 JUMP JUMPDEST DUP3 MSTORE POP POP JUMP JUMPDEST PUSH0 PUSH1 0x20 DUP3 ADD SWAP1 POP PUSH2 0x13D6 PUSH0 DUP4 ADD DUP5 PUSH2 0x13B4 JUMP JUMPDEST SWAP3 SWAP2 POP POP JUMP JUMPDEST PUSH0 DUP1 PUSH1 0x40 DUP4 DUP6 SUB SLT ISZERO PUSH2 0x13F2 JUMPI PUSH2 0x13F1 PUSH2 0x12CD JUMP JUMPDEST JUMPDEST PUSH0 PUSH2 0x13FF DUP6 DUP3 DUP7 ADD PUSH2 0x12F0 JUMP JUMPDEST SWAP3 POP POP PUSH1 0x20 PUSH2 0x1410 DUP6 DUP3 DUP7 ADD PUSH2 0x12F0 JUMP JUMPDEST SWAP2 POP POP SWAP3 POP SWAP3 SWAP1 POP JUMP JUMPDEST PUSH0 DUP1 PUSH0 PUSH1 0x60 DUP5 DUP7 SUB SLT ISZERO PUSH2 0x1431 JUMPI PUSH2 0x1430 PUSH2 0x12CD JUMP JUMPDEST JUMPDEST PUSH0 PUSH2 0x143E DUP7 DUP3 DUP8 ADD PUSH2 0x1375 JUMP JUMPDEST SWAP4 POP POP PUSH1 0x20 PUSH2 0x144F DUP7 DUP3 DUP8 ADD PUSH2 0x12F0 JUMP JUMPDEST SWAP3 POP POP PUSH1 0x40 PUSH2 0x1460 DUP7 DUP3 DUP8 ADD PUSH2 0x12F0 JUMP JUMPDEST SWAP2 POP POP SWAP3 POP SWAP3 POP SWAP3 JUMP JUMPDEST PUSH2 0x1473 DUP2 PUSH2 0x134E JUMP JUMPDEST DUP3 MSTORE POP POP JUMP JUMPDEST PUSH0 DUP2 ISZERO ISZERO SWAP1 POP SWAP2 SWAP1 POP JUMP JUMPDEST PUSH2 0x148D DUP2 PUSH2 0x1479 JUMP JUMPDEST DUP3 MSTORE POP POP JUMP JUMPDEST PUSH0 PUSH1 0xA0 DUP3 ADD SWAP1 POP PUSH2 0x14A6 PUSH0 DUP4 ADD DUP9 PUSH2 0x146A JUMP JUMPDEST PUSH2 0x14B3 PUSH1 0x20 DUP4 ADD DUP8 PUSH2 0x146A JUMP JUMPDEST PUSH2 0x14C0 PUSH1 0x40 DUP4 ADD DUP7 PUSH2 0x13B4 JUMP JUMPDEST PUSH2 0x14CD PUSH1 0x60 DUP4 ADD DUP6 PUSH2 0x13B4 JUMP JUMPDEST PUSH2 0x14DA PUSH1 0x80 DUP4 ADD DUP5 PUSH2 0x1484 JUMP JUMPDEST SWAP7 SWAP6 POP POP POP POP POP POP JUMP JUMPDEST PUSH0 PUSH1 0x20 DUP3 ADD SWAP1 POP PUSH2 0x14F7 PUSH0 DUP4 ADD DUP5 PUSH2 0x1484 JUMP JUMPDEST SWAP3 SWAP2 POP POP JUMP JUMPDEST PUSH0 DUP3 DUP3 MSTORE PUSH1 0x20 DUP3 ADD SWAP1 POP SWAP3 SWAP2 POP POP JUMP JUMPDEST PUSH32 0x496E76616C696420646572697661746976652049440000000000000000000000 PUSH0 DUP3 ADD MSTORE POP JUMP JUMPDEST PUSH0 PUSH2 0x1541 PUSH1 0x15 DUP4 PUSH2 0x14FD JUMP JUMPDEST SWAP2 POP PUSH2 0x154C DUP3 PUSH2 0x150D JUMP JUMPDEST PUSH1 0x20 DUP3 ADD SWAP1 POP SWAP2 SWAP1 POP JUMP JUMPDEST PUSH0 PUSH1 0x20 DUP3 ADD SWAP1 POP DUP2 DUP2 SUB PUSH0 DUP4 ADD MSTORE PUSH2 0x156E DUP2 PUSH2 0x1535 JUMP JUMPDEST SWAP1 POP SWAP2 SWAP1 POP JUMP JUMPDEST PUSH32 0x4E487B7100000000000000000000000000000000000000000000000000000000 PUSH0 MSTORE PUSH1 0x11 PUSH1 0x4 MSTORE PUSH1 0x24 PUSH0 REVERT JUMPDEST PUSH0 PUSH2 0x15AC DUP3 PUSH2 0x12D1 JUMP JUMPDEST SWAP2 POP PUSH2 0x15B7 DUP4 PUSH2 0x12D1 JUMP JUMPDEST SWAP3 POP DUP3 DUP3 ADD SWAP1 POP DUP1 DUP3 GT ISZERO PUSH2 0x15CF JUMPI PUSH2 0x15CE PUSH2 0x1575 JUMP JUMPDEST JUMPDEST SWAP3 SWAP2 POP POP JUMP JUMPDEST PUSH32 0x556E617574686F72697A65640000000000000000000000000000000000000000 PUSH0 DUP3 ADD MSTORE POP JUMP JUMPDEST PUSH0 PUSH2 0x1609 PUSH1 0xC DUP4 PUSH2 0x14FD JUMP JUMPDEST SWAP2 POP PUSH2 0x1614 DUP3 PUSH2 0x15D5 JUMP JUMPDEST PUSH1 0x20 DUP3 ADD SWAP1 POP SWAP2 SWAP1 POP JUMP JUMPDEST PUSH0 PUSH1 0x20 DUP3 ADD SWAP1 POP DUP2 DUP2 SUB PUSH0 DUP4 ADD MSTORE PUSH2 0x1636 DUP2 PUSH2 0x15FD JUMP JUMPDEST SWAP1 POP SWAP2 SWAP1 POP JUMP JUMPDEST PUSH0 PUSH2 0x1647 DUP3 PUSH2 0x12D1 JUMP JUMPDEST SWAP2 POP PUSH2 0x1652 DUP4 PUSH2 0x12D1 JUMP JUMPDEST SWAP3 POP DUP3 DUP3 SUB SWAP1 POP DUP2 DUP2 GT ISZERO PUSH2 0x166A JUMPI PUSH2 0x1669 PUSH2 0x1575 JUMP JUMPDEST JUMPDEST SWAP3 SWAP2 POP POP JUMP JUMPDEST PUSH32 0x496E76616C696420627579657220616464726573730000000000000000000000 PUSH0 DUP3 ADD MSTORE POP JUMP JUMPDEST PUSH0 PUSH2 0x16A4 PUSH1 0x15 DUP4 PUSH2 0x14FD JUMP JUMPDEST SWAP2 POP PUSH2 0x16AF DUP3 PUSH2 0x1670 JUMP JUMPDEST PUSH1 0x20 DUP3 ADD SWAP1 POP SWAP2 SWAP1 POP JUMP JUMPDEST PUSH0 PUSH1 0x20 DUP3 ADD SWAP1 POP DUP2 DUP2 SUB PUSH0 DUP4 ADD MSTORE PUSH2 0x16D1 DUP2 PUSH2 0x1698 JUMP JUMPDEST SWAP1 POP SWAP2 SWAP1 POP JUMP JUMPDEST PUSH32 0x5072696365206D7573742062652067726561746572207468616E203000000000 PUSH0 DUP3 ADD MSTORE POP JUMP JUMPDEST PUSH0 PUSH2 0x170C PUSH1 0x1C DUP4 PUSH2 0x14FD JUMP JUMPDEST SWAP2 POP PUSH2 0x1717 DUP3 PUSH2 0x16D8 JUMP JUMPDEST PUSH1 0x20 DUP3 ADD SWAP1 POP SWAP2 SWAP1 POP JUMP JUMPDEST PUSH0 PUSH1 0x20 DUP3 ADD SWAP1 POP DUP2 DUP2 SUB PUSH0 DUP4 ADD MSTORE PUSH2 0x1739 DUP2 PUSH2 0x1700 JUMP JUMPDEST SWAP1 POP SWAP2 SWAP1 POP JUMP JUMPDEST PUSH32 0x496E73756666696369656E742062616C616E6365000000000000000000000000 PUSH0 DUP3 ADD MSTORE POP JUMP JUMPDEST PUSH0 PUSH2 0x1774 PUSH1 0x14 DUP4 PUSH2 0x14FD JUMP JUMPDEST SWAP2 POP PUSH2 0x177F DUP3 PUSH2 0x1740 JUMP JUMPDEST PUSH1 0x20 DUP3 ADD SWAP1 POP SWAP2 SWAP1 POP JUMP JUMPDEST PUSH0 PUSH1 0x20 DUP3 ADD SWAP1 POP DUP2 DUP2 SUB PUSH0 DUP4 ADD MSTORE PUSH2 0x17A1 DUP2 PUSH2 0x1768 JUMP JUMPDEST SWAP1 POP SWAP2 SWAP1 POP JUMP JUMPDEST PUSH0 PUSH1 0x40 DUP3 ADD SWAP1 POP PUSH2 0x17BB PUSH0 DUP4 ADD DUP6 PUSH2 0x13B4 JUMP JUMPDEST PUSH2 0x17C8 PUSH1 0x20 DUP4 ADD DUP5 PUSH2 0x13B4 JUMP JUMPDEST SWAP4 SWAP3 POP POP POP JUMP JUMPDEST PUSH0 PUSH2 0x17D9 DUP3 PUSH2 0x12D1 JUMP JUMPDEST SWAP2 POP PUSH32 0xFFFFFFFFFFFFFFFFFFFFFFFFFFFFFFFFFFFFFFFFFFFFFFFFFFFFFFFFFFFFFFFF DUP3 SUB PUSH2 0x180B JUMPI PUSH2 0x180A PUSH2 0x1575 JUMP JUMPDEST JUMPDEST PUSH1 0x1 DUP3 ADD SWAP1 POP SWAP2 SWAP1 POP JUMP JUMPDEST PUSH32 0x4163636F756E742062616C616E6365206973207A65726F000000000000000000 PUSH0 DUP3 ADD MSTORE POP JUMP JUMPDEST PUSH0 PUSH2 0x184A PUSH1 0x17 DUP4 PUSH2 0x14FD JUMP JUMPDEST SWAP2 POP PUSH2 0x1855 DUP3 PUSH2 0x1816 JUMP JUMPDEST PUSH1 0x20 DUP3 ADD SWAP1 POP SWAP2 SWAP1 POP JUMP JUMPDEST PUSH0 PUSH1 0x20 DUP3 ADD SWAP1 POP DUP2 DUP2 SUB PUSH0 DUP4 ADD MSTORE PUSH2 0x1877 DUP2 PUSH2 0x183E JUMP JUMPDEST SWAP1 POP SWAP2 SWAP1 POP JUMP JUMPDEST PUSH2 0x1887 DUP2 PUSH2 0x1479 JUMP JUMPDEST DUP2 EQ PUSH2 0x1891 JUMPI PUSH0 DUP1 REVERT JUMPDEST POP JUMP JUMPDEST PUSH0 DUP2 MLOAD SWAP1 POP PUSH2 0x18A2 DUP2 PUSH2 0x187E JUMP JUMPDEST SWAP3 SWAP2 POP POP JUMP JUMPDEST PUSH0 PUSH1 0x20 DUP3 DUP5 SUB SLT ISZERO PUSH2 0x18BD JUMPI PUSH2 0x18BC PUSH2 0x12CD JUMP JUMPDEST JUMPDEST PUSH0 PUSH2 0x18CA DUP5 DUP3 DUP6 ADD PUSH2 0x1894 JUMP JUMPDEST SWAP2 POP POP SWAP3 SWAP2 POP POP JUMP JUMPDEST PUSH32 0x44657269766174697665206E6F74206578706972656420796574000000000000 PUSH0 DUP3 ADD MSTORE POP JUMP JUMPDEST PUSH0 PUSH2 0x1907 PUSH1 0x1A DUP4 PUSH2 0x14FD JUMP JUMPDEST SWAP2 POP PUSH2 0x1912 DUP3 PUSH2 0x18D3 JUMP JUMPDEST PUSH1 0x20 DUP3 ADD SWAP1 POP SWAP2 SWAP1 POP JUMP JUMPDEST PUSH0 PUSH1 0x20 DUP3 ADD SWAP1 POP DUP2 DUP2 SUB PUSH0 DUP4 ADD MSTORE PUSH2 0x1934 DUP2 PUSH2 0x18FB JUMP JUMPDEST SWAP1 POP SWAP2 SWAP1 POP JUMP JUMPDEST PUSH32 0x4465726976617469766520616C726561647920636C6F73656400000000000000 PUSH0 DUP3 ADD MSTORE POP JUMP JUMPDEST PUSH0 PUSH2 0x196F PUSH1 0x19 DUP4 PUSH2 0x14FD JUMP JUMPDEST SWAP2 POP PUSH2 0x197A DUP3 PUSH2 0x193B JUMP JUMPDEST PUSH1 0x20 DUP3 ADD SWAP1 POP SWAP2 SWAP1 POP JUMP JUMPDEST PUSH0 PUSH1 0x20 DUP3 ADD SWAP1 POP DUP2 DUP2 SUB PUSH0 DUP4 ADD MSTORE PUSH2 0x199C DUP2 PUSH2 0x1963 JUMP JUMPDEST SWAP1 POP SWAP2 SWAP1 POP JUMP JUMPDEST PUSH32 0x4465706F73697420616D6F756E74206D75737420626520677265617465722074 PUSH0 DUP3 ADD MSTORE PUSH32 0x68616E207A65726F000000000000000000000000000000000000000000000000 PUSH1 0x20 DUP3 ADD MSTORE POP JUMP JUMPDEST PUSH0 PUSH2 0x19FD PUSH1 0x28 DUP4 PUSH2 0x14FD JUMP JUMPDEST SWAP2 POP PUSH2 0x1A08 DUP3 PUSH2 0x19A3 JUMP JUMPDEST PUSH1 0x40 DUP3 ADD SWAP1 POP SWAP2 SWAP1 POP JUMP JUMPDEST PUSH0 PUSH1 0x20 DUP3 ADD SWAP1 POP DUP2 DUP2 SUB PUSH0 DUP4 ADD MSTORE PUSH2 0x1A2A DUP2 PUSH2 0x19F1 JUMP JUMPDEST SWAP1 POP SWAP2 SWAP1 POP JUMP INVALID LOG2 PUSH5 0x6970667358 0x22 SLT KECCAK256 0xCB 0xBF 0xB1 0xEB 0xE6 SWAP4 SLOAD ADD 0xF6 BYTE LOG2 SWAP15 GT 0xAB GASLIMIT SMOD 0xEF PUSH7 0xBFD098C08E09D9 0xBF PUSH0 EXTCODEHASH 0xC TIMESTAMP CODECOPY SHL PUSH5 0x736F6C6343 STOP ADDMOD AND STOP CALLER "
				},
				"gasEstimates": {
					"creation": {
						"codeDepositCost": "1351800",
						"executionCost": "1408",
						"totalCost": "1353208"
					},
					"external": {
						"balances(address)": "2848",
						"closeDerivative(uint256)": "infinite",
						"createDerivative(address,uint256,uint256)": "infinite",
						"deposit()": "infinite",
						"derivatives(uint256)": "infinite",
						"getDerivativeExpiration(uint256)": "infinite",
						"getDerivativeInfo(uint256)": "infinite",
						"getDerivativePrice(uint256)": "infinite",
						"getToralDerivatives()": "2454",
						"isDerivativeClosed(uint256)": "4983",
						"isDerivativeExpired(uint256)": "4979",
						"nextDerivativeId()": "2513",
						"settleDerivative(uint256)": "infinite",
						"updateDerivativePrice(uint256,uint256)": "infinite",
						"withdrawBalance(address)": "infinite"
					}
				},
				"methodIdentifiers": {
					"balances(address)": "27e235e3",
					"closeDerivative(uint256)": "035af668",
					"createDerivative(address,uint256,uint256)": "41cb3632",
					"deposit()": "d0e30db0",
					"derivatives(uint256)": "c0046e39",
					"getDerivativeExpiration(uint256)": "83ef3b18",
					"getDerivativeInfo(uint256)": "ba8db95b",
					"getDerivativePrice(uint256)": "ec5c0b2d",
					"getToralDerivatives()": "d9e80a4b",
					"isDerivativeClosed(uint256)": "e1cf4727",
					"isDerivativeExpired(uint256)": "cb4c1602",
					"nextDerivativeId()": "fac3fa3d",
					"settleDerivative(uint256)": "793c3b60",
					"updateDerivativePrice(uint256,uint256)": "331119cf",
					"withdrawBalance(address)": "756af45f"
				}
			},
			"storageLayout": {
				"storage": [
					{
						"astId": 17,
						"contract": ".deps/Derivative/DerivativeContract.sol:DerivativeContract",
						"label": "derivatives",
						"offset": 0,
						"slot": "0",
						"type": "t_mapping(t_uint256,t_struct(Derivative)12_storage)"
					},
					{
						"astId": 19,
						"contract": ".deps/Derivative/DerivativeContract.sol:DerivativeContract",
						"label": "nextDerivativeId",
						"offset": 0,
						"slot": "1",
						"type": "t_uint256"
					},
					{
						"astId": 23,
						"contract": ".deps/Derivative/DerivativeContract.sol:DerivativeContract",
						"label": "balances",
						"offset": 0,
						"slot": "2",
						"type": "t_mapping(t_address,t_uint256)"
					}
				],
				"types": {
					"t_address": {
						"encoding": "inplace",
						"label": "address",
						"numberOfBytes": "20"
					},
					"t_bool": {
						"encoding": "inplace",
						"label": "bool",
						"numberOfBytes": "1"
					},
					"t_mapping(t_address,t_uint256)": {
						"encoding": "mapping",
						"key": "t_address",
						"label": "mapping(address => uint256)",
						"numberOfBytes": "32",
						"value": "t_uint256"
					},
					"t_mapping(t_uint256,t_struct(Derivative)12_storage)": {
						"encoding": "mapping",
						"key": "t_uint256",
						"label": "mapping(uint256 => struct DerivativeContract.Derivative)",
						"numberOfBytes": "32",
						"value": "t_struct(Derivative)12_storage"
					},
					"t_struct(Derivative)12_storage": {
						"encoding": "inplace",
						"label": "struct DerivativeContract.Derivative",
						"members": [
							{
								"astId": 3,
								"contract": ".deps/Derivative/DerivativeContract.sol:DerivativeContract",
								"label": "seller",
								"offset": 0,
								"slot": "0",
								"type": "t_address"
							},
							{
								"astId": 5,
								"contract": ".deps/Derivative/DerivativeContract.sol:DerivativeContract",
								"label": "buyer",
								"offset": 0,
								"slot": "1",
								"type": "t_address"
							},
							{
								"astId": 7,
								"contract": ".deps/Derivative/DerivativeContract.sol:DerivativeContract",
								"label": "price",
								"offset": 0,
								"slot": "2",
								"type": "t_uint256"
							},
							{
								"astId": 9,
								"contract": ".deps/Derivative/DerivativeContract.sol:DerivativeContract",
								"label": "expiration",
								"offset": 0,
								"slot": "3",
								"type": "t_uint256"
							},
							{
								"astId": 11,
								"contract": ".deps/Derivative/DerivativeContract.sol:DerivativeContract",
								"label": "isClosed",
								"offset": 0,
								"slot": "4",
								"type": "t_bool"
							}
						],
						"numberOfBytes": "160"
					},
					"t_uint256": {
						"encoding": "inplace",
						"label": "uint256",
						"numberOfBytes": "32"
					}
				}
			},
			"userdoc": {
				"kind": "user",
				"methods": {},
				"version": 1
			}
		}
	}
}